S00D000044435F496F542E733337F5
S3150800000000100020510B0008376D0008376D0008F6
S31508000010376D0008376D0008376D0008376D000822
S31508000020376D0008376D0008376D0008376D000812
S31508000030376D0008376D0008376D0008376D000802
S31508000040376D0008376D0008376D0008376D0008F2
S31508000050376D0008376D0008376D0008376D0008E2
S31508000060376D0008376D0008376D0008376D0008D2
S31508000070376D0008376D00085D090008896C0008AF
S31508000080376D0008376D0008376D0008376D0008B2
S31508000090376D0008376D0008376D0008376D0008A2
S315080000A0376D0008376D0008376D0008376D000892
S315080000B0376D0008376D0008376D0008376D000882
S315080000C0376D0008376D0008376D0008F917000806
S315080000D0376D0008376D0008376D000851110008A4
S315080000E031110008376D0008376D0008376D0008B4
S315080000F0376D0008376D0008376D0008376D000842
S31508000100376D0008376D0008376D0008376D000831
S31508000110376D0008376D0008376D0008376D000821
S31508000120376D0008376D0008376D0008376D000811
S31508000130376D0008376D0008376D0008376D000801
S31508000140376D0008376D0008376D0008376D0008F1
S31508000150376D0008376D0008376D0008376D0008E1
S31508000160376D0008376D0008376D0008376D0008D1
S31508000170376D0008376D0008376D0008376D0008C1
S31508000180376D0008376D0008376D00087180000864
S31508000190376D0008376D0008376D0008376D0008A1
S315080001A0376D0008376D0008376D0008376D000891
S309080001B0376D000891
S315080001C0013800D0FCE770470348044B834202D04D
S315080001D0034B03B118477047C8250020C8250020DF
S315080001E000000000064B0749C91A891048BF0131AB
S315080001F0491003D0044B0BB101481847704700BF9C
S31508000200C8250020C82500200000000010B5064CAF
S31508000210237843B9FFF7D8FF044B13B10448AFF36B
S3150800022000800123237010BD68150020000000001F
S31508000230148C000808B5054B1BB105490548AFF3F2
S315080002400080BDE80840FFF7CDBF00BF00000000F2
S3150800025000100020148C0008A3F5803A704700BFF0
S31508000260174B002B08BF134B9D46FFF7F5FF0021E0
S315080002708B460F461348144A121A07F00DF80E4B10
S31508000280002B00D098470D4B002B00D09847002034
S31508000290002104000D000D48002802D00C48AFF3D9
S315080002A0008005F063FF2000290006F043FC05F0F6
S315080002B067FD00BF00000800000000000000000005
S315080002C00010002000100020F41500200000000097
S315080002D000000000F0B52DED048B83B000F0B8F9EE
S315080002E0014604464FF4F06000F078FA9FED359A1F
S315080002F0B4EEC90AF1EE10FAB0EE408A57DCB5EE54
S31508000300C00AF1EE10FA55D4C4F5F06006F05FFFA6
S31508000310DFED2D7A09282D4E2D4F38FE278AB4F5A4
S31508000320F06F86ED008A87ED008A46DA06F04EFC05
S3150800033006F06DFC274DD5ED078A96ED007AF8EEA6
S31508000340688A28EE877AC7EE097AFCEEE77A2B6B7D
S3150800035017EE906ADA0704D440F242311E4806F0D6
S31508000360F8FCAE66D7ED007A68EEA78AC8EE897AF9
S31508000370FCEEE77A2B6B17EE906ADB0704D440F2A3
S315080003804231154806F0E5FC124B18EE100AC3F880
S31508000390886005F00DFB2246CDE900014FF4F061B7
S315080003A00E4805F0A3FD03B0BDEC048BF0BDB0EE1E
S315080003B0498AA9E79FED048AA6E706F012FC06F02B
S315080003C01BFCB7E70000C842000000002C10002004
S315080003D02810002000800450D88000082D810008CD
S315080003E010B500F09FF800230B4C1946206802222E
S315080003F0806805F08DFD00232068194602224068B2
S3150800040005F086FD054B186804F068FA05F01CF837
S31508000410BDE8104007F060BC7C18002038180020A2
S3150800042037B507F059FC00F013F9044600F016F941
S31508000430094D23464021094A0090284605F01CFE2E
S31508000440284606F041FF29460246002006F05FFDD1
S31508000450204603B030BD00BF69150020538100084F
S31508000460034BD3F8A43023FA00F000F001007047DC
S3150800047000C0035008B50B2823D8092824D90A2018
S31508000480FFF7EEFF02460B20FFF7EAFF214940EA95
S3150800049042000B6840EA83030D2B0CD00E2B0ED8B6
S315080004A0012202FA03F344F2821213420DD140F6F6
S315080004B01402134203D0184A1368013B13600860FC
S315080004C002E00C38012804D908BD134A1368013321
S315080004D0F4E70C20FFF7C4FF02460D20FFF7C0FF24
S315080004E00E4940EA42000B6840EA83030D2B0CD004
S315080004F00E2BE4D8012202FA03F344F282121342C5
S3150800050005D140F614021342D9D0054AD4E7044A65
S31508000510DCE700BF241000201C100020201000205B
S315080005201810002013B501213A2001F06FFD06F0DE
S3150800053056FC0222012310460A2103F0D5F80222AE
S31508000540012310460B2103F0CFF80222012310469F
S315080005500C2103F0C9F80222012310460D2103F0ED
S31508000560C3F80A20FFF77CFF02460B20FFF778FF47
S31508000570324B40EA420018600C20FFF771FF024632
S315080005800D20FFF76DFF40EA42004FF0FF322C4B7B
S31508000590012418602B4B0220C3F820240A22234684
S315080005A01146CDE9004403F02FF80B2223461146E5
S315080005B0CDE90044022003F027F80C222346114611
S315080005C0CDE90044022003F01FF80D222346CDE9A9
S315080005D000441D4C1146022003F016F821460A2055
S315080005E001F044F921460B2001F040F921460C2080
S315080005F001F03CF921460D2001F038F94FF48062EC
S31508000600124B2720C3F824244FF40062C3F824248D
S315080006104FF48052C3F824244FF40052C3F824241C
S3150800062004F00AF9272004F0D5F8282004F004F984
S31508000630282002B0BDE8104004F0CCB824100020F1
S315080006402010002000E003507504000800D0035075
S31508000650014B1868704700BF1C100020014B186832
S31508000660704700BF1810002038B50A4B044633F807
S3150800067010300D46CB40DB0704D440F285410648CE
S3150800068006F067FB302301225C43044BAA401A514B
S3150800069038BD00BFC08100086B81000840D00350F8
S315080006A038B50A4B044633F810300D46CB40DB0705
S315080006B004D440F25641064806F04BFB302301228B
S315080006C05C43044BAA401A5138BD00BFC0810008DC
S315080006D06B81000840E0035070B52DED028B88B0A1
S315080006E000240326364D0F2200210DF1110006F0D5
S315080006F0D3FD0D220021684606F0CEFD284604A942
S315080007008DF810408DF8066003F016FA2D4B2E4A28
S31508000710C3F8E066C3F8E42602F58032C3F8E82693
S3150800072021466A46284603F053FA01216A462846B6
S3150800073003F04EFA242001F08FFC4FF47A73B0FBD5
S31508000740F3F42B6BD90704D440F2BE411F4806F0D8
S3150800075000FB07EE904A1E4BEC61B8EEE78A93ED74
S31508000760007ADFED1C8A28EE077AC7EE287AFCEEB7
S31508000770E77A2B6B17EE906ADA0704D440F2423117
S31508000780124806F0E6FA0E4C134BA666D3ED007A2D
S3150800079028EE278AC8EE287AFCEEE77A236B17EE4E
S315080007A0905ADB0704D440F24231084806F0D1FAE1
S315080007B00123C4F88850E36008B0BDEC028B70BD15
S315080007C00080045000C0035003000800D8800008C9
S315080007D02C1000200000C84228100020401A07EEFE
S315080007E0900A104BF8EEE77A93ED000A37EE800A86
S315080007F083ED000A0C4B93ED007AC3ED007A0B4BA0
S3150800080037EEC77AD3ED006A094B93ED006A20EEFE
S31508000810060A084B07EEA60AD3ED007A07EE270A62
S31508000820704700BF30100020341000200818002040
S31508000830041800200018002030B5002006220C4CB1
S3150800084054F8041B0B7A022B09D853B1022A08D094
S31508000850084A096811601A4603E00120F0E7032BED
S3150800086002D00028F9D030BD551E012DF0D8F8E782
S315080008700C1800203810002070B5A8B0234D12AC13
S315080008800FCD0FC495E80700292384E80700204AFE
S315080008900024CDE903231F491F4BCDE90944CDE9BF
S315080008A005134FF480230B94089319AD08AE0FCEA9
S315080008B0CDE90E44079410940FC5184B0DAE2B6066
S315080008C0174B1EAD0D930FCE0FC52020154B12AA40
S315080008D02B60154B19A92393144B2694CDE92403B1
S315080008E0134B14482793144B009303AB04F0AAFC4C
S315080008F0044618B19B21114806F02BFA00214FF443
S31508000900E13006F00AFA204628B070BDFC810008DE
S3150800091000000A50000500060009000824000A50D5
S31508000920020004003C000A50A9150020010101003C
S3150800093024180020F01000203C100020C881000870
S3150800094008B5FFF799FF28B1BDE80840CB21024852
S3150800095006F0FFB908BD00BFC8810008014804F0C9
S315080009602BBD00BFF010002030B585B042F21075DF
S3150800097000246946074800958DF8044000F096FC67
S3150800098002A9054802958DF80C4000F08FFC05B0C9
S3150800099030BD00BF441800203C18002008B50448A4
S315080009A007F0DDFA06F03EF9BDE8084000F008B8A1
S315080009B034890008014807F0D2BA00BF3489000814
S315080009C02DE9F04796B0544E09AC35460FCD0FC405
S315080009D02B6806F1140523600EAC0FCD0FC495E8FD
S315080009E00F00DFF84C8184E80F004C4807F0B7FA8F
S315080009F0404607F0B4FA4FF48073494FADF83C30DF
S31508000A00484B38460B9309A90EAB0D9302F068FCC8
S31508000A1004214FF4E065B6F834A00DEB010001227D
S31508000A20ADF804A000F008FAB6F8369000220121C5
S31508000A3002A8ADF8089000F0FFF9368F01220421CC
S31508000A4003A8ADF80C6000F0F7F90122042104A808
S31508000A50354CADF8105000F0EFF9344B4FF44870B0
S31508000A60C4F8C8344FF00213C4F8C43403F580330D
S31508000A70C4F8CC341C23C4F8B43404F055FD08A8D3
S31508000A80ADF8205000F04CFA142004F04DFD08A8EB
S31508000A90ADF8205000F014FA232004F045FD08A80C
S31508000AA0ADF8205000F03CFAB921384606F0DBF9DB
S31508000AB008A8ADF8205000F003FA002205A8114650
S31508000AC0ADF814A000F0B8F9002206A81146ADF852
S31508000AD0189000F0B1F90122002107A8ADF81C60B2
S31508000AE000F0AAF90122002108A8ADF8205000F06C
S31508000AF0A3F9384602F0A8FA00234046C4F8B434ED
S31508000B00C4F8C834C4F8C434C4F8CC3407F02AFA94
S31508000B1016B0BDE8F08700BF1882000834890008BF
S31508000B2000C00850E070720000C0035002000100C7
S31508000B30388900080348044A0449121A921006F034
S31508000B40FBB800BFB4010008B4010008F415002082
S31508000B5008B5154B83F30A8800F030F8FFF7EAFF6B
S31508000B60124B13498B4212D30020124B12498B4267
S31508000B7018D3FFF775FB186850F82240586840F8F4
S31508000B802240013298688242F5D30C33EAE7002204
S31508000B90F8E71C6844F8220001325C68A242F8D3E0
S31508000BA00833E4E70022F8E7000000201C8C000860
S31508000BB0288C0008288C0008288C000870B54FF48B
S31508000BC08041144B144A154D9A60D3F8882005F5D0
S31508000BD0005442F47002C3F88820114A91664FF017
S31508000BE0FF3222666FF4003262660D22A266022286
S31508000BF0C3F8D020BFF34F8FBFF36F8F4FF4403643
S31508000C00002003F019FE0020E66003F0E3FD2E61E4
S31508000C1070BD00BF00ED00E0000000080080004441
S31508000C2000900050014B1860704700BF5018002014
S31508000C30054B1860054B1B6F03F00703032B01D107
S31508000C4006F00EBE704700BF5818002000800050FE
S31508000C5038B504460D4601B118B94521044806F0D1
S31508000C6078F8236813B92B60256038BD1C46F8E769
S31508000C705282000810B5044618B95621044806F0F1
S31508000C8068F8206818B1036823600023036010BD64
S31508000C905282000807B500232948019307F05FF937
S31508000CA04FF44073012204216846ADF8003000F085
S31508000CB0C3F80122234B0520C3F8442401A907F0F1
S31508000CC049F9002839D1204BD3F8F02042F0010227
S31508000CD0C3F8F020D3F8FC2042F08072C3F8FC2059
S31508000CE01A4AA3F55D431A60019B194A03F5D523F1
S31508000CF003F2FC43B3FBF2F3164A013B13610223EA
S31508000D00C2F8F0304FF48073C2F804334FF06043F2
S31508000D10114AC3F8B02F114AC3F8802ED3F8002E13
S31508000D2042F48072C3F8002EFF2283F82020D3F8FD
S31508000D30002E22F48072C3F8002E03B05DF804FB7F
S31508000D403489000800D0035000ED00E0FF0300409E
S31508000D50F8590D00000004E055CEACC509000100A5
S31508000D6030B54FF06043D3F8802ED20715D501244D
S31508000D700B4D8440D5F8FC2042F08072C5F8FC2063
S31508000D80D3F8002E2243C3F8002E53F82020002A59
S31508000D90F0D003F82010002030BD1120FCE700BF7A
S31508000DA000ED00E02DE9F0410C2504464FF001085E
S31508000DB0124E0CB314F001000BD0002024F00104ED
S31508000DC005FB00625768002FF3D09168C0B2B84798
S31508000DD0EFE72246013020284FEA520201D0D30716
S31508000DE0F8D508FA00F20F2824EA0204E8D91038E0
S31508000DF005FB0062B432E5E7BDE8F0810C1100207E
S31508000E0008B50C4807F0ABF8272003F0FDFC28B11D
S31508000E10272003F011FD272003F0DCFC282003F02F
S31508000E20F3FC28B1282003F007FD282003F0D2FCA4
S31508000E30002008BD348900082DE9F0410E46904689
S31508000E40044638B993211C4805F083FF2225284615
S31508000E50BDE8F0810F290DD803782BB1012B0FD0EF
S31508000E60022B10D0032B05D140F2FF736278D340D2
S31508000E70DB070BD49721104805F06BFF2125E6E721
S31508000E8040F2FF13F2E743F6FF73EFE70B4BD3F895
S31508000E9010532DB19B21084805F05BFF0225D6E7C4
S31508000EA007F052F8074642462046314603F0F4F862
S31508000EB0384607F044F8CAE7A882000800C003507D
S31508000EC038B5044628B91548E42105F042FF222022
S31508000ED038BD03782BB1012B0FD0022B10D0032B72
S31508000EE005D140F2FF736278D340DB070BD40B4879
S31508000EF0E82105F02EFF2120EAE740F2FF13F2E78A
S31508000F0043F6FF73EFE707F01FF80546204606F09D
S31508000F107DFD284607F013F80020D9E7A8820008C7
S31508000F2038B5044628B91648FC2105F012FF2220D8
S31508000F3038BD03782BB1012B10D0022B11D0032B0F
S31508000F4005D140F2FF736278D340DB070CD40C4816
S31508000F504FF4807105F0FDFE2120E9E740F2FF130A
S31508000F60F1E743F6FF73EEE706F0EEFF0546204687
S31508000F7003F00AF8284606F0E2FF0020D8E700BF8B
S31508000F80A88200082DE9F0410D4616469846044603
S31508000F9000B139B931484FF4E07105F0DAFE222084
S31508000FA0BDE8F0810278DAB1012A1DD0022A0AD0FA
S31508000FB0032A15D0FF2A0CD04FF4E271274805F012
S31508000FC0C8FE2120ECE743F6FF734278D340DA07E0
S31508000FD0F2D5022E0CD9042E0AD04FF4E471EDE7AF
S31508000FE040F2FF736278F1E740F2FF134278EDE7CB
S31508000FF006F0AAFF23780746FF2B05D0324620467F
S31508001000296803F0B5F828602B68013309D12378DD
S31508001010FF2B06D1124B6078D3F8241405F057FF3E
S31508001020286029684B1C14D00C230E4A03FB0122A6
S31508001030069BC2F8048093602378FF2B04D0012313
S31508001040094A8B40C2F82434384606F078FF002057
S31508001050A6E7384606F073FF2D20A1E7A882000808
S3150800106000C003500C11002000D003502DE9F041B8
S315080010700D4690461F46044600B139B929484FF433
S315080010800B7105F066FE2220BDE8F0810178002983
S315080010903AD001293CD002290AD0032934D0FF29A5
S315080010A00CD0204840F2312105F053FE2120EBE711
S315080010B043F6FF734278D340DA07F2D506F044FFC9
S315080010C023780646FF2B05D042462046296803F0BA
S315080010D043F928602A68531C1ED00C23124903FBC7
S315080010E00211069BC1F8B870C1F8BC302378FF2BF3
S315080010F005D00123103293400C4AC2F824343046F6
S3150800110006F01DFF0020BFE740F2FF736278D2E7C2
S3150800111040F2FF134278CEE7304606F010FF2D2046
S31508001120B2E700BFA88200080C11002000D00350C7
S3150800113008B502F057FF054B00F0553020F0A040E7
S31508001140C3F82004BDE80840FFF72CBE00E00350B2
S3150800115008B502F047FF054B00F0AA3020F0204002
S31508001160C3F82004BDE80840FFF71CBE00E00350A2
S315080011701D4B98422CD00FD8A3F5004398421FD098
S3150800118003F5804398421FD0A3F50043984212D036
S315080011905E21164805F0DDBD154B98421CD003F5B7
S315080011A0804398421CD0A3F500439842F0D1114BD6
S315080011B00B60114B02E0114B0B60114B136070472B
S315080011C0104B0B60104BF9E7104B0B60104BF5E713
S315080011D0104B0B60104BF1E7104B0B60104BEDE713
S315080011E0104B0B60104BE9E70040055002830008DE
S315080011F000C0055018890008548900082889000885
S31508001200848900082489000878890008208900084C
S315080012106C8900081C890008608900081489000880
S3150800122048890008108900083C89000838B51C4B15
S31508001230044698422ED003F5804398422AD003F5F7
S315080012408043984229D003F58043984225D003F578
S315080012508043984221D003F5804398421DD003F578
S315080012608043984219D003F58043984215D003F578
S31508001270804398420CD00B4DA84204D040F2D221AC
S31508001280094805F066FD601B18BF0120013838BD06
S315080012900020FBE74FF0FF30F9E74FF6FF70F6E75F
S315080012A00080045000C00650D880000870B58CB085
S315080012B004460D4602AA01A90068FFF759FF0198DE
S315080012C006F04DFE554806F04AFE63792A798DF8F0
S315080012D00030003AA37918BF0122042168468DF828
S315080012E00130FFF7A9FD0D22002104A805F0D4FF5F
S315080012F002238DF811304A4B04AA05932B792068EE
S31508001300591E4B424B4121798DF81A3002F060FC88
S315080013102268444B9A426ED003F580439A426CD0B9
S3150800132003F580439A426AD003F580439A4268D00F
S3150800133003F580439A4266D003F580439A4264D007
S3150800134003F580439A4262D003F580439A4260D0FF
S3150800135003F580439A425ED033483449A3F52E33C9
S31508001360A3F59E73824208BF0B46A079627921795C
S3150800137042EA004243F82120029B03A9187906F0A5
S31508001380E9FD2B682668039D3046B5FBF3F5FFF7A4
S315080013904DFF013D854204D940F2BC41244805F081
S315080013A0D8FC336BDA0704D440F2BE41204805F076
S315080013B0D0FCF561256826792846FFF737FF2B6BA1
S315080013C0DB0704D440F24231194805F0C2FC05EBAC
S315080013D0461500260F223146AE660DF1210005F0AE
S315080013E05BFF0123206808A98DF8203002F0A4FBD2
S315080013F030460CB070BD0F4BB7E70F4BB5E70F4B38
S31508001400B3E70F4BB1E70F4BAFE70F4BADE70F4B0A
S31508001410ABE70F4BA9E70F4BA7E700BF34890008D6
S31508001420000103000080045000C0065004C80350A1
S31508001430D8800008E4C6035004C7035024C70350E5
S3150800144044C7035064C7035084C70350A4C7035056
S31508001450C4C70350E4C703502DE9F04F85B09A4638
S31508001460554B06461B780F461546DDF83C909DF809
S3150800147044B0DDF85080002B00F09780072A00F270
S3150800148096800E9B002B00F09280B9F1000F00F0B9
S315080014908E80129BB3F5006F00F38980012803D173
S315080014A0109B002B00F08380444B03EB05131B7B3A
S315080014B0002B7ED0424C10220021684605F0ECFE37
S315080014C004EB45141022A7BB3946204605F0E4FE76
S315080014D043F210036380BBF1000F03D1E37843F0B6
S315080014E00303E370364A0E9B02EB451CCCE90193D5
S315080014F0129B6901581E9DF84C30C0F30A0003F090
S3150800150003039B0643EA001E53582E48012E00EAA1
S3150800151003004EEA0003CDF800A0535017D0B8F1E7
S31508001520000F2ED19CF8023068F304138CF80230B1
S3150800153027E00021204605F0AFFE4FF44473638090
S31508001540BBF1000FCED1E37843F03003C9E713238C
S315080015500CF1100ECCF80C309CE80F008EE80F004A
S315080015606FF00301DCF81C20109B61F39F02012F2A
S31508001570CCF81C20CCF8143003D1CCF81890CCF851
S31508001580043000270D4A290102EB051342F80180B1
S31508001590159A28465A60694622469F605E7302F08D
S315080015A06BF9384605B0BDE8F08F0748FAE70748F3
S315080015B0F8E70748F6E700BFC915002074130020AE
S315080015C0741200200F80FFF3028000F0018000F003
S315080015D0078000F038B5124B05461B78DBB1E0B141
S315080015E006F0B2FC0F4A00231146147B54B92B604F
S315080015F001251A0101EB03131D738C5006F09FFC9D
S31508001600204638BD0133082B02F11002EDD106F051
S3150800161096FC0548F5E70548F3E70548F1E700BFF6
S31508001620C915002074130020048000F0028000F021
S31508001630018000F038B506F087FC002305460B4A02
S31508001640147B6CB90133082B02F11002F8D102F0B1
S3150800165095F8074B28461C7006F071FC204603E0F7
S31508001660284606F06CFC034838BD00BF74130020FA
S31508001670C9150020058000F010B50D4B04461B78EF
S3150800168093B1072812D806F05FFC0A4B03EB041344
S315080016901A7B2AB100241C7306F051FC204610BDA3
S315080016A006F04DFC0448FAE70448F8E70448F6E76C
S315080016B0C915002074130020068000F0028000F08F
S315080016C0018000F013B5154B1868002301908DF8BA
S315080016D0043006F039FC124B1C7824B106F02FFCB6
S315080016E0104802B010BD01221A7006F028FC0E4BF5
S315080016F001A81C731C7783F82C4083F83C4083F8B8
S315080017004C4083F85C4083F86C4083F87C4008239F
S315080017108DF8073002F068F82046E2E75A83000899
S31508001720C9150020038000F074130020F8B50D4D8C
S315080017302D7885B1072810DC0B4D060105EB001442
S31508001740277B67B1AB510025069BA560636002F055
S3150800175093F82846F8BD0548FCE70548FAE7054822
S31508001760F8E700BFC915002074130020028000F0B6
S31508001770018000F0078000F008B50A4A12785AB1CD
S3150800178007280BD8084A02EB00131B7B43B100213C
S3150800179002F00AF8002008BD0448FCE70448FAE706
S315080017A00448F8E7C915002074130020028000F0E9
S315080017B0018000F0078000F008B50A4A12785AB18D
S315080017C007280BD8084A02EB00131B7B43B10121FB
S315080017D001F0EAFF002008BD0448FCE70448FAE7E0
S315080017E00448F8E7C915002074130020028000F0A9
S315080017F0018000F0078000F02DE9F041174B1F6DBE
S315080018005B6D1F4000D5FEE701260025144CDFF866
S315080018105880374218D02368C8F85060A3B1A16829
S31508001820284601316268A1609847637B012B0BD17A
S3150800183050B90C4B03EB45131A7B60F341021A733C
S315080018401A7F60F341021A770135082D4FEA4606DA
S3150800185004F11004DDD1BDE8F08100BF000004509A
S315080018607413002074120020002004501FB54FF690
S31508001870FF730F28ADF80830039009DC00910022A9
S31508001880084B03A902A8FFF77DFB05B05DF804FB2A
S315080018901038039000910022024B03A902A8FFF713
S315080018A0E5FBF2E7D96D0008044BD3F88420D2068D
S315080018B0FBD4D3F88400C0F3811070470040005071
S315080018C038B5104B0546D3F800310C4603F0030330
S315080018D0022B0BD0032B0DD0012B0FD105F0DAFF0D
S315080018E0032305B1286004B1236038BD06F024F847
S315080018F00923F6E705F0D4FF0823F2E701230020C1
S31508001900EFE700BF0080005038B5104B0546D3F806
S3150800191040310C4603F00303022B0BD0032B0DD0EA
S31508001920012B0FD106F0FCFA0A2305B1286004B191
S31508001930236038BD06F000F80923F6E706F0F3FA47
S315080019400C23F2E701230020EFE700BF00800050D8
S3150800195038B5104B0546D3F860310C4603F003033F
S31508001960022B0BD0032B0DD0012B0FD106F0D8FA82
S315080019700A2305B1286004B1236038BD05F0DCFFF1
S315080019800923F6E706F0CFFA0C23F2E70123002035
S31508001990EFE700BF0080005038B5104B0546D3F876
S315080019A040320C4603F00303022B0BD0032B0DD059
S315080019B0012B0FD106F0B4FA0A2305B1286004B149
S315080019C0236038BD05F0B8FF0923F6E706F0ABFA41
S315080019D00C23F2E701230020EFE700BF0080005048
S315080019E038B5124B0546D3F880300C4603F003038E
S315080019F0022B0BD0032B0DD0012B0FD105F010FFB6
S31508001A000E2305B1286004B1236038BD05F04CFFEC
S31508001A100723F6E705F0FEFE0623F2E7044841F23F
S31508001A20142105F096F900231846EAE700800050CD
S31508001A305E83000838B51A4B0546D3F820010C46D4
S31508001A4000F00700062821D8DFE800F028040C1467
S31508001A5010181C0005F0DEFE052305B1286004B148
S31508001A60236038BD05F016FF0323F6E705F01CFFD3
S31508001A700723F2E705F00AFF0223EEE705F0CAFEA0
S31508001A800623EAE705F006FF0423E6E7054841F2E0
S31508001A90912105F05EF900231846DEE70123DCE70D
S31508001AA0008000505E83000838B5194B0546D3F808
S31508001AB028310C4603F00703013B052B20D8DFE845
S31508001AC003F003131B0F0B1705F0A4FE052305B13E
S31508001AD0286004B1236038BD05F09CFE0623F6E7AE
S31508001AE005F0E2FE0723F2E705F0D4FE0323EEE74E
S31508001AF005F0D0FE0423EAE705F0C8FE0223E6E770
S31508001B00044841F2990105F024F900231846DEE756
S31508001B10008000505E83000837B500230193194BF7
S31508001B200546D3F820320C4603F00703042B1FD8CA
S31508001B30DFE803F025030F141900002101A8FFF7B9
S31508001B40B3FF12230DB1019A2A6004B1236003B0D2
S31508001B5030BD05F0A9FE07230190F3E706F0E0F98A
S31508001B600A230190EEE705F0E7FE09230190E9E76D
S31508001B7041F25601044805F0ECF80023E2E7012398
S31508001B80E0E700BF008000505E830008F7B5002735
S31508001B90144B0197D3F88041064604F00304022C3F
S31508001BA00D4614D0032C0DD0012C14D1394601A8AA
S31508001BB0FFF740FF10240EB1019B336005B12C607E
S31508001BC003B0F0BD05F070FE07240190F3E705F0B9
S31508001BD05DFE0190EFE741F2E631034805F0B9F8FA
S31508001BE03C46E8E7008000505E83000838B5164B8F
S31508001BF00546D3F800020C4600F00700042819D859
S31508001C00DFE800F020030B0F130006F089F90A231A
S31508001C1005B1286004B1236038BD05F08DFE09239F
S31508001C20F6E706F080F90C23F2E705F019FE0F2314
S31508001C30800AEDE7054841F2A44105F08AF8002339
S31508001C401846E5E70123E3E7008000505E830008B5
S31508001C5038B5164B0546D3F808020C4600F00700BF
S31508001C60042819D8DFE800F020030B0F130006F04C
S31508001C7057F90A2305B1286004B1236038BD05F079
S31508001C805BFE0923F6E706F04EF90C23F2E705F0AA
S31508001C90E7FD0F23800AEDE7054841F2DC4105F030
S31508001CA058F800231846E5E70123E3E700800050CB
S31508001CB05E83000838B5124B0546D3F850320C46F9
S31508001CC003F00303022B0FD0032B05D0012B0FD1F2
S31508001CD006F026F90A2302E006F025F90C2305B1D9
S31508001CE0286004B1236038BD05F026FE0923F6E70F
S31508001CF0044841F2C90105F02CF800231846EEE71E
S31508001D00008000505E83000837B500230193184B06
S31508001D100546D3F860320C4603F00703013B032B54
S31508001D201FD8DFE803F0020E1914002101A8FFF7F7
S31508001D3081FE10230DB1019A2A6004B1236003B015
S31508001D4030BD002101A8FFF7DFFD1123F2E705F0FA
S31508001D50ABFD07230190EDE705F098FD02230190FE
S31508001D60E8E741F2FD01034804F0F3FF0023E1E749
S31508001D70008000505E83000837B500230193184B96
S31508001D800546D3F894320C4603F00703013B032BB0
S31508001D901FD8DFE803F0020E1914002101A8FFF787
S31508001DA049FE10230DB1019A2A6004B1236003B0DD
S31508001DB030BD002101A8FFF7A7FD1123F2E705F0C2
S31508001DC073FD07230190EDE705F060FD02230190FE
S31508001DD0E8E741F23011034804F0BBFF0023E1E7CE
S31508001DE0008000505E83000873B500240F4B0194F1
S31508001DF0D3F87032064603F00303012B0D4607D0CD
S31508001E00022B11D041F25B11094804F0A2FF04E04D
S31508001E10214601A8FFF778FD11240EB1019B336016
S31508001E2005B12C6002B070BD1524F6E7008000509D
S31508001E305E83000808B5334B98424FD027D8324BFB
S31508001E40984245D017D8314B98423ED00AD838B177
S31508001E502F4B984239D041F2BB312E4804F079FF16
S31508001E60002034E02C4B98422FD02C4B9842F2D1CC
S31508001E702B4B586E2BE02B4B98422CD003F537137F
S31508001E8003F5D8639842E6D1254B986F1FE0264B99
S31508001E9098422FD00CD8254B984223D0244B9842F1
S31508001EA024D0244B9842D6D11D4BD3F884000EE09B
S31508001EB0214B984222D003F5740303F51053984238
S31508001EC0C9D1174BD3F8980001E0154B986D08BD9A
S31508001ED0134B186FFBE7124B586FF8E7104BD3F804
S31508001EE08000F4E70E4BD3F88800F0E70C4BD3F8E4
S31508001EF08C00ECE70A4BD3F89000E8E7084BD3F8D8
S31508001F009400E4E780BA8C01405DC60080841E0018
S31508001F1040420F005E83000800093D00C0CF6A00FA
S31508001F200080E00F0024F400007E560380D54302AB
S31508001F30006CDC020048E8010090D00310B5B0F54B
S31508001F40207F2ED009D8B0F5007F24D003D868B1F9
S31508001F50B0F5C07F0AD000241BE0B0F5607FFAD147
S31508001F60124BD3F88040C4F3011412E00F4B1C6FD8
S31508001F70230B13F00E0FC4F303340AD0072C08D032
S31508001F800F2C06D0032C04D04FF42271084804F015
S31508001F90E0FE601C10BD054BD3F89040C4F3046402
S31508001FA0F7E7024B1C6FC4F38024F2E70080005069
S31508001FB05E83000838B54FF48032104B04469A66A3
S31508001FC000200D46FFF7BAFF41F671320C4B60430D
S31508001FD0DC69DA635A6804F4803422F440125DB985
S31508001FE00849884294BF00200120000502435A6030
S31508001FF00CB10022DA6338BD0349F2E700900050BD
S3150800200000000350005A6202002D310138B542091A
S3150800201004460D4606D140F235310D4804F099FEC6
S31508002020002305E0531E022B0BD80A4B03EB820351
S3150800203004F01F0445B103F580530122A2401A603B
S3150800204038BD40F24331E8E703F50053F5E700BF32
S315080020505E8300086080005030B585B00021B0F579
S31508002060807F0446CDE9001100F009816BD800286D
S3150800207000F0D980A0F12004602C74D8602C72D8A6
S31508002080DFE814F0D100DE00D100DE00EE00EE003D
S31508002090EE00EE00EE00DE00F8007D000E019D0069
S315080020A07D00DE00DE00DE00710071007100710047
S315080020B07100710071007100DE00DE00DE00AF0005
S315080020C01801DE0071007100710071007100710065
S315080020D07100710071007100710071001D01EE0040
S315080020E0D100D100D10013017D007D00BB00220183
S315080020F09200F30071007100710071007100C60052
S31508002100D1007100EE00EE00EE00EE00EE00F300E6
S31508002110F300DE007100DE00DE0071007100710060
S315080021207100710071007100710071007100710019
S315080021307100710071007100710071007100710009
S3150800214071007100CB00B0F5E06F00F0B3803BD8AA
S31508002150B0F5607F7FD01DD8B0F5007F66D008D86F
S31508002160B0F5C07F5FD040F2A4415C4804F0F1FDB1
S3150800217056E0B0F5207F63D0B0F5407FF3D105F087
S315080021806FFB04464FF42070FFF7D8FEB4FBF0F45B
S3150800219064085EE0B0F5B06F6CD00AD8B0F5806F11
S315080021A05ED0B0F5A06FDED100216846FFF7B4FC1B
S315080021B036E0B0F5C06F73D0B0F5D06FD3D100213B
S315080021C06846FFF713FD2BE0B0F5186F77D00DD8EA
S315080021D0B0F5086F7DD0B0F5106F66D0B0F5F06F2A
S315080021E0C1D100216846FFF7B3FB19E0B0F5286FA7
S315080021F06AD007D8B0F5206FB5D100216846FFF739
S3150800220083FD0DE0B0F5406F2FD0B0F5486FAAD129
S3150800221000216846FFF7B0FD02E005F001FB0090DB
S31508002220009805B030BD05F01BFBF8E705F0F8FA95
S3150800223005462046FFF782FEB5FBF0F50095EFE769
S3150800224005F00EFB04464FF42070FFF777FEB4FB4B
S31508002250F0F40094E4E701A8FFF7C2FB019DE8E764
S3150800226000216846FFF7E6FBDAE700216846FFF734
S315080022701BFCD5E700216846FFF788FCD0E74FF03E
S31508002280E02302911B695B0705D505F0E9FA029080
S31508002290029B0093C4E703A902A8FFF735FBF7E7FB
S315080022A000216846FFF730FBBAE700216846FFF7CA
S315080022B0CFFCB5E700216846FFF76EFBB0E70021C3
S315080022C06846FFF7F7FCABE700216846FFF78CFD89
S315080022D0A6E76846FFF7F4FAA2E700BF5E830008A0
S315080022E008B58020FFF7B8FE034B98429EBF4FF40F
S315080022F08032024B1A6708BD005A620200A00050DD
S315080023001FB503460020B3F5807F019000F0FB80DF
S3150800231000F28B80662B7BD83C2B05D8243B092BF7
S315080023205CD940F28951DDE03D3B292BF9D801A261
S3150800233052F823F02925000857250008232300080A
S315080023402323000823230008232300082323000847
S315080023502323000823230008232300082323000837
S315080023602323000823230008232300082323000827
S3150800237061250008FD2400082323000823230008FC
S315080023802323000893240008232300082323000896
S31508002390AD2400086B250008552400084D250008C3
S315080023A023230008232300082323000823230008E7
S315080023B023230008C5240008232300082323000834
S315080023C0FD240008FD240008FD240008FD2400085B
S315080023D0FD2400084D2500084D250008092BA0D826
S315080023E001A252F823F000BFFD240008FD240008CE
S315080023F0FD240008FD240008FD2400082323000806
S31508002400ED24000823230008732400083325000858
S31508002410802B86D1574B1B6F03F00703013B032B19
S315080024205ED8DFE803F05B545759B3F5F06F7BD0FD
S3150800243024D8B3F5B06F59D011D8B3F5607F00F042
S315080024408180FFF46EAFB3F5806F57D0B3F5A06FF8
S315080024507FF467AF002001A9FFF75EFB4AE0B3F5FA
S31508002460D06F66D0B3F5E06F75D0B3F5C06F7FF463
S3150800247058AF002001A9FFF747FA3BE0B3F5186FFC
S315080024806ED00BD8B3F5086F58D0B3F5106F7FF43C
S3150800249048AF002001A9FFF7DBFB2BE0B3F5286F57
S315080024A063D008D8B3F5206F7FF43BAF002001A9AD
S315080024B0FFF72AFC1EE0B3F5406F47D0B3F5486F27
S315080024C07FF42FAF002001A9FFF756FC12E0052381
S315080024D001930FE00323FBE70823F9E70223F7E755
S315080024E040F2D641244804F034FC03E0002001A958
S315080024F0FFF74CFB019805B05DF804FB002001A925
S31508002500FFF798FAF6E74FF0E02302901B695B079E
S3150800251005D505F0A5F90D230393039BD8E703A971
S3150800252002A8FFF7F1F9F8E7002001A9FFF710FA6A
S31508002530E0E7002001A9FFF759FBDBE701A9FFF750
S31508002540BFF9D7E701A9FFF74BFAD3E7002001A99E
S31508002550FFF7AAFACEE7002001A9FFF71DFAC9E797
S31508002560002001A9FFF7A6FBC4E7002001A9FFF791
S315080025703BFCBFE7008000505E8300084FF48032C2
S31508002580074B0849586E03F580535A664B6A23F081
S3150800259001034B62C3035CBF034B5A66704700BF17
S315080025A0008000500000085000A0005038B50368AD
S315080025B004460F2B04D940F68A317C4804F0C9FB3F
S315080025C063680F2B04D940F68D31784804F0C1FBB7
S315080025D0A3680F2B04D94FF43961744804F0B9FB8A
S315080025E0237B0F2B04D940F69331704804F0B1FBD6
S315080025F0637B0F2B04D940F696316C4804F0A9FB8F
S31508002600A37B3F2B04D940F69931684804F0A1FB17
S31508002610E37B3F2B04D940F69C31644804F099FBD0
S315080026202369032B04D940F69F31604804F091FBD7
S315080026306369032B04D940F6A2315C4804F089FB90
S31508002640E369032B04D940F6A531584804F081FB09
S315080026508020FFF755FE032800F083804FF4801290
S31508002660534B4FF0A0615A6645F60E02514BC3F81C
S315080026708020514A91624FF4803102F5805291626E
S315080026809A6DD203FCD4996D11F08041FBD1D4E93F
S315080026900002120542EA0062E07B0243207B42EA1E
S315080026A00042607B42EA0032A07B42EA80121A614D
S315080026B09869D4E90452120642EA856200F000409D
S315080026C00243A07EE57E0243207E42EA0042607E07
S315080026D042EA00229A611A6AE06922F00F0242EA87
S315080026E08502364D00283DD11A6294F82420996A4D
S315080026F094F82000D200294042EA40120A4394F88E
S31508002700211042EA011242F480329A622C49294A7F
S31508002710936D31EA0303FBD14FF08071264881623D
S315080027201369A56823F4700343EA055313614FF050
S315080027300043836194F822300BB9224B996294F8CE
S3150800274023303BB94FF480321E4B9A62194A936D77
S315080027505B00FCD494F825301BB1164B1A4AC3F813
S31508002760802038BD024342F0080202281A6208D1C6
S3150800277019614FF40852996114484FF47F4104F0E7
S3150800278030FB0C4994F822308A6A94F820001B061C
S315080027902A4043EA4013134394F8242043EAC20329
S315080027A094F8232043EA02438B62D3E75E8300084A
S315080027B0009000500040005A0050005AC7FFFEFE25
S315080027C0030001000060005AF1A7FFFF3440005AD9
S315080027D0014B93F900007047D018002010B54368E4
S315080027E00446072B04D940F6E6512A4804F0B1FA04
S315080027F0A368032B04D940F6E851264804F0A9FA41
S315080028002378032B04D940F6EA51224804F0A1FAAA
S3150800281094F90130002B04DA40F6EC511D4804F017
S3150800282098FA4FF400011C4A637851664FF4D15167
S31508002830022002F5B832516218494F2B48604FF012
S31508002840010028BF4F2301F5805148601169C9036B
S31508002850FCD4217843EA01235361D4E901131B010F
S3150800286043EA0123617B0B43217B43EA41039360DF
S31508002870E37BA17B1B0143EA4113617C0B43217C6B
S3150800288043EA41035360A37C13B16FF4D1535362F7
S3150800289010BD00BF5E830008009000500010025073
S315080028A0014B1880704700BFCE180020014B1880D6
S315080028B0704700BFCC18002008B54FF48002184BAB
S315080028C05A660223174A5360936813F48033FBD180
S315080028D0012822D104F0DEFF134B984215D003F5E8
S315080028E0122303F5F863984213D0104B00EB8002CD
S315080028F0400AB3FBF0F3520A0A49CA620B63012382
S315080029004B620022074B5A6008BD45F67A13084AFF
S31508002910F2E745F61A03074AEEE75362F1E700BF06
S31508002920009000500040025000F049026466666656
S31508002930D8B80500BBCF050038B5B0F5207F77D0ED
S315080029400ED8B0F5007F61D003D890B3B0F5C07F3C
S315080029502FD04FF44671BDE838403D4804F0F9B928
S31508002960B0F5607FF5D13B4A4C1ED2F8FC5015F005
S3150800297080751EBFD2F8FC3023F08073C2F8FC3095
S31508002980032C04D940F2F721314804F0E2F9324A1F
S31508002990D2F8803023F0300343EA0413C2F88030BB
S315080029A035B12C4AD2F8FC3043F08073C2F8FC30BB
S315080029B038BD4C1E012C0AD9102903D8274BCB4009
S315080029C0DB0704D440F2CB21214804F0C2F904F015
S315080029D017FA04F023FA4FF48031214B1E4A19677F
S315080029E0136F23F4704343EA0433136704F038FF84
S315080029F00446FEF759FFC0F10201204604F008FA22
S31508002A0000F048F8BDE83840FFF76ABC4C1E1F2C9A
S31508002A1004D94FF443710E4804F09BF90E4AD2F8D4
S31508002A20903023F0F85343EA0463C2F89030BFE7C6
S31508002A304C1E012C04D940F21231054804F089F9DC
S31508002A40054A136F23F4806343EA84231367AFE7C9
S31508002A505E83000800ED00E00080005010010100D0
S31508002A600090005008B50121022000F099F94FF4B2
S31508002A702070FFF763FA054B187004F0C1F904F0EB
S31508002A80CDF94FF48032024B1A6708BDCA150020EB
S31508002A900090005008B54FF4C070FFF7DDFABDE8A6
S31508002AA008400449884294BF012102214FF420704E
S31508002AB0FFF742BF80F0FA0238B5044604F0D0FEAC
S31508002AC00546FEF7F1FEC0F10201284604F0A0F91A
S31508002AD00121002000F0B8F92CB1FFF7DBFFBDE8B3
S31508002AE03840FFF7FDBB034B4FF420701978FFF70A
S31508002AF023FFF4E7CA1500202DE9F0410546FFF744
S31508002B0099F9431E0333044604D940F6E2113B48BB
S31508002B1004F01FF94FF4C022394B5A6603F598336F
S31508002B205A68012A04D137494A605A689207FCD480
S31508002B308020FFF7E5FB052807D104F061F904F0CA
S31508002B406DF94FF480322E4B1A672F4B24F04074E0
S31508002B509D4239D02D4B9D4239D004F05BFE85420B
S31508002B60064603D90121284600F06EF9284FFB686E
S31508002B7013F0060FFBD1D7F80880BC60BB6863402A
S31508002B8013F4F81F26D12846FEF74CF88020FFF7E5
S31508002B90B7FB052814D104F063FEA842044604D9FD
S31508002BA040F63B21154804F0D4F8FEF77DFEC0F147
S31508002BB00201204604F02CF9FFF76CFFFFF790FBA3
S31508002BC0AE4213D2BDE8F08144F00074C5E744F084
S31508002BD08074C2E740F62A21084804F0BAF8802033
S31508002BE0C7F80880FFF78CFB052805D0BDE8F0413B
S31508002BF00121002000F028B93546CCE75E8300089D
S31508002C000090005000E0015040420F0080841E00F2
S31508002C100000015070B54E4B0546984273D041D816
S31508002C20A3F5B703A3F55863984265D033D8494B43
S31508002C30494E984251D017D8002877D041F2DE1174
S31508002C40464804F086F840F68671444804F081F850
S31508002C504FF40022404B5A663E4B9D4276D00024E4
S31508002C603F4A954236D05DE03D4B984227D03D4BD2
S31508002C709842E3D13C4BD3F8A040621E033224F0BD
S31508002C8040744CD940F68671344804F062F84FF423
S31508002C9000237366E4E7354B9842CFD1324BD3F81D
S31508002CA0BC402CE0324B984231D0324B984232D05D
S31508002CB0314B9842C2D12C4BD3F8C8401FE02A4B5F
S31508002CC0D3F8A040621E033224F04074DAD84FF4D9
S31508002CD00023736644F0807424E0234BD3F8A040A5
S31508002CE0621E033224F040742AD84FF40023736618
S31508002CF0234643F0007415E01B4BD3F8B840621E18
S31508002D00154E0332BBE7184BD3F8C040F7E7164B0E
S31508002D10D3F8CC40F3E7144BD3F8D040EFE74FF4A1
S31508002D20002373664FF0B442946070BD40F6867116
S31508002D300A4804F00EF84FF400232C467366F1E7B0
S31508002D4040F68671054804F004F8CEE70023D0E77C
S31508002D50C0EA210140420F00009000505E8300083F
S31508002D6080841E0000093D000080E00F0024F40066
S31508002D700048E801005A620280BA8C01024A536B85
S31508002D800342FCD1704700BF00800950034A01790D
S31508002D90D36E23F030030B43D366704700400050D0
S31508002DA0F8B50446244BD3F88420D006FBD4D3F8D0
S31508002DB08430C3F381139C423CD004F031FD012CCE
S31508002DC005460BD11D4B984204D940F28F711C4819
S31508002DD003F0BFFF0121284604F01AF805F0ABF806
S31508002DE04FF00072174B07465A66204604F01BF848
S31508002DF04FF48063104E621E93403367736E9A01D8
S31508002E0003D4D6F884309B060AD5384605F08EF8E2
S31508002E10022C0FD12846BDE8F840002103F0F8BF80
S31508002E20D6F884309906E9D540F2A771044803F02C
S31508002E3090FFE3E7F8BD00BF00400050005A620269
S31508002E40B18300080060005010B50C4608B904F0BC
S31508002E50E7FC074B21461B783BB1064B984204D842
S31508002E600120BDE81040FFF79BBF0220F9E700BF2D
S31508002E70CB150020005A620238B54FF00042244BA9
S31508002E80244C5A664AF6CD33656C014605F00105B1
S31508002E90236428BB0120FFF771FF6368DB0715D59C
S31508002EA01D4B586008461D4B226BD2070CD498421E
S31508002EB008D1072415B1174B194A1A6403F0B4FF51
S31508002EC0204638BD0130EFE79842F2D00024F1E7FA
S31508002ED00132236B13F0080305D08A42F8D1E8E7DC
S31508002EE000220E49F5E78A42E3D020210A4A916278
S31508002EF00121A2F5805251600649084A886A80066F
S31508002F0003D49342D5D00133F8E79342DDE700BFF7
S31508002F10009000500080095000A0095040420F0060
S31508002F203254FFFF38B54FF00042164B01465A6639
S31508002F304AF6CD33144C154A656C236443780B2046
S31508002F405B0043F00103D363FFF718FF63688A78D1
S31508002F5023F4F87343EA02136360CA784B7943EAA9
S31508002F600223A3600A798B7943EA0223236108784E
S31508002F70FFF782FFEB0744BF054B236403F054FFBA
S31508002F80012038BD009000500080095000400050D4
S31508002F903254FFFF70B50F28044605D940F668611C
S31508002FA0124803F0D6FE0F244FF00042104B114989
S31508002FB05D6E03F580535A664AF6CD334E6C802013
S31508002FC00B64FFF7DBFE0B6A23F00F0323430B6248
S31508002FD0F30744BF084B0B64002DA2BF4FF0004215
S31508002FE0064B5A6603F020FF70BD00BFB183000888
S31508002FF000800050008009503254FFFF00A00050A6
S3150800300008B50E4B984211D00D4B984210D003F5D7
S31508003010804398420ED003F5804398420CD0094865
S3150800302040F2793103F095FE002008BD5620FCE7F2
S315080030305720FAE76520F8E76620F6E70000015B07
S3150800304000C008500484000810B503F0F2FE0423FB
S3150800305000F5805100F500520B6113610B61136195
S315080030600B6113610B611361202341F202010361B5
S315080030700023C360836041614FF4A02183618365A7
S3150800308041620549C36103628362C36243630365A0
S31508003090D164036310BD00BFFF3F0D0338B51B4B5A
S315080030A0044698420D460FD0194B98420CD003F5AA
S315080030B08043984208D003F58043984204D040F2F2
S315080030C06911144803F045FE25B92046BDE8384085
S315080030D003F0AFBE012204F580535A6040F6FF7133
S315080030E0204605F00F0203F0A0FEA263782103F044
S315080030F09CFE05F001036A0748BF43F00203A26C71
S3150800310002F003029A42FAD138BD00BF0000015B03
S3150800311000C0085004840008F8B505460C46164653
S3150800312022B940F227216A4803F013FE694B9D42F3
S315080031300FD0694B9D420CD003F580439D4208D0C1
S3150800314003F580439D4204D040F22A21604803F0EB
S3150800315000FE2CB92846FFF753FFFEF77DFF04460D
S31508003160AB68D80741D5B44204D24FF40D7158481C
S3150800317003F0EFFDB4FBF6F46F68013CFF2C07F093
S31508003180010704D94FF40F71514803F0E2FD2406F4
S315080031902FB92B6923F07F4323432B61F8BD2821E0
S315080031A0284603F042FEAB6C990718D1AB6CDA07D8
S315080031B017D4AE6C16F0020615D140F249214448E0
S315080031C003F0C7FD284603F034FE2B69314623F089
S315080031D07F4323432B61BDE8F840FFF75FBF052611
S315080031E0F0E70926EEE70626ECE76B68012B04D024
S315080031F04FF41771364803F0ACFDAB6DDB07AB68CF
S3150800320048BF760003F0E003402B42D009D893B1BB
S31508003210202B1AD040F29E21BDE8F8402C4803F036
S3150800322098BD602B42D0802BF4D106EB4603A3420F
S3150800323047D801230DE0B6EB141F04D94FF42171CA
S31508003240234803F086FD102303E0B6EBD40F1AD803
S31508003250082373436401B4FBF3F4204F203CB7EB17
S31508003260C40F4FEAC40604D240F2A921184803F055
S3150800327070FD28463E40012103F0D7FD2E63BDE8C8
S31508003280F84003F0D2BD40F28921114803F061FDF0
S31508003290DEE70623B4FBF3F3B34201D30623D8E7EC
S315080032A040F28E210A4803F054FDF7E7B6EB940F77
S315080032B001D80423CDE740F29321054803F049FDE0
S315080032C0F7E74FF42671024803F043FDB1E700BF64
S315080032D0048400080000015B00C00850F8FF7F0066
S315080032E0F8B5974B044698420E460ED0954B984231
S315080032F00BD003F58043984207D003F580439842E4
S3150800330003D0E221904803F024FD1EB9E4218E483B
S3150800331003F01FFD727BB3687AB18C4A934203D9D6
S31508003320E621894803F015FD3369D3B1DB7BC3B1C8
S31508003330E921854803F00DFD13E0854A934203D938
S31508003340EC21814803F005FD336953B11A7F42B178
S31508003350B168804A5B7F914240F28380042B00F279
S3150800336083806368356923B140F6FF71204603F010
S315080033705CFD2046FFF768FE2269737BB17B22F06D
S3150800338087020B43134343F080032361002D6DD05E
S315080033902369297F23F0F80343EAC1132978EA7BD6
S315080033A00B43297943EA4113697A43EA011343EA4D
S315080033B082132361E068D5E9053720F0F0403B43E6
S315080033C020F470200343287B697B43EA802343EA81
S315080033D0C133E360A368F07B23F00303034343F0A0
S315080033E00103A3606B88A06803F4C0430343A3608A
S315080033F0A368687943EA8023A360AB79EF79606AAA
S315080034001B013F0203F0700307F4E06720F47720FE
S3150800341020F4EE603B430343287A000300F4E040BF
S315080034200343687F000400F4702003436362636902
S31508003430307B23F00F03034363616B89A361002983
S3150800344039D10AB33E4B9C423FD03E4B9C424DD0AD
S3150800345003F580439C425AD003F580439C4268D0CA
S3150800346012E0042B3FF67DAFF32162E7A368F27BF7
S3150800347023F00303134343F00103A3606369327B1C
S3150800348023F00F0313436361D6E901122046FFF7C1
S3150800349043FE05212046FFF701FE2821204603F0BA
S315080034A0C4FC3378A36303F0C0FCA36CDB4313F4BA
S315080034B0405FFAD1F8BD224B9C420CD1AB7B264922
S315080034C003F00F034B67002ADED02B7C224A03F059
S315080034D00F031367D8E71B4B9C420DD1AB7B1E49E4
S315080034E003F00F03C1F88030002ACDD02B7C1A4A8E
S315080034F003F00F03D367C7E7184B9C420ED1AB7B8B
S31508003500154903F00F03C1F88C30002ABCD02B7C78
S31508003510114A03F00F03C2F88830B5E7104B9C42F6
S31508003520B2D1AB7B0C4903F00F03C1F89830002ADF
S31508003530AAD02B7C084A03F00F03C2F89430A3E7FD
S315080035400000015B00C0085004840008002D31010A
S31508003550809698003F4B4C0000900350000009509D
S315080035600040095070B51F2904460D46164603D972
S315080035709121064803F0EDFB2EB104F58054012392
S31508003580AB40236070BD04F50054F8E75A84000880
S3150800359038B5032804460D4605D8094B33F81030CC
S315080035A0CB40DB0704D440F28541064803F0D1FB43
S315080035B0302301225C43044BAA401A5138BD00BF90
S315080035C0028500086B81000840D0035038B50328EF
S315080035D004460D4605D8094B33F81030CB40DB07B7
S315080035E004D440F25641064803F0B3FB30230122C7
S315080035F05C43044BAA401A5138BD00BF0285000837
S315080036006B81000840E003502DE9F84F0328074670
S315080036100E46144698469DF828A09DF82C9005D885
S31508003620274B33F81030CB40DB0703D4BF2125489E
S3150800363003F08FFB86EA0403032B03D9C121214833
S3150800364003F087FB072C4FF0030506F0030625D881
S315080036504FEA840B05FA0BF529461B4807FA0BF2C5
S3150800366003F00BFC2946194806FA0BF203F005FC91
S31508003670424621461648FFF775FF52462146154829
S31508003680FFF770FF0123144AA340C2F820342146ED
S315080036904A46BDE8F84F1148FFF764BFA4F1080B86
S315080036A04FEA8B0B05FA0BF529460D4807FA0BF27C
S315080036B003F0E3FB29460B4806FA0BF2D6E700BFF0
S315080036C002850008AD84000800C4035008C40350EE
S315080036D010C4035014C4035000E0035024C403501C
S315080036E004C403500CC403502DE9F04103280446D2
S315080036F00D461746984605D81D4B33F81030CB4073
S31508003700DB0704D44FF4B0711A4803F022FB37B133
S3150800371029462046B8F1000F20D0FFF739FF0F21C0
S31508003720072D04EB440688BFA5F108034FEA0616E1
S31508003730114895BFAB009B0004360C3607FA03F216
S315080037409940304403F099FB7FB929462046B8F1E1
S31508003750000F06D0BDE8F041FFF71ABFFFF736FFA6
S31508003760DDE7BDE8F041FFF731BFBDE8F08100BFF6
S3150800377002850008AD84000830C0035010B5232028
S3150800378001F00AF80024FF22064B21465C6520203A
S315080037909A625C60FEF73AFC2146BDE8104021209B
S315080037A0FEF734BC0000045038B5072804460D4619
S315080037B003DD7721084803F0CCFA1F2C03D99121A1
S315080037C0064803F0C6FA064A064B002D08BF1346FC
S315080037D00122A2401A6038BD0A8500085A840008EA
S315080037E0401004504020045010B5044618B99121E1
S315080037F01F4803F0AEFA23781B0613F0604F03D078
S3150800380092211B4803F0A5FAE3780F2B03D99521DB
S31508003810174803F09EFA01212020FEF7F7FB012145
S315080038202120FEF7F3FB0122124B23205A6022784F
S3150800383012069A606178A27842EA01429A61FF22EA
S315080038409A6200229A631A644FF000425A654FF052
S31508003850FF3203F500531A6500F0EEFF2320E178E6
S3150800386000F0F8FFBDE81040232000F0B3BF00BF0A
S315080038700A85000800000450F8B50126C3B20728D7
S3150800388005460C46174606FA03F603DDDE213448DC
S3150800389003F05FFA1CB9DF21314803F05AFA2368AE
S315080038A023F47C1323F00F031BB1E2212C4803F009
S315080038B050FAA37A1B0413F47C0F03D0E721284897
S315080038C003F047FAE37A1B0513F07E6F03D0E9216C
S315080038D0234803F03EFA237B5B0513F0FE5F03D013
S315080038E0EB211F4803F035FA1E4B27F003071E6528
S315080038F0AB00226803F1A04303F588235A603022FF
S3150800390002FB05F0637B00F1A04000F5802003660A
S31508003910E37AA27A1B0543EA0243227B43EA42532F
S31508003920C365076704F010FB0F4B227A5E6502B188
S315080039301E64627A02B19E632279A37943EA02433E
S31508003940084A93616179E37943EA014306498B6141
S31508003950064B56639E64BDE8F84004F0F0BA00BF13
S315080039600A85000800200450001004500000045086
S3150800397010B50124C3B2072804FA03F404DD40F2A3
S315080039807B11074803F0E5F904F0DEFA054B5A6D9A
S3150800399022EA04025A659C62BDE8104004F0CFBAD8
S315080039A00A8500080000045010B50124C3B2072890
S315080039B004FA03F404DD40F299110A4803F0C9F940
S315080039C004F0C2FA084BDA6A224208D15B6B9C43C0
S315080039D00CBF0124002404F0B2FA204610BD0024CE
S315080039E0F9E700BF0A8500080000045070B50125F4
S315080039F0C3B20728044605FA03F504DD4FF4E0715F
S31508003A00094803F0A6F904F09FFA3022074B5E6BCB
S31508003A1002FB04335C6E04F092FA35420ABFC4F323
S31508003A200A100020013070BD0A8500080000045005
S31508003A30154B984225D003F58043984221D003F5CB
S31508003A40804398421DD003F58043984219D003F568
S31508003A508043984215D003F58043984211D003F568
S31508003A60804398420DD003F58043984209D003F568
S31508003A708043984205D003F58043C31A58425841FB
S31508003A8070470120704700BF0080045030B4274CAF
S31508003A90A04228D004F58044A0422FD004F58044E3
S31508003AA0A0422DD004F58044A0422BD004F58044D2
S31508003AB0A04229D004F58044A04227D004F58044CA
S31508003AC0A04225D004F58044A04223D004F58044C2
S31508003AD0A04221D004F58044A0421FD030BC8F21DB
S31508003AE0134803F036B900200625124CC3B105FB6E
S31508003AF0001004EB8004226630BC70470120F3E70F
S31508003B000220F1E70320EFE70420EDE70520EBE7C5
S31508003B100620E9E70720E7E70820E5E70920E3E7C5
S31508003B2005FB0011120204EB8104E4E7008004504F
S31508003B305E8500080081035038B505460C46FFF738
S31508003B4077FF18B9B421214803F003F9284603F092
S31508003B50A3F9012205F500531A632B6B9B07FCD4C6
S31508003B60237962881B0243EA8243A27A1343627866
S31508003B7043EA8213E27A43EAC213227B43EA4213F8
S31508003B80627B43EA0213A27B43EAC203E27B43EA6F
S31508003B90C223A27943EA0243E27943EA4243012275
S31508003BA06B6005F580531A6322780AB90223EB6025
S31508003BB000236B626379217A1B0143EA8103617AE8
S31508003BC00B43AB600AB10123EB6038BD5E85000884
S31508003BD0F8B506460F461446FFF72AFF20B94FF4F4
S31508003BE08671254803F0B5F8022F04D940F20D1165
S31508003BF0214803F0AEF8304603F04EF9012206F5E7
S31508003C0000531A63336B9B07FCD4637AE2791B0172
S31508003C1043EA0253A27906EB47151343E27A43EACD
S31508003C20C2432B66237A1BB3237B2A6E394642EAA4
S31508003C3043422A66013B18BF01233046A278FFF7A4
S31508003C4025FF012306F580563363637822781B0621
S31508003C5043EA8263E27843EA0233227943EA82231B
S31508003C60627943EA0223A27A43EA82036B66F8BDC5
S31508003C702B6E2B66E5E700BF5E8500080D4B984264
S31508003C8008D1A3F5D023C3F85812802300F5805035
S31508003C90C3657047084B984204D1A3F5D823C3F8E7
S31508003CA07412F2E7054B984204BFA3F5E023C3F864
S31508003CB09012EAE700000A5000400A5000800A50B5
S31508003CC0F8B507460C461E4615464AB940F2551140
S31508003CD0314803F03EF824B1402E09D1062328E0E6
S31508003CE021B94FF42070FEF7B7F90446402E42D0AA
S31508003CF0402E09D87EB1202E17D04FF4CE71BDE8DC
S31508003D00F840254803F025B8602EF6D1B5EB940F98
S31508003D103CD804230DE0B5EB141F04D940F28711F3
S31508003D201D4803F016F8102303E0B5EBD40F1CD892
S31508003D3008235D436B0803EB4413B3FBF5F3174DF8
S31508003D40203BB5EBC30F4FEAC30404D240F2B311CC
S31508003D50114802F0FEFF602207F500539A602C40D6
S31508003D6007F580539E60FC61F8BD4FF4C6710A489A
S31508003D7002F0EFFFDCE70623B4FBF3F3AB42ADD268
S31508003D8040F29111044802F0E4FFA7E74FF4CB7123
S31508003D90014802F0DEFFBCE7B3850008F8FF7F00A4
S31508003DA038B5104B044698420D460CD003F58043AF
S31508003DB0984208D003F58043984204D04FF43971ED
S31508003DC0094802F0C6FF012204F580535A60EB4306
S31508003DD0934003F00A036361656115B904F500545D
S31508003DE0626038BD00000A50B385000810B51B4B49
S31508003DF0044698420CD003F58043984208D003F550
S31508003E008043984204D040F25E41154802F0A1FF73
S31508003E10012204F580535A6040F6AA6341F205026E
S31508003E20636100230F49A360E365E26004F500526D
S31508003E302361E361E36491640849A3658C4203D175
S31508003E4023650023636506E007498C42F8D001F52F
S31508003E5080418C42F4D00123536010BD00000A5003
S31508003E60B3850008FFFF010000400A5070B5424BB9
S31508003E70044698420D460CD003F58043984208D074
S31508003E8003F58043984204D040F215313B4802F0CE
S31508003E9060FF2046FFF7AAFF012304F580567360EA
S31508003EA0AB7C1BB1A36843F08043A360EB7C1BB1DA
S31508003EB02046297DFFF7E2FE2A8A6B7B20461343BC
S31508003EC0EA891343E3602B7BD5E90112FFF7F8FE75
S31508003ED06B7D1BB1A36843F48033A360AB7D1BB134
S31508003EE0A36843F40043A360EB7D2A7E1B071205F3
S31508003EF002F4E00203F0E0431343A3656A7E204917
S31508003F00931E012B1C4B1BD89C4215D003F58043EE
S31508003F109C4213D003F580439C420CBF02234FF00A
S31508003F20FF330220C1335B01C850032A1FD1042383
S31508003F30F3652B78636170BD0023F2E70123F0E790
S31508003F409C4210D00F4B9C420FD003F580439C42F5
S31508003F500CBF02234FF0FF33022003F241135B012B
S31508003F60C850012AE2E70023F6E70123F4E7042212
S31508003F7004F50053DA65DCE700000A50B38500084B
S31508003F8000C0035000400A5010B5044620B940F25C
S31508003F903A21124802F0DDFE23782BB1012B17D007
S31508003FA0022B18D0032B05D140F2FF736278D34059
S31508003FB0DB0704D440F23D21084802F0CAFE01227C
S31508003FC0637821789A4030235943054B5A5010BDDF
S31508003FD040F2FF13EAE743F6FF73E7E708860008AF
S31508003FE040E00350034BD3F82424D3F820041040B0
S31508003FF0704700BF00C0035010B5044620B94FF4FF
S3150800400049711C4802F0A5FE23782BB9607805385B
S3150800401018BF4FF0FF3010BD012B08D16378012B74
S315080040201CD0032B14BF4FF0FF300420F3E7022BFC
S3150800403009D16378A3B1052B14D0072B14BF4FF011
S31508004040FF300820E7E7032B0ED16378022B0ED04A
S31508004050052B14BF4FF0FF300A20DCE70320DAE710
S315080040600620D8E70720D6E74FF0FF30D3E7092028
S31508004070D1E700BF08860008064BDA6E02F0300268
S31508004080202A06D0DA6E22F0300208B142F0100279
S31508004090DA667047004000502DE9F041037804467F
S315080040A00D4616462BB1012B21D0022B22D0032B0D
S315080040B005D140F2FF736278D340DB0703D45D2154
S315080040C0284802F046FE284BD3F810331BB160216E
S315080040D0244802F03EFE0F2D0FD8DFE805F03A35EA
S315080040E0353535353535353535353535353540F2AA
S315080040F0FF13E0E743F6FF73DDE7B421194802F042
S3150800410028FE4FF00008204606B303F07FFC0F2177
S3150800411067782378072F03EB430388BF083F4FEAE6
S315080041200313124895BFBF00BF0004330C3308FAC7
S3150800413007F2B940184402F0BBFE85B9204656B1CD
S31508004140BDE8F04103F062BCA846DCE7FFF71CFFB8
S31508004150DDE7A846DBE7BDE8F041FFF715BFBDE898
S31508004160F08100BF6586000800C0035030C00350C8
S315080041702DE9F047037806460C4615462BB1012B68
S315080041804FD0022B50D0032B05D140F2FF73727823
S31508004190D340DA0704D44FF49C714C4802F0D9FD99
S315080041A0022D06D9042D04D040F23911474802F0F1
S315080041B0D0FD474FD7F8103323B14FF49D714348CC
S315080041C002F0C7FD002C32DB73786340032B04D959
S315080041D04FF49F713D4802F0BCFD0127072C05F0FE
S315080041E005094FF00308327805F0060507FA04F7C3
S315080041F029DC4FEA840A08FA0AF84146354802FAE1
S315080042000AF202F055FE7278414602F0030232487D
S3150800421002FA0AF202F04CFEB9F1000F3AD12F4B1E
S3150800422039E040F2FF13B2E743F6FF73AFE7631CCA
S3150800423006D1D7F82414707802F049FE041ECCDAA9
S315080042402046BDE8F087A4F1080A4FEA8A0A08FA68
S315080042500AF84146224802FA0AF202F029FE727862
S31508004260414602F003021F4802FA0AF202F020FE53
S31508004270B9F1000F14D01F2C0CDD74211A4802F076
S3150800428068FD1A4BC3F8107495B97421164802F0E4
S3150800429060FD03E0154BC3F810746DB90F4B0CE0C5
S315080042A01F2CBCDD7421104802F053FD0B4BE9E7C7
S315080042B074210D4802F04DFD0C4BC3F8147401230C
S315080042C0064AA340C2F82034BAE700BF658600084C
S315080042D000C0035000C4035008C4035000E0035054
S315080042E004C403500CC40350C286000800D003500F
S315080042F070B5154E054630420C4604D040F2891179
S31508004300124802F026FD344204D04FF4C5710F4816
S3150800431002F01FFD0E4B2C40D3F83024012022EA70
S315080043200502C3F83024D3F830241443C3F83044C4
S31508004330D3F82C242A43C3F82C24FFF79DFE054BFB
S31508004340C3F8205470BD00BFFFFF00F06586000863
S3150800435000C0035000E00350F8B5037805460F4641
S3150800436016462BB1012B21D0022B22D0032B05D1C7
S3150800437040F2FF736A78D340D80704D440F29B1101
S31508004380184802F0E6FC184BD3F8103323B14FF463
S31508004390CE71144802F0DDFC2846FFF72DFE791C85
S315080043A0044609D1421C0BD12046F8BD40F2FF1342
S315080043B0E0E743F6FF73DDE7431CF5D0B8420ED1BC
S315080043C02846032186F00102FFF766FE012004F164
S315080043D0100306FA03F19840FFF78AFFE4E74FF067
S315080043E0FF34E1E76586000800C00350054B9A686C
S315080043F09107FCD45A689207F9D4DA69002AF6D1EB
S31508004400704700BF00C00A5010B5074C6368DB0749
S3150800441004D44FF49371054802F09BFC03F024FB87
S315080044200223236110BD00BF00C00A501E87000882
S3150800443008B5FFF7DBFF0122024B03F580514A60FE
S315080044401A6108BD00C00A5010B5044B5C68012CFF
S3150800445003D1FFF7D9FF024B5C6010BD00C00A50BC
S3150800446000E00A5038B5074DFFF7C0FF6B680446F1
S31508004470012B03D1FFF7E8FFFFF7B8FF2378EB60BE
S3150800448038BD00BF00C00A5038B505460C4603F0D3
S31508004490F5FABDB96268237812B1127843EAC20305
S315080044A0627843EA4203A26812B1127843EA821399
S315080044B0E27843EA8203226912B1127843EA422378
S315080044C0014A936438BD00BF00C00A5030B58BB0AE
S315080044D0914803F044FD20B140F236318F4802F08E
S315080044E038FC6C468E4D0FCD0FC42B688D4A236061
S315080044F0FF238DF80130D2F84C3113F4802340F0B5
S31508004500FE80D2F850218DF801309DF801306C46B6
S31508004510FF2B08BF3F236846834D8DF80130FEF711
S315080045205DF93220FEF7BCF90FCD0FC40FCD0FC4CD
S3150800453095E8030084E803007A4BD3F84C2112036C
S3150800454040F1C180A3F5FE431C88B4F5807F28BFDF
S315080045508C248DF81940FEF73BF9044484F30804CB
S3150800456072488DF81840FCF763FB6846FEF71EF89C
S315080045703220FEF79BF96E48FEF7BEFA6D48FEF745
S3150800458049FB6D4803F0EBFC20B140F2CB116348C0
S3150800459002F0DFFB694C0020FEF78EF9FEF762FA9F
S315080045A0236F002023F0070343F003032367FEF776
S315080045B083FA236F624923F474432367614BD3F864
S315080045C0FC2012F0807240F08280D4F8803023F00C
S315080045D0030343F00103C4F88030C1F88020574C28
S315080045E0D4F8203123F0070343F00203C4F820313E
S315080045F0D4F8283123F0070343F00203C4F828311E
S31508004600D4F8803123F0030343F00103C4F8803162
S31508004610D4F8403123F0030343F00203C4F84031D1
S31508004620D4F8603123F0030343F00203C4F8603181
S31508004630D4F8403223F0030343F00203C4F84032AF
S31508004640D4F8003223F0070343F00203C4F800321B
S31508004650D4F8083223F0070343F00203C4F80832FB
S31508004660D4F8503223F0030343F00203C4F850325F
S31508004670D4F8703223F0030343F00103C4F8703210
S31508004680D4F8203223F0070343F00103C4F820329C
S31508004690FDF774FF4FF0E0220020136943F004038E
S315080046A01361D4F8603223F0070343F00103C4F81A
S315080046B06032D4F8943223F0070343F00103C4F8B8
S315080046C094320BB030BDD3F85041E4B241E7D3F889
S315080046D0FC2022F08072C3F8FC20D4F8802022F057
S315080046E0030242F00102C4F880200022C1F88020AB
S315080046F0D3F8FC2042F08072C3F8FC206FE74FF035
S315080047007E6393F89C2093F99C30002BFFF6FDAE50
S315080047108DF80120F9E600BF2C89000850880008AA
S31508004720CC8800080080E00FE0880008C017530214
S3150800473000B4C404C0EA2101308900080080005092
S315080047400090005000ED00E007B5094B18689A88FC
S315080047509B7900906846ADF804208DF80630FEF780
S31508004760E1FB0C20FEF716FC002003B05DF804FB05
S315080047700889000813B50024064A6846536F43F0B3
S315080047800103536700948DF80440FEF7FFFA2046AC
S3150800479002B010BD0040005010B55D2804460DD883
S315080047A001220A49630904F01F04A240203341F894
S315080047B02320BFF34F8FBFF36F8F10BD40F2251133
S315080047C0034802F0C6FA002CF7DBE9E700E100E04F
S315080047D09C89000810B55D28044608D8012361099C
S315080047E0074A04F01F04A34042F8213010BD4FF4D5
S315080047F09871044802F0ADFA002CF7DBEEE700BF2B
S3150800480000E100E09C89000810B55C28044604D93C
S3150800481040F23B11064802F09CFA064B621153F827
S31508004820220004F01F04E040C04300F0010010BD60
S315080048309C89000800E100E0002808DB0122430902
S31508004840034900F01F008240603341F82320704777
S3150800485000E100E038B500F110036D2B04460D4663
S3150800486004D94FF4EF710E4802F073FA0F2D04D9EC
S3150800487040F2DF110A4802F06CFA60B20028ACBFB9
S3150800488000F16040074B4FEA0515EDB2ABBF00F5E6
S31508004890614000F00F0080F800531D5438BD00BF7A
S315080048A09C89000814ED00E010B503F04DFB0A4B97
S315080048B01A786AB901226FF004041A7003F03FFBF4
S315080048C0204605210134FFF7C5FF5D2CF8D110BD40
S315080048D0BDE8104003F033BBCC15002010B50446E4
S315080048E003F029FB024B1C6003F020FB002010BDDF
S315080048F0F413002010B503F01EFB034B1C6803F0ED
S3150800490015FB204610BD00BFF413002008B5054B63
S315080049101A6822B9012208201A6002F02CFA00202F
S3150800492008BD00BFF81300203021037D02464B4323
S3150800493003F1A04303F58023D86E07491B6F88420D
S3150800494008D113F0020006D0106A136D1B1A5842DC
S315080049505841704700207047CD15002037B53023E1
S31508004960007D0DF10701434303F1A04303F58023BE
S31508004970DD6E1C6F03F006F820B140F2F9310848E5
S3150800498002F0E7F99DF8070040B9064B9D4203D1AE
S3150800499084F00204C4F3400003B030BD0120FBE7F5
S315080049A0198A0008CD15002037B504460DF1070110
S315080049B0007D02F0E7FF20B140F24441114802F0C1
S315080049C0C8F99DF80730A3B1256DD4E9122313441D
S315080049D09D4201D8AA4204D940F24F41094802F043
S315080049E0B8F9D4E9120303449D4218BF284603B018
S315080049F030BD3022237D534303F1A04303F58023C2
S31508004A00DD6EE2E7198A00082DE9F743D0E9043498
S31508004A1004F17C07D0F80C90013B064610220021D1
S31508004A2038469DB2D4F8748002F036FC104BC5F3B4
S31508004A300A0543EA0513C4E91F39012394F87800E7
S31508004A4084F88C30C4F884803A460A4B009604F100
S31508004A506401FCF76BFE38B140F28D31064803B0AD
S31508004A60BDE8F04302F075B903B0BDE8F08300BFB6
S31508004A7000001030F14B0008198A00082DE9F043B0
S31508004A8085B000F13806044610220021304602F0AF
S31508004A9003FC4FF44473534D207DC4E90F556387D7
S31508004AA0FCF76AFE20B140F2CA514F4802F051F9AC
S31508004AB010220021304602F0EFFB4FF4447363875F
S31508004AC03023207DC4E90F55434303F1A04303F582
S31508004AD08023DB6EAB420BD1FCF76EFE002876D046
S31508004AE040F2D351404805B0BDE8F04302F031B971
S31508004AF00DF10B0102F046FF20B140F2D9513A48B8
S31508004B0002F027F99DF80B30002B63D12046FFF7FA
S31508004B104BFF03A90746207D02F056FF20B140F25D
S31508004B20E151314802F015F9039B002B04DC40F2F1
S31508004B30E3512D4802F00DF9039B04F11808013BD7
S31508004B401022002140469DB2D4F8109002F0A4FB32
S31508004B503022237DC5F30A0553432D0145F04075E0
S31508004B60C4E9065903F1A043276203F580231A6FA7
S31508004B7094F82410520862F3410184F82410196F3E
S31508004B8094F8242028F0030861F3000284F824200E
S31508004B901B6F626A9B0863F39F0248F00203626216
S31508004BA06364009432462146104B207DFCF7BEFD17
S31508004BB020B140F204610C4802F0CBF8207DFCF7E6
S31508004BC0FBFD20B14FF4C161074802F0C2F805B0F9
S31508004BD0BDE8F08394F844306FF3410384F8443019
S31508004BE0DFE700BFCD150020198A0008B76F000857
S31508004BF038B55569144695F88C3023B940F26A31B0
S31508004C000A4802F0A6F8002305F1900085F88C30D2
S31508004C10FCF730F808B1FFF7F7FE63681BB100210F
S31508004C202046A2689847002038BD00BF198A0008A8
S31508004C3038B50446007DFCF79FFD20B140F22D41B2
S31508004C40084802F086F82046FFF76EFE0546207DE6
S31508004C50FCF7B2FD20B140F23241024802F079F881
S31508004C60284638BD198A00082DE9F04F8DB09946B7
S31508004C700023044608910692C9F80030D9F8006066
S31508004C80069B9D1B00F0C580089B9E1900F0C180FD
S31508004C902046FFF7CDFF8046002840F0BA80204620
S31508004CA0FFF782FE226D904240F2BC80801A854250
S31508004CB028BF054694F896A0BAF1000F00F0F280D6
S31508004CC003F042F9236D079020460993FFF746FE45
S31508004CD02F46099B834658198342D4F8981040F00A
S31508004CE0BC80D4E9122313448B4208BFC4F8982029
S31508004CF0D4F898108A4201D88B4204D840F242511F
S31508004D008A4802F026F8079803F019F9DA46207D52
S31508004D10FCF732FD20B140F28241844802F019F8CE
S31508004D20207D0DF12F0102F02DFE20B140F28641C3
S31508004D307E4802F00EF82046FFF736FE236D8346BE
S31508004D4098429DF82F3040F2BC8023B140F28E4144
S31508004D50764801F0FEFFA26C236DAEB2934240F096
S31508004D60A880099304F128082369102200214046E7
S31508004D70079302F091FA3021079B013EE362099BF3
S31508004D80C6F30A062363237D36014B4328F003083E
S31508004D9003F1A04346F0407648F0020203F580236B
S31508004DA0A6621A67236DD4E912122B440A44934269
S31508004DB008BF0B469342236504D340F2DE415B48A5
S31508004DC001F0C7FF236D9B4505D10123204684F8D2
S31508004DD05430FFF753FE207DFCF7EEFC20B140F27D
S31508004DE0F741524801F0B5FF94F896303BB1BAF155
S31508004DF0000F04D0236E112120465B689847D9F826
S31508004E00003037B1069A3B449342C9F80030FFF4A4
S31508004E1035AFD9F80030002B14BF00201B200DB089
S31508004E20BDE8F08FD4E912310B449A4204D340F21C
S31508004E306A413E4801F08DFFD4E912321344226DCF
S31508004E409B1A9D4228BF1D46002D7FF433AF40F2C2
S31508004E501651364801F07DFF2CE701335A1E914260
S31508004E6010D1C4F8983013F8012C112A01D0132A4E
S31508004E7014D1013FA2F111014A424A41D04684F8B1
S31508004E809C2029E713F8012C02F0FD01112906D10F
S31508004E90013FB8F1000F3FF41FAFEBE7D04606F825
S31508004EA0012B19E72A463046216D02F000FA2F46F3
S31508004EB02DE7238DC3F30A12164466F30E132385D2
S31508004EC070E7207D93B93023584300F1A04000F5E0
S31508004ED08020426E436EC2F30A1223F4FF432A442B
S31508004EE023F0700343EA021343665BE7104B04940E
S31508004EF003930023CDE90153012300935A462369FE
S31508004F00216801F04FFF20B140F2CB41074801F07C
S31508004F1020FF3022237D534303F1A04303F580236A
S31508004F205A6E22F480125A663CE700BF198A0008B6
S31508004F30B76F00082DE9F84F90F8943004460D46EF
S31508004F40002B40F0858090F89580DFF808918E1840
S31508004F50B54223D094F896306BB12046FFF768FE29
S31508004F60F8B1D4F89820236D9A4204D040F2CD21A6
S31508004F70484601F0EEFE94F89C30002BE8D0236EEC
S31508004F802F462A785B68B8F1000F59D1236E204660
S31508004F905B683978013598470028D9D00020BDE8E4
S31508004FA0F88F02F0D1FF0746207DFCF7E5FB20B11C
S31508004FB040F2D321274801F0CCFE2046FFF7F4FC47
S31508004FC0A26C00F1FF3A924538BFE36C207D3CBFE6
S31508004FD003F1FF3302EB030A94F854B0FCF7ECFB39
S31508004FE020B140F2DF211B4801F0B3FED4F8981037
S31508004FF0BBF1000F22D0236D8B4204D04FF43971D8
S31508005000144801F0A6FE384602F099FFB3E7A26CF1
S315080050109A4202D9E36C013B134499420BD013F828
S315080050200129112A01D0132AF1D1A2F111035A42FA
S315080050305A4184F89C20C4F898A0E4E75346ECE764
S315080050400A2AA3D10D212046984700289ED0A5E715
S315080050500E20A4E7198A0008F0B589B00C46154653
S315080050600646A0220021204602F016F92746AC463D
S31508005070BCE80F000FC7DCF8003005F1140C3B60E4
S3150800508004F16407BCE80F000FC7DCF80030EA6AD1
S315080050903B60AB6AC4E9132395F83020A36484F80F
S315080050A0952095F83320C4F89830012384F8962083
S315080050B084F89C3084F85430AB6B2366324B3460EA
S315080050C07360324BB360324BF360324B7361324BD1
S315080050D0B361324B3361FCF7F5FA10B1304B9842A5
S315080050E00FD1002107A8FCF775FA014648B9079BB6
S315080050F007A82375FCF76EFA0346207D23B1FCF753
S31508005100BBFA102009B0F0BD079B84F87830FCF78D
S3150800511033FB0028F5D1234B0494CDE90203E36C55
S315080051200193012300932369A26C2168207D01F075
S3150800513039FE0028E5D13022237D4FF480115343F0
S3150800514042F2640203F1A04303F580239950AB6B46
S3150800515093F91000FFF770FBAB6B93F91000FFF79C
S3150800516039FB04F1900001F0F5FD3046FFF7B6FB78
S315080051702046FFF783FC207DFCF71EFB003818BF8E
S3150800518001200001BEE700BF354F00082770000860
S31508005190694C0008AB6F0008B16F0008A9510008F8
S315080051A0038000F0B76F000870B50568044695F8E7
S315080051B09460002E3BD101F059FFFFF79BFB844218
S315080051C002D13046FFF78AFB2B6E93F91000FFF7E2
S315080051D033FB2B6E93F91000FFF7DEFA287D02F0F9
S315080051E0B1FB20B140F29721144801F0B2FD287DA9
S315080051F0FCF742FA20B140F29B21104801F0A9FDC4
S31508005200FCF718FA38B10E4B984204D040F29F21A9
S315080052100A4801F09EFD0023C4E90033C4E90533BA
S31508005220E3602B6E2846BDE87040DB68184740F2FD
S315080052306621024801F08DFD0F2070BD198A00080D
S31508005240058000F0F8B517461C46564A8B6B069D36
S315080052501A60554A5A6000229A60544ADA600A4629
S315080052602946FFF7F9FE0646002840F09480236891
S315080052700121C5F8A03063683A20C5F8A430637ADE
S3150800528085F8A930237A85F8A830E37A85F8AB3013
S31508005290A37A85F8AA30637B85F8AD30237B85F839
S315080052A0AC30E37B85F8AF30A37B85F8AE30FCF7EE
S315080052B0ADFE01230422617A207AFEF715FA01234E
S315080052C00222E17AA07AFEF70FFA01216068FCF75C
S315080052D09DFE3E7039462068FEF7C8FD1420617CA5
S315080052E0334B01F1410252019850607A227A03EB5E
S315080052F0411342EA0042C3F83828E17AA27A42EA20
S315080053000142C3F8302885F8B0607B7E032B46D867
S31508005310DFE803F03943021C022385F8B030002386
S315080053200422E17BA07BFEF7DFF90220617C204B9B
S3150800533001F1C1025201985003EB411341F62C01C9
S31508005340E07BA27B42EA00425A501CE0012785F81E
S31508005350B03002220023617B207BFEF7C5F9617B12
S31508005360227B637C42EA014241F628015B0103F194
S31508005370A04303F570335A500422236803F580537B
S31508005380DA65002FCBD120680A4A00F500530521BB
S315080053909A64FEF705FD3046F8BD0027D7E72326B1
S315080053A0F9E700BF89700008137100089D700008AE
S315080053B000C00350FFFF0100F421014801F0C9BCF9
S315080053C0818A000813B5FFF7A1FA0123094C0A4A96
S315080053D020600A4900930820202300F051F9084B61
S315080053E020466360074BE360FFF778FA002002B0B7
S315080053F010BD00BFFC130020CF150020EA8A000864
S31508005400095400082171000813B5064C2378009347
S31508005410112301F08DFD10B923780133237002B0F2
S3150800542010BD00BFCE1500200346054A0549106881
S3150800543003448B428CBF4FF0FF301360704700BFA8
S315080054406C1800200000082070B502F07DFD144E8F
S3150800545005463478FCB9134B1C60134B1C60134B80
S315080054601C6000F02BF8012002F0F9FD02F0FAFCAE
S315080054700F4B0246186020B9284602F060FD23202B
S3150800548070BD234640F2E7310A4800F0E9FA0A4BB4
S31508005490186001233370284602F051FD0020EFE71B
S315080054A0F115002014140020101400201C140020EC
S315080054B01814002018FCFFFF0C14002010B586B045
S315080054C000241422214601A88DF8004001F0E4FECC
S315080054D0012313488DF8043002F041FDBFF34F8FC6
S315080054E06846FEF7BFFF204601A98DF80440FEF77F
S315080054F0CBFF20460F2102F0E1FA0F21204602F0E9
S31508005500EBFAFEF795FF02F0AFFA064B53209C61C3
