S0180000726F735F6669726D776172655F786732362E73333726
S3150800000000100020090E0008017600080176000895
S3150800001001760008017600080176000801760008D6
S3150800002001760008017600080176000801760008C6
S3150800003001760008017600080176000801760008B6
S3150800004001760008017600080176000801760008A6
S315080000500176000801760008017600080176000896
S315080000600176000801760008017600080176000886
S315080000700176000801760008010500080B740008DF
S315080000800176000801760008017600080176000866
S315080000900176000801760008017600080176000856
S315080000A00176000801760008017600080176000846
S315080000B00176000801760008017600080176000836
S315080000C0017600080176000801760008C9170008BD
S315080000D00176000801760008017600080914000870
S315080000E0E913000801760008017600080176000881
S315080000F001760008017600080176000801760008F6
S3150800010001760008017600080176000801760008E5
S3150800011001760008017600080176000801760008D5
S3150800012001760008017600080176000801760008C5
S3150800013001760008017600080176000801760008B5
S3150800014001760008017600080176000801760008A5
S315080001500176000801760008017600080176000895
S315080001600176000801760008017600080176000885
S315080001700176000801760008017600080176000875
S3150800018001760008017600080176000899870008BC
S315080001900176000801760008017600080176000855
S315080001A00176000801760008017600080176000845
S309080001B001760008BE
S315080001C0013800D0FCE770472DE9F04F2DED028B82
S315080001D0C9B0414CDFED418AD4ED027A67EEA87AC0
S315080001E017EE900A05F0EAFA39A3D3E9002305F0D9
S315080001F067FC05F04DFD08EE100AB4EEE88AF1EE4C
S3150800020010FA57DDDFED367A38EE678A94ED000A84
S3150800021008A80CAD032100F08DFC10AE94ED010A80
S315080002202846032100F086FC14AF94ED020A3046F6
S31508000230032100F07FFC0DF16008B0EE480A38464D
S31508000240032100F077FC0DF1700994ED030A40468E
S31508000250032100F06FFC0DF1800A94ED040A48466C
S31508000260032100F067FC0DF1900B94ED050A50464A
S31508000270032100F05FFC94ED060A5846032100F0BE
S3150800028059FC184A08AB8021CDE905ABCDE90389AD
S31508000290CDE90167009528A806F044F828A807F0D4
S315080002A027FC81B228A800F0B3FC49B0BDEC028B4C
S315080002B0BDE8F08FDFED0C7AB4EEE78AF1EE10FABE
S315080002C044BFDFED077A38EE278A9FE7AFF3008051
S315080002D0182D4454FB2109407011002000003443B6
S315080002E00000B44308890008000034C30348044BDF
S315080002F0834202D0034B03B118477047B01600205B
S31508000300B016002000000000064B0749C91A8910DC
S3150800031048BF0131491003D0044B0BB101481847B7
S31508000320704700BFB0160020B0160020000000007D
S3150800033010B5064C237843B9FFF7D8FF044B13B121
S315080003400448AFF300800123237010BDD4150020A4
S31508000350000000002C92000808B5054B1BB10549A2
S315080003600548AFF30080BDE80840FFF7CDBF00BFE2
S3150800037000000000101000202C920008A3F5803A17
S31508000380704700BF174B002B08BF134B9D46FFF75E
S31508000390F5FF00218B460F461348144A121A07F038
S315080003A08FFB0E4B002B00D098470D4B002B00D02F
S315080003B098470020002104000D000D48002802D0AF
S315080003C00C48AFF3008006F047F82000290007F034
S315080003D0B8F805F03DFE00BF000008000000000068
S315080003E00000000000100020001000200016002069
S315080003F00000000000000000064B1B681A7A022A5B
S3150800040004D812B11B68044A13607047032AF9D04E
S31508000410704700BF001600202810002070B5A8B04D
S31508000420234D12AC0FCD0FC495E80700292384E8A5
S315080004300700204A0024CDE903231F491F4BCDE9B5
S315080004400944CDE905134FF480230B94089319AD9D
S3150800045008AE0FCECDE90E44079410940FC5184B7D
S315080004600DAE2B60174B1EAD0D930FCE0FC520207A
S31508000470154B12AA2B60154B19A92393144B2694D6
S31508000480CDE92403134B14482793144B009303AB6D
S3150800049004F0B2FE044618B19B21114807F0BEF8D5
S315080004A000214FF4E13007F09DF8204628B070BDD2
S315080004B02C88000800000A500005000600090008FC
S315080004C024000A50020004003C000A50D5150020FA
S315080004D00101010014160020E01000202C10002055
S315080004E0F887000808B5FFF799FF28B1BDE8084066
S315080004F0CB21024807F092B808BD00BFF88700086C
S31508000500014804F033BF00BFE0100020034BD3F8C6
S31508000510A43023FA00F000F00100704700C0035031
S3150800052008B50B2823D8092824D90A20FFF7EEFF97
S3150800053002460B20FFF7EAFF214940EA42000B6812
S3150800054040EA83030D2B0CD00E2B0ED8012202FA9B
S3150800055003F344F2821213420DD140F614021342F9
S3150800056003D0184A1368013B1360086002E00C3890
S31508000570012804D908BD134A13680133F4E70C208F
S31508000580FFF7C4FF02460D20FFF7C0FF0E4940EAF9
S3150800059042000B6840EA83030D2B0CD00E2BE4D8DF
S315080005A0012202FA03F344F28212134205D140F6FD
S315080005B014021342D9D0054AD4E7044ADCE700BF3F
S315080005C01811002008110020141100200411002021
S315080005D070B507F0F3FE244C0546D4E9000303433F
S315080005E00E4602D1C4E9005170BD281A07F000FF73
S315080005F007EE900ADFED1D6AF8EE677A87EEA67AAF
S31508000600DFED1B7AB4EEE77AF1EE10FAECD4194B6B
S31508000610C4E900561D68184C184BDFED195A1868BE
S3150800062022689FED186AAA1A07EE902AF8EEE77A6A
S31508000630C7EEA56A66EE867A1349C7EE876A0B681F
S31508000640124AC31A07EE903AF8EEE77AC2ED006A44
S31508000650C7EEA56A66EE867AC7EE876A0C4B2560F2
S31508000660C3ED006A0860BFE70010002000007A4466
S31508000670CDCCCC3D0411002010110020081100201B
S315080006800000F0447BD9A03E0C1100200011002088
S31508000690FC10002013B501213A2001F09FFC07F059
S315080006A001F80222012310460A2103F005F8022266
S315080006B0012310460B2102F0FFFF022201231046F8
S315080006C00C2102F0F9FF0222012310460D2102F047
S315080006D0F3FF0A20FFF71AFF02460B20FFF716FF63
S315080006E0324B40EA420018600C20FFF70FFF024623
S315080006F00D20FFF70BFF40EA42004FF0FF322C4B6C
S31508000700012418602B4B0220C3F820240A22234612
S315080007101146CDE9004402F05FFF0B22234611463D
S31508000720CDE90044022002F057FF0C222346114669
S31508000730CDE90044022002F04FFF0D222346CDE901
S3150800074000441D4C1146022002F046FF21460A20AD
S3150800075001F074F821460B2001F070F821460C20B0
S3150800076001F06CF821460D2001F068F84FF480621C
S31508000770124B2720C3F824244FF40062C3F824241C
S315080007804FF48052C3F824244FF40052C3F82424AB
S3150800079004F03AF8272004F005F8282004F034F885
S315080007A0282002B0BDE8104003F0FCBF1811002055
S315080007B01411002000E003502105000800D0035062
S315080007C0014B93ED000A704700110020014B93ED91
S315080007D0000A7047FC10002038B50A4B044633F867
S315080007E010300D46CB40DB0704D440F2564106488C
S315080007F006F014FF302301225C43044BAA401A5129
S3150800080038BD00BFF28800084888000840E0035059
S3150800081038B50A4B044633F810300D46CB40DB0793
S3150800082004D440F28541064806F0F8FE302301223A
S315080008305C43044BAA401A5138BD00BFF288000831
S315080008404888000840D0035070B5074C0646236B0D
S315080008500D46DB0704D440F24231044806F0DEFEBA
S3150800086004EB4614A56670BD008004509C880008F9
S3150800087070B52DED028B88B000250326324C0F2269
S3150800088000210DF1110007F01BF90D220021684621
S3150800089007F016F9204604A98DF810508DF8066061
S315080008A003F032F9294B2A4AC3F8E066C3F8E4266E
S315080008B002F58032C3F8E82629466A46204603F040
S315080008C06FF96A460121204603F06AF9242001F0EF
S315080008D0ABFB4FF47A73B0FBF3F51E4E3560236B12
S315080008E0DB0704D440F2BE411B4806F097FEE561DB
S315080008F0D6ED007A194BF8EE677A93ED007A9FEDFC
S31508000900188A67EE877A87EE887AFCEEC77A00201F
S3150800091017EE901AFFF798FFD6ED007A114BF8EE0E
S31508000920677A93ED007A67EE877A87EE887AFCEE27
S31508000930C77A012017EE901AFFF786FF0123E360B6
S3150800094008B0BDEC028B70BD0080045000C0035097
S3150800095003000800241100209C8800086C11002060
S315080009600000C8426811002008B52DED048B9FEDE4
S31508000970158A9FED159ADFED158A06F048FD06F0F3
S3150800098051FDFFF775FFB0EE482AF0EE491AB0EEB2
S31508000990681AB0EE480AF2EE040A0D4806F097FD0A
S315080009A0B0EE482AF0EE491AB0EE681AB0EE480AD8
S315080009B0BDEC048BBDE80840F2EE040A054806F0D3
S315080009C086BD00BF0000C84200000000CDCC204113
S315080009D0481100202811002010B52DED048B82B097
S315080009E0FFF7EEFEF0EE408AFFF7F0FE354C364B89
S315080009F0B0EE408A94ED001AF0EE680A93ED000A0C
S31508000A00324806F072FDF0EE408A314B94ED001A3A
S31508000A10F0EE480A93ED000A2E4806F066FDFDEE54
S31508000A20E87ACDED017AB0EE408A9DF9040006F029
S31508000A3020FDFDEEC87ACDED017A9DF9040006F099
S31508000A402FFDF5EEC08AF1EE10FA9FED239AB5EE6A
S31508000A50C08A48BFF1EE688A204CF1EE10FAF4EE2F
S31508000A60498AD4ED007A48BFB1EE488AF1EE10FA09
S31508000A70F8EE677A79FE288A67EEA87A87EE897A89
S31508000A80B4EE498AFCEEC77AF1EE10FA17EE901A20
S31508000A904FF0000039FE088AFFF7D6FED4ED007A3B
S31508000AA0F8EE677A67EE887A87EE897AFCEEC77A77
S31508000AB0012017EE901A02B0BDEC048BBDE8104079
S31508000AC0FFF7C2BE2C160020201100204811002076
S31508000AD01C110020281100200000C8422411002003
S31508000AE0014B83ED000A704720110020054B064A8A
S31508000AF01A605A6000229A60DA601A615A619A612D
S31508000B00704700BF701100200000204108B52DED88
S31508000B10028BFFF755FEB0EE408AFFF757FE044BEF
S31508000B2083ED058ABDEC028B83ED060A08BD00BF7E
S31508000B307011002070B52DED048B82B0B5EEC00A99
S31508000B400C46F1EE10FA05464CBF4FF0FF3601266B
S31508000B5006F046F807EE904AB8EEE79AB0EE408AF5
S31508000B60F0EE490AB2EE040A05F0DCFFB6EE007AAA
S31508000B70C7EE007A37EE880AFDEEC08AF8EEE87A04
S31508000B80F0EE490A30EE678AB2EE040A05F0CAFFAB
S31508000B9028EE000ABDEEC00A09490A4A8DED010A87
S31508000BA0B6F1FF3F08BF0A4618EE903A28460649AE
S31508000BB0009405F0EBFB02B0BDEC048B70BD00BFE2
S31508000BC0FA88000827890008FC88000810B504F090
S31508000BD0E3FB00230B4C194620680222806805F0C7
S31508000BE0EDFA0023206819460222406805F0E6FA65
S31508000BF0054B186803F05AFE07F0E0FB034BC3E900
S31508000C00000110BD501600202816002008100020EC
S31508000C102DE9F04105460E4607F0D0FB04460B4F7A
S31508000C2088463868201A07F0E3FB68B13246294639
S31508000C300020C7E9004806F0CDFDBDE8F0410222D4
S31508000C400020034906F0C6BDBDE8F0810810002063
S31508000C502589000808B5044807F015FD06F0ACFB21
S31508000C60BDE8084000F008B8D08F0008014807F032
S31508000C700ABD00BFD08F00082DE9F04796B0544E44
S31508000C8009AC35460FCD0FC42B6806F11405236051
S31508000C900EAC0FCD0FC495E80F00DFF84C8184E841
S31508000CA00F004C4807F0EFFC404607F0ECFC4FF409
S31508000CB08073494FADF83C30484B38460B9309A929
S31508000CC00EAB0D9302F0F4FA04214FF4E065B6F882
S31508000CD034A00DEB01000122ADF804A000F008FADB
S31508000CE0B6F836900022012102A8ADF8089000F067
S31508000CF0FFF9368F0122042103A8ADF80C6000F035
S31508000D00F7F90122042104A8354CADF8105000F07B
S31508000D10EFF9344B4FF44870C4F8C8344FF0021357
S31508000D20C4F8C43403F58033C4F8CC341C23C4F89F
S31508000D30B43404F0A1FB08A8ADF8205000F04CFA32
S31508000D40142004F099FB08A8ADF8205000F014FA16
S31508000D50232004F091FB08A8ADF8205000F03CFAD7
S31508000D60B921384606F0E2FC08A8ADF8205000F094
S31508000D7003FA002205A81146ADF814A000F0B8F948
S31508000D80002206A81146ADF8189000F0B1F9012224
S31508000D90002107A8ADF81C6000F0AAF9012200217D
S31508000DA008A8ADF8205000F0A3F9384602F034F947
S31508000DB000234046C4F8B434C4F8C834C4F8C4346C
S31508000DC0C4F8CC3407F062FC16B0BDE8F08700BF63
S31508000DD028890008D08F000800C00850E07072000B
S31508000DE000C0035002000100D48F00080348044ADB
S31508000DF00449121A921006F004BC00BFB401000898
S31508000E00B40100080016002008B5154B83F30A88BC
S31508000E1000F030F8FFF7EAFF124B13498B4212D362
S31508000E200020124B12498B4218D3FFF7ABFA186809
S31508000E3050F82240586840F82240013298688242A9
S31508000E40F5D30C33EAE70022F8E71C6844F82200D9
S31508000E5001325C68A242F8D30833E4E70022F8E7D7
S31508000E6000000020349200084092000840920008D2
S31508000E704092000870B54FF48041144B144A154D42
S31508000E809A60D3F8882005F5005442F47002C3F836
S31508000E908820114A91664FF0FF3222666FF40032BD
S31508000EA062660D22A2660222C3F8D020BFF34F8FD6
S31508000EB0BFF36F8F4FF44036002003F0A5FC0020E7
S31508000EC0E66003F06FFC2E6170BD00BF00ED00E028
S31508000ED0000000080080004400900050014B186094
S31508000EE0704700BF34160020054B1860054B1B6F72
S31508000EF003F00703032B01D107F024B8704700BF9E
S31508000F003C1600200080005038B504460D4601B155
S31508000F1018B94521044806F081FB236813B92B60EC
S31508000F20256038BD1C46F8E76289000810B50446F6
S31508000F3018B95621044806F071FB206818B10368F1
S31508000F4023600023036010BD6289000807B50023EB
S31508000F502948019307F097FB4FF4407301220421B7
S31508000F606846ADF8003000F0C3F80122234B05208F
S31508000F70C3F8442401A907F081FB002839D1204B86
S31508000F80D3F8F02042F00102C3F8F020D3F8FC2091
S31508000F9042F08072C3F8FC201A4AA3F55D431A6032
S31508000FA0019B194A03F5D52303F2FC43B3FBF2F37D
S31508000FB0164A013B13610223C2F8F0304FF48073DE
S31508000FC0C2F804334FF06043114AC3F8B02F114AF0
S31508000FD0C3F8802ED3F8002E42F48072C3F8002E90
S31508000FE0FF2283F82020D3F8002E22F48072C3F85B
S31508000FF0002E03B05DF804FBD08F000800D0035024
S3150800100000ED00E0FF030040F8590D00000004E081
S3150800101055CEACC50900010030B54FF06043D3F892
S31508001020802ED20715D501240B4D8440D5F8FC2017
S3150800103042F08072C5F8FC20D3F8002E2243C3F88C
S31508001040002E53F82020002AF0D003F820100020A4
S3150800105030BD1120FCE700BF00ED00E02DE9F041AE
S315080010600C2504464FF00108124E0CB314F001008B
S315080010700BD0002024F0010405FB00625768002FFE
S31508001080F3D09168C0B2B847EFE72246013020286E
S315080010904FEA520201D0D307F8D508FA00F20F2812
S315080010A024EA0204E8D9103805FB0062B432E5E701
S315080010B0BDE8F0818C11002008B50C4807F0E3FA6A
S315080010C0272003F089FB28B1272003F09DFB272062
S315080010D003F068FB282003F07FFB28B1282003F0E3
S315080010E093FB282003F05EFB002008BDD08F000884
S315080010F02DE9F0410E469046044638B993211C481E
S3150800110006F08CFA22252846BDE8F0810F290DD86D
S3150800111003782BB1012B0FD0022B10D0032B05D14E
S3150800112040F2FF736278D340DB070BD4972110484F
S3150800113006F074FA2125E6E740F2FF13F2E743F6D4
S31508001140FF73EFE70B4BD3F810532DB19B210848DB
S3150800115006F064FA0225D6E707F08AFA07464246F9
S315080011602046314602F080FF384607F07CFACAE787
S31508001170B889000800C0035038B5044628B9154890
S31508001180E42106F04BFA222038BD03782BB1012B57
S315080011900FD0022B10D0032B05D140F2FF736278D3
S315080011A0D340DB070BD40B48E82106F037FA212099
S315080011B0EAE740F2FF13F2E743F6FF73EFE707F0BB
S315080011C057FA0546204606F093FF284607F04BFADD
S315080011D00020D9E7B889000838B5044628B9164862
S315080011E0FC2106F01BFA222038BD03782BB1012B0F
S315080011F010D0022B11D0032B05D140F2FF73627871
S31508001200D340DB070CD40C484FF4807106F006FA7D
S315080012102120E9E740F2FF13F1E743F6FF73EEE713
S3150800122007F026FA0546204602F096FE284607F0FD
S315080012301AFA0020D8E700BFB88900082DE9F0415E
S315080012400D4616469846044600B139B931484FF45A
S31508001250E07106F0E3F92220BDE8F0810278DAB100
S31508001260012A1DD0022A0AD0032A15D0FF2A0CD03B
S315080012704FF4E271274806F0D1F92120ECE743F64E
S31508001280FF734278D340DA07F2D5022E0CD9042E22
S315080012900AD04FF4E471EDE740F2FF736278F1E7A4
S315080012A040F2FF134278EDE707F0E2F923780746A4
S315080012B0FF2B05D032462046296802F041FF2860F8
S315080012C02B68013309D12378FF2B06D1124B60789E
S315080012D0D3F8241406F05EFA286029684B1C14D04B
S315080012E00C230E4A03FB0122069BC2F80480936076
S315080012F02378FF2B04D00123094A8B40C2F82434F3
S31508001300384607F0B0F90020A6E7384607F0ABF9EB
S315080013102D20A1E7B889000800C003508C110020D1
S3150800132000D003502DE9F0410D4690461F4604466D
S3150800133000B139B929484FF40B7106F06FF922202C
S31508001340BDE8F081017800293AD001293CD002296C
S315080013500AD0032934D0FF290CD0204840F2312185
S3150800136006F05CF92120EBE743F6FF734278D34099
S31508001370DA07F2D507F07CF923780646FF2B05D065
S3150800138042462046296802F0CFFF28602A68531C87
S315080013901ED00C23124903FB0211069BC1F8B87034
S315080013A0C1F8BC302378FF2B05D0012310329340B7
S315080013B00C4AC2F82434304607F055F90020BFE736
S315080013C040F2FF736278D2E740F2FF134278CEE725
S315080013D0304607F048F92D20B2E700BFB889000863
S315080013E08C11002000D0035008B502F0E3FD054B30
S315080013F000F0553020F0A040C3F82004BDE80840AE
S31508001400FFF72CBE00E0035008B502F0D3FD054BEC
S3150800141000F0AA3020F02040C3F82004BDE80840B8
S31508001420FFF71CBE00E003502DE9F04F85B09A4641
S31508001430554B06461B780F461546DDF83C909DF839
S3150800144044B0DDF85080002B00F09780072A00F2A0
S3150800145096800E9B002B00F09280B9F1000F00F0E9
S315080014608E80129BB3F5006F00F38980012803D1A3
S31508001470109B002B00F08380444B03EB05131B7B6A
S31508001480002B7ED0424C10220021684606F018FB3D
S3150800149004EB45141022A7BB3946204606F010FB7C
S315080014A043F210036380BBF1000F03D1E37843F0E6
S315080014B00303E370364A0E9B02EB451CCCE9019305
S315080014C0129B6901581E9DF84C30C0F30A0003F0C0
S315080014D003039B0643EA001E53582E48012E00EAD2
S315080014E003004EEA0003CDF800A0535017D0B8F118
S315080014F0000F2ED19CF8023068F304138CF80230E2
S3150800150027E00021204606F0DBFA4FF44473638097
S31508001510BBF1000FCED1E37843F03003C9E71323BC
S315080015200CF1100ECCF80C309CE80F008EE80F007A
S315080015306FF00301DCF81C20109B61F39F02012F5A
S31508001540CCF81C20CCF8143003D1CCF81890CCF881
S31508001550043000270D4A290102EB051342F80180E1
S31508001560159A28465A60694622469F605E7302F0BD
S315080015706BF9384605B0BDE8F08F0748FAE7074823
S31508001580F8E70748F6E700BFF5150020F413002032
S31508001590F41200200F80FFF3028000F0018000F0B3
S315080015A0078000F038B5124B05461B78DBB1E0B171
S315080015B007F05EF80F4A00231146147B54B92B60D6
S315080015C001251A0101EB03131D738C5007F04BF824
S315080015D0204638BD0133082B02F11002EDD107F081
S315080015E042F80548F5E70548F3E70548F1E700BF7F
S315080015F0F5150020F4130020048000F0028000F0A6
S31508001600018000F038B507F033F8002305460B4A89
S31508001610147B6CB90133082B02F11002F8D102F0E1
S3150800162095F8074B28461C7007F01DF8204603E07E
S31508001630284607F018F8034838BD00BFF413002001
S31508001640F5150020058000F010B50D4B04461B78F3
S3150800165093B1072812D807F00BF80A4B03EB0413CB
S315080016601A7B2AB100241C7306F0FDFF204610BD24
S3150800167006F0F9FF0448FAE70448F8E70448F6E7ED
S31508001680F5150020F4130020068000F0028000F013
S31508001690018000F013B5154B1868002301908DF8EA
S315080016A0043006F0E5FF124B1C7824B106F0DBFF88
S315080016B0104802B010BD01221A7006F0D4FF0E4B76
S315080016C001A81C731C7783F82C4083F83C4083F8E8
S315080016D04C4083F85C4083F86C4083F87C400823D0
S315080016E08DF8073002F068F82046E2E7128A00080B
S315080016F0F5150020038000F0F4130020F8B50D4D11
S315080017002D7885B1072810DC0B4D060105EB001472
S31508001710277B67B1AB510025069BA560636002F085
S3150800172093F82846F8BD0548FCE70548FAE7054852
S31508001730F8E700BFF5150020F4130020028000F03A
S31508001740018000F0078000F008B50A4A12785AB1FD
S3150800175007280BD8084A02EB00131B7B43B100216C
S3150800176002F00AF8002008BD0448FCE70448FAE736
S315080017700448F8E7F5150020F4130020028000F06D
S31508001780018000F0078000F008B50A4A12785AB1BD
S3150800179007280BD8084A02EB00131B7B43B101212B
S315080017A001F0EAFF002008BD0448FCE70448FAE710
S315080017B00448F8E7F5150020F4130020028000F02D
S315080017C0018000F0078000F02DE9F041174B1F6DEE
S315080017D05B6D1F4000D5FEE701260025144CDFF897
S315080017E05880374218D02368C8F85060A3B1A1685A
S315080017F0284601316268A1609847637B012B0BD1AB
S3150800180050B90C4B03EB45131A7B60F341021A736C
S315080018101A7F60F341021A770135082D4FEA46060A
S3150800182004F11004DDD1BDE8F08100BF00000450CA
S31508001830F4130020F4120020002004501FB54FF6C0
S31508001840FF730F28ADF80830039009DC00910022D9
S31508001850084B03A902A8FFF7F1FC05B05DF804FBE5
S315080018601038039000910022024B03A902A8FFF743
S3150800187059FDF2E79F760008044BD3F88420D20678
S31508001880FBD4D3F88400C0F38110704700400050A1
S3150800189038B5104B0546D3F800310C4603F0030360
S315080018A0022B0BD0032B0DD0012B0FD106F064FBB6
S315080018B0032305B1286004B1236038BD06F0AEFBEA
S315080018C00923F6E706F05EFB0823F2E7012300206A
S315080018D0EFE700BF0080005038B5104B0546D3F837
S315080018E040310C4603F00303022B0BD0032B0DD01B
S315080018F0012B0FD106F0A8FE0A2305B1286004B112
S31508001900236038BD06F08AFB0923F6E706F09FFE3A
S315080019100C23F2E701230020EFE700BF0080005008
S3150800192038B5104B0546D3F860310C4603F003036F
S31508001930022B0BD0032B0DD0012B0FD106F084FE02
S315080019400A2305B1286004B1236038BD06F066FB9A
S315080019500923F6E706F07BFE0C23F2E701230020B5
S31508001960EFE700BF0080005038B5104B0546D3F8A6
S3150800197040320C4603F00303022B0BD0032B0DD089
S31508001980012B0FD106F060FE0A2305B1286004B1C9
S31508001990236038BD06F042FB0923F6E706F057FE3A
S315080019A00C23F2E701230020EFE700BF0080005078
S315080019B038B5124B0546D3F880300C4603F00303BE
S315080019C0022B0BD0032B0DD0012B0FD106F09AFA60
S315080019D00E2305B1286004B1236038BD06F0D6FA97
S315080019E00723F6E706F088FA0623F2E7044841F2E9
S315080019F0142105F013FE00231846EAE7008000507C
S31508001A00168A000838B51A4B0546D3F820010C4645
S31508001A1000F00700062821D8DFE800F028040C1497
S31508001A2010181C0006F068FA052305B1286004B1F1
S31508001A30236038BD06F0A0FA0323F6E706F0A6FAF7
S31508001A400723F2E706F094FA0223EEE706F054FAC3
S31508001A500623EAE706F090FA0423E6E7054841F28A
S31508001A60912105F0DBFD00231846DEE70123DCE7BC
S31508001A7000800050168A000838B5194B0546D3F879
S31508001A8028310C4603F00703013B052B20D8DFE875
S31508001A9003F003131B0F0B1706F02EFA052305B1E7
S31508001AA0286004B1236038BD06F026FA0623F6E757
S31508001AB006F06CFA0723F2E706F05EFA0323EEE770
S31508001AC006F05AFA0423EAE706F052FA0223E6E792
S31508001AD0044841F2990105F0A1FD00231846DEE706
S31508001AE000800050168A000837B500230193194B69
S31508001AF00546D3F820320C4603F00703042B1FD8FB
S31508001B00DFE803F025030F141900002101A8FFF7E9
S31508001B10B3FF12230DB1019A2A6004B1236003B002
S31508001B2030BD06F033FA07230190F3E706F08CFD83
S31508001B300A230190EEE706F071FA09230190E9E716
S31508001B4041F25601044805F069FD0023E2E7012346
S31508001B50E0E700BF00800050168A0008F7B50027A6
S31508001B60144B0197D3F88041064604F00304022C6F
S31508001B700D4614D0032C0DD0012C14D1394601A8DA
S31508001B80FFF740FF10240EB1019B336005B12C60AE
S31508001B9003B0F0BD06F0FAF907240190F3E706F062
S31508001BA0E7F90190EFE741F2E631034805F036FD23
S31508001BB03C46E8E700800050168A000838B5164B00
S31508001BC00546D3F800020C4600F00700042819D889
S31508001BD0DFE800F020030B0F130006F035FD0A239B
S31508001BE005B1286004B1236038BD06F017FA092349
S31508001BF0F6E706F02CFD0C23F2E706F0A3F90F230F
S31508001C00800AEDE7054841F2A44105F007FD0023E7
S31508001C101846E5E70123E3E700800050168A000826
S31508001C2038B5164B0546D3F808020C4600F00700EF
S31508001C30042819D8DFE800F020030B0F130006F07C
S31508001C4003FD0A2305B1286004B1236038BD06F0F8
S31508001C50E5F90923F6E706F0FAFC0C23F2E706F0A5
S31508001C6071F90F23800AEDE7054841F2DC4105F0DA
S31508001C70D5FC00231846E5E70123E3E7008000507A
S31508001C80168A000838B5124B0546D3F850320C466A
S31508001C9003F00303022B0FD0032B05D0012B0FD122
S31508001CA006F0D2FC0A2302E006F0D1FC0C2305B1AB
S31508001CB0286004B1236038BD06F0B0F90923F6E7B9
S31508001CC0044841F2C90105F0A9FC00231846EEE7CD
S31508001CD000800050168A000837B500230193184B78
S31508001CE00546D3F860320C4603F00703013B032B85
S31508001CF01FD8DFE803F0020E1914002101A8FFF728
S31508001D0081FE10230DB1019A2A6004B1236003B045
S31508001D1030BD002101A8FFF7DFFD1123F2E706F029
S31508001D2035F907230190EDE706F022F90223019021
S31508001D30E8E741F2FD01034805F070FC0023E1E7FE
S31508001D4000800050168A000837B500230193184B07
S31508001D500546D3F894320C4603F00703013B032BE0
S31508001D601FD8DFE803F0020E1914002101A8FFF7B7
S31508001D7049FE10230DB1019A2A6004B1236003B00D
S31508001D8030BD002101A8FFF7A7FD1123F2E706F0F1
S31508001D90FDF807230190EDE706F0EAF80223019023
S31508001DA0E8E741F23011034805F038FC0023E1E783
S31508001DB000800050168A000873B500240F4B019462
S31508001DC0D3F87032064603F00303012B0D4607D0FD
S31508001DD0022B11D041F25B11094805F01FFC04E003
S31508001DE0214601A8FFF778FD11240EB1019B336047
S31508001DF005B12C6002B070BD1524F6E700800050CE
S31508001E00168A000808B5334B98424FD027D8324B6C
S31508001E10984245D017D8314B98423ED00AD838B1A7
S31508001E202F4B984239D041F2BB312E4805F0F6FBCC
S31508001E30002034E02C4B98422FD02C4B9842F2D1FC
S31508001E402B4B586E2BE02B4B98422CD003F53713AF
S31508001E5003F5D8639842E6D1254B986F1FE0264BC9
S31508001E6098422FD00CD8254B984223D0244B984221
S31508001E7024D0244B9842D6D11D4BD3F884000EE0CB
S31508001E80214B984222D003F5740303F51053984268
S31508001E90C9D1174BD3F8980001E0154B986D08BDCA
S31508001EA0134B186FFBE7124B586FF8E7104BD3F834
S31508001EB08000F4E70E4BD3F88800F0E70C4BD3F814
S31508001EC08C00ECE70A4BD3F89000E8E7084BD3F808
S31508001ED09400E4E780BA8C01405DC60080841E0049
S31508001EE040420F00168A000800093D00C0CF6A006C
S31508001EF00080E00F0024F400007E560380D54302DC
S31508001F00006CDC020048E8010090D00310B5B0F57B
S31508001F10207F2ED009D8B0F5007F24D003D868B129
S31508001F20B0F5C07F0AD000241BE0B0F5607FFAD177
S31508001F30124BD3F88040C4F3011412E00F4B1C6F08
S31508001F40230B13F00E0FC4F303340AD0072C08D062
S31508001F500F2C06D0032C04D04FF42271084805F044
S31508001F605DFB601C10BD054BD3F89040C4F30464B8
S31508001F70F7E7024B1C6FC4F38024F2E70080005099
S31508001F80168A000838B54FF48032104B04469A6614
S31508001F9000200D46FFF7BAFF41F671320C4B60433D
S31508001FA0DC69DA635A6804F4803422F440125DB9B5
S31508001FB00849884294BF00200120000502435A6060
S31508001FC00CB10022DA6338BD0349F2E700900050ED
S31508001FD000000350005A6202002D310138B542094B
S31508001FE004460D4606D140F235310D4805F016FB7C
S31508001FF0002305E0531E022B0BD80A4B03EB820382
S3150800200004F01F0445B103F580530122A2401A606B
S3150800201038BD40F24331E8E703F50053F5E700BF62
S31508002020168A00086080005030B585B00021B0F5EA
S31508002030807F0446CDE9001100F009816BD800289D
S3150800204000F0D980A0F12004602C74D8602C72D8D6
S31508002050DFE814F0D100DE00D100DE00EE00EE006D
S31508002060EE00EE00EE00DE00F8007D000E019D0099
S315080020707D00DE00DE00DE00710071007100710077
S315080020807100710071007100DE00DE00DE00AF0035
S315080020901801DE0071007100710071007100710095
S315080020A07100710071007100710071001D01EE0070
S315080020B0D100D100D10013017D007D00BB002201B3
S315080020C09200F30071007100710071007100C60082
S315080020D0D1007100EE00EE00EE00EE00EE00F30017
S315080020E0F300DE007100DE00DE0071007100710091
S315080020F0710071007100710071007100710071004A
S315080021007100710071007100710071007100710039
S3150800211071007100CB00B0F5E06F00F0B3803BD8DA
S31508002120B0F5607F7FD01DD8B0F5007F66D008D89F
S31508002130B0F5C07F5FD040F2A4415C4805F06EFA66
S3150800214056E0B0F5207F63D0B0F5407FF3D105F0B7
S31508002150F9FE04464FF42070FFF7D8FEB4FBF0F4FE
S3150800216064085EE0B0F5B06F6CD00AD8B0F5806F41
S315080021705ED0B0F5A06FDED100216846FFF7B4FC4B
S3150800218036E0B0F5C06F73D0B0F5D06FD3D100216B
S315080021906846FFF713FD2BE0B0F5186F77D00DD81A
S315080021A0B0F5086F7DD0B0F5106F66D0B0F5F06F5A
S315080021B0C1D100216846FFF7B3FB19E0B0F5286FD7
S315080021C06AD007D8B0F5206FB5D100216846FFF769
S315080021D083FD0DE0B0F5406F2FD0B0F5486FAAD15A
S315080021E000216846FFF7B0FD02E005F08BFE00907F
S315080021F0009805B030BD05F0A5FEF8E705F082FEAB
S3150800220005462046FFF782FEB5FBF0F50095EFE799
S3150800221005F098FE04464FF42070FFF777FEB4FBEE
S31508002220F0F40094E4E701A8FFF7C2FB019DE8E794
S3150800223000216846FFF7E6FBDAE700216846FFF764
S315080022401BFCD5E700216846FFF788FCD0E74FF06E
S31508002250E02302911B695B0705D505F073FE029022
S31508002260029B0093C4E703A902A8FFF735FBF7E72B
S3150800227000216846FFF730FBBAE700216846FFF7FA
S31508002280CFFCB5E700216846FFF76EFBB0E70021F3
S315080022906846FFF7F7FCABE700216846FFF78CFDB9
S315080022A0A6E76846FFF7F4FAA2E700BF168A000811
S315080022B008B58020FFF7B8FE034B98429EBF4FF43F
S315080022C08032024B1A6708BD005A620200A000500D
S315080022D01FB503460020B3F5807F019000F0FB8010
S315080022E000F28B80662B7BD83C2B05D8243B092B28
S315080022F05CD940F28951DDE03D3B292BF9D801A292
S3150800230052F823F0F924000827250008F3220008CC
S31508002310F3220008F3220008F3220008F32200083B
S31508002320F3220008F3220008F3220008F32200082B
S31508002330F3220008F3220008F3220008F32200081B
S3150800234031250008CD240008F3220008F3220008EE
S31508002350F322000863240008F3220008F322000889
S315080023607D2400083B250008252400081D250008B3
S31508002370F3220008F3220008F3220008F3220008DB
S31508002380F322000895240008F3220008F322000827
S31508002390CD240008CD240008CD240008CD2400084B
S315080023A0CD2400081D2500081D250008092BA0D8E6
S315080023B001A252F823F000BFCD240008CD2400085E
S315080023C0CD240008CD240008CD240008F3220008F7
S315080023D0BD240008F322000843240008032500084A
S315080023E0802B86D1574B1B6F03F00703013B032B4A
S315080023F05ED8DFE803F05B545759B3F5F06F7BD02E
S3150800240024D8B3F5B06F59D011D8B3F5607F00F072
S315080024108180FFF46EAFB3F5806F57D0B3F5A06F28
S315080024207FF467AF002001A9FFF75EFB4AE0B3F52A
S31508002430D06F66D0B3F5E06F75D0B3F5C06F7FF493
S3150800244058AF002001A9FFF747FA3BE0B3F5186F2C
S315080024506ED00BD8B3F5086F58D0B3F5106F7FF46C
S3150800246048AF002001A9FFF7DBFB2BE0B3F5286F87
S3150800247063D008D8B3F5206F7FF43BAF002001A9DD
S31508002480FFF72AFC1EE0B3F5406F47D0B3F5486F57
S315080024907FF42FAF002001A9FFF756FC12E00523B1
S315080024A001930FE00323FBE70823F9E70223F7E785
S315080024B040F2D641244805F0B1F803E0002001A90E
S315080024C0FFF74CFB019805B05DF804FB002001A955
S315080024D0FFF798FAF6E74FF0E02302901B695B07CF
S315080024E005D505F02FFD0D230393039BD8E703A914
S315080024F002A8FFF7F1F9F8E7002001A9FFF710FA9B
S31508002500E0E7002001A9FFF759FBDBE701A9FFF780
S31508002510BFF9D7E701A9FFF74BFAD3E7002001A9CE
S31508002520FFF7AAFACEE7002001A9FFF71DFAC9E7C7
S31508002530002001A9FFF7A6FBC4E7002001A9FFF7C1
S315080025403BFCBFE700800050168A00084FF4803233
S31508002550074B0849586E03F580535A664B6A23F0B1
S3150800256001034B62C3035CBF034B5A66704700BF47
S31508002570008000500000085000A0005038B50368DD
S3150800258004460F2B04D940F68A317C4805F046F8F4
S3150800259063680F2B04D940F68D31784805F03EF86C
S315080025A0A3680F2B04D94FF43961744805F036F83F
S315080025B0237B0F2B04D940F69331704805F02EF88B
S315080025C0637B0F2B04D940F696316C4805F026F844
S315080025D0A37B3F2B04D940F69931684805F01EF8CD
S315080025E0E37B3F2B04D940F69C31644805F016F886
S315080025F02369032B04D940F69F31604805F00EF88D
S315080026006369032B04D940F6A2315C4805F006F845
S31508002610E369032B04D940F6A531584804F0FEFFB8
S315080026208020FFF755FE032800F083804FF48012C0
S31508002630534B4FF0A0615A6645F60E02514BC3F84C
S315080026408020514A91624FF4803102F5805291629E
S315080026509A6DD203FCD4996D11F08041FBD1D4E96F
S315080026600002120542EA0062E07B0243207B42EA4E
S315080026700042607B42EA0032A07B42EA80121A617D
S315080026809869D4E90452120642EA856200F00040CD
S315080026900243A07EE57E0243207E42EA0042607E37
S315080026A042EA00229A611A6AE06922F00F0242EAB7
S315080026B08502364D00283DD11A6294F82420996A7D
S315080026C094F82000D200294042EA40120A4394F8BE
S315080026D0211042EA011242F480329A622C49294AB0
S315080026E0936D31EA0303FBD14FF08071264881626E
S315080026F01369A56823F4700343EA055313614FF081
S315080027000043836194F822300BB9224B996294F8FE
S3150800271023303BB94FF480321E4B9A62194A936DA7
S315080027205B00FCD494F825301BB1164B1A4AC3F843
S31508002730802038BD024342F0080202281A6208D1F6
S3150800274019614FF40852996114484FF47F4104F017
S31508002750ABFF0C4994F822308A6A94F820001B06CD
S315080027602A4043EA4013134394F8242043EAC20359
S3150800277094F8232043EA02438B62D3E7168A0008BB
S31508002780009000500040005A0050005AC7FFFEFE55
S31508002790030001000060005AF1A7FFFF3440005A09
S315080027A0014B93F900007047A416002010B5436842
S315080027B00446072B04D940F6E6512A4804F02EFFB2
S315080027C0A368032B04D940F6E851264804F026FFEF
S315080027D02378032B04D940F6EA51224804F01EFF59
S315080027E094F90130002B04DA40F6EC511D4804F048
S315080027F015FF4FF400011C4A637851664FF4D15116
S31508002800022002F5B832516218494F2B48604FF042
S31508002810010028BF4F2301F5805148601169C9039B
S31508002820FCD4217843EA01235361D4E901131B013F
S3150800283043EA0123617B0B43217B43EA410393600F
S31508002840E37BA17B1B0143EA4113617C0B43217C9B
S3150800285043EA41035360A37C13B16FF4D153536227
S3150800286010BD00BF168A00080090005000100250E4
S31508002870014B1880704700BFA2160020014B188034
S31508002880704700BFA016002008B54FF48002184B09
S315080028905A660223174A5360936813F48033FBD1B0
S315080028A0012822D105F068FB134B984215D003F591
S315080028B0122303F5F863984213D0104B00EB8002FD
S315080028C0400AB3FBF0F3520A0A49CA620B630123B2
S315080028D04B620022074B5A6008BD45F67A13084A30
S315080028E0F2E745F61A03074AEEE75362F1E700BF37
S315080028F0009000500040025000F049026466666687
S31508002900D8B80500BBCF050038B5B0F5207F77D01D
S315080029100ED8B0F5007F61D003D890B3B0F5C07F6C
S315080029202FD04FF44671BDE838403D4804F076BED6
S31508002930B0F5607FF5D13B4A4C1ED2F8FC5015F035
S3150800294080751EBFD2F8FC3023F08073C2F8FC30C5
S31508002950032C04D940F2F721314804F05FFE324ACD
S31508002960D2F8803023F0300343EA0413C2F88030EB
S3150800297035B12C4AD2F8FC3043F08073C2F8FC30EB
S3150800298038BD4C1E012C0AD9102903D8274BCB4039
S31508002990DB0704D440F2CB21214804F03FFE04F0C3
S315080029A092FE04F09EFE4FF48031214B1E4A1967B1
S315080029B0136F23F4704343EA0433136705F0C2FA2E
S315080029C00446FEF759FFC0F10201204604F083FED3
S315080029D000F048F8BDE83840FFF76ABC4C1E1F2CCB
S315080029E004D94FF443710E4804F018FE0E4AD2F883
S315080029F0903023F0F85343EA0463C2F89030BFE7F7
S31508002A004C1E012C04D940F21231054804F006FE8A
S31508002A10054A136F23F4806343EA84231367AFE7F9
S31508002A20168A000800ED00E0008000501001010041
S31508002A300090005008B50121022000F099F94FF4E2
S31508002A402070FFF763FA054B187004F03CFE04F09B
S31508002A5048FE4FF48032024B1A6708BDF61500206F
S31508002A600090005008B54FF4C070FFF7DDFABDE8D6
S31508002A7008400449884294BF012102214FF420707E
S31508002A80FFF742BF80F0FA0238B5044605F05AFA55
S31508002A900546FEF7F1FEC0F10201284604F01BFECA
S31508002AA00121002000F0B8F92CB1FFF7DBFFBDE8E3
S31508002AB03840FFF7FDBB034B4FF420701978FFF73A
S31508002AC023FFF4E7F61500202DE9F0410546FFF748
S31508002AD099F9431E0333044604D940F6E2113B48EC
S31508002AE004F09CFD4FF4C022394B5A6603F598331F
S31508002AF05A68012A04D137494A605A689207FCD4B1
S31508002B008020FFF7E5FB052807D104F0DCFD04F07B
S31508002B10E8FD4FF480322E4B1A672F4B24F0407491
S31508002B209D4239D02D4B9D4239D005F0E5F98542B5
S31508002B30064603D90121284600F06EF9284FFB689E
S31508002B4013F0060FFBD1D7F80880BC60BB6863405A
S31508002B5013F4F81F26D12846FEF7C0F98020FFF7A0
S31508002B60B7FB052814D105F0EDF9A842044604D9A7
S31508002B7040F63B21154804F051FDFEF77DFEC0F1F5
S31508002B800201204604F0A7FDFFF76CFFFFF790FB54
S31508002B90AE4213D2BDE8F08144F00074C5E744F0B4
S31508002BA08074C2E740F62A21084804F037FD8020E1
S31508002BB0C7F80880FFF78CFB052805D0BDE8F0416B
S31508002BC00121002000F028B93546CCE7168A00080E
S31508002BD00090005000E0015040420F0080841E0023
S31508002BE00000015070B54E4B0546984273D041D847
S31508002BF0A3F5B703A3F55863984265D033D8494B74
S31508002C00494E984251D017D8002877D041F2DE11A4
S31508002C10464804F003FD40F68671444804F0FEFC7D
S31508002C204FF40022404B5A663E4B9D4276D0002414
S31508002C303F4A954236D05DE03D4B984227D03D4B02
S31508002C409842E3D13C4BD3F8A040621E033224F0ED
S31508002C5040744CD940F68671344804F0DFFC4FF4D2
S31508002C6000237366E4E7354B9842CFD1324BD3F84D
S31508002C70BC402CE0324B984231D0324B984232D08D
S31508002C80314B9842C2D12C4BD3F8C8401FE02A4B8F
S31508002C90D3F8A040621E033224F04074DAD84FF409
S31508002CA00023736644F0807424E0234BD3F8A040D5
S31508002CB0621E033224F040742AD84FF40023736648
S31508002CC0234643F0007415E01B4BD3F8B840621E48
S31508002CD0154E0332BBE7184BD3F8C040F7E7164B3F
S31508002CE0D3F8CC40F3E7144BD3F8D040EFE74FF4D2
S31508002CF0002373664FF0B442946070BD40F6867147
S31508002D000A4804F08BFC4FF400232C467366F1E75F
S31508002D1040F68671054804F081FCCEE70023D0E72B
S31508002D20C0EA210140420F0000900050168A0008B0
S31508002D3080841E0000093D000080E00F0024F40096
S31508002D400048E801005A620280BA8C01024A536BB5
S31508002D500342FCD1704700BF00800950034A01793D
S31508002D60D36E23F030030B43D36670470040005000
S31508002D70F8B50446244BD3F88420D006FBD4D3F800
S31508002D808430C3F381139C423CD005F0BBF8012C78
S31508002D9005460BD11D4B984204D940F28F711C4849
S31508002DA004F03CFC0121284604F095FC05F057FC8C
S31508002DB04FF00072174B07465A66204604F096FCF9
S31508002DC04FF48063104E621E93403367736E9A0108
S31508002DD003D4D6F884309B060AD5384605F03AFC63
S31508002DE0022C0FD12846BDE8F840002104F073BC38
S31508002DF0D6F884309906E9D540F2A771044804F05C
S31508002E000DFCE3E7F8BD00BF00400050005A62021F
S31508002E10698A00080060005010B50C4608B905F02C
S31508002E2071F8074B21461B783BB1064B984204D8EC
S31508002E300120BDE81040FFF79BBF0220F9E700BF5D
S31508002E40F7150020005A620238B54FF00042244BAD
S31508002E50244C5A664AF6CD33656C014605F00105E1
S31508002E60236428BB0120FFF771FF6368DB0715D5CC
S31508002E701D4B586008461D4B226BD2070CD498424E
S31508002E8008D1072415B1174B194A1A6404F02FFC08
S31508002E90204638BD0130EFE79842F2D00024F1E72A
S31508002EA00132236B13F0080305D08A42F8D1E8E70C
S31508002EB000220E49F5E78A42E3D020210A4A9162A8
S31508002EC00121A2F5805251600649084A886A80069F
S31508002ED003D49342D5D00133F8E79342DDE700BF28
S31508002EE0009000500080095000A0095040420F0091
S31508002EF03254FFFF38B54FF00042164B01465A666A
S31508002F004AF6CD33144C154A656C236443780B2076
S31508002F105B0043F00103D363FFF718FF63688A7801
S31508002F2023F4F87343EA02136360CA784B7943EAD9
S31508002F300223A3600A798B7943EA0223236108787E
S31508002F40FFF782FFEB0744BF054B236404F0CFFB72
S31508002F50012038BD00900050008009500040005004
S31508002F603254FFFF70B50F28044605D940F668614C
S31508002F70124804F053FB0F244FF00042104B11493E
S31508002F805D6E03F580535A664AF6CD334E6C802043
S31508002F900B64FFF7DBFE0B6A23F00F0323430B6278
S31508002FA0F30744BF084B0B64002DA2BF4FF0004245
S31508002FB0064B5A6604F09BFB70BD00BF698A000881
S31508002FC000800050008009503254FFFF00A00050D6
S31508002FD008B50E4B984211D00D4B984210D003F508
S31508002FE0804398420ED003F5804398420CD0094896
S31508002FF040F2793104F012FB002008BD5620FCE7A8
S315080030005720FAE76520F8E76620F6E70000015B37
S3150800301000C00850BC8A000810B504F06DFB0423F4
S3150800302000F5805100F500520B6113610B611361C5
S315080030300B6113610B611361202341F202010361E5
S315080030400023C360836041614FF4A02183618365D7
S3150800305041620549C36103628362C36243630365D0
S31508003060D164036310BD00BFFF3F0D0338B51B4B8A
S31508003070044698420D460FD0194B98420CD003F5DA
S315080030808043984208D003F58043984204D040F222
S315080030906911144804F0C2FA25B92046BDE838403B
S315080030A004F02ABB012204F580535A6040F6FF71EA
S315080030B0204605F00F0204F01BFBA263782104F0FA
S315080030C017FB05F001036A0748BF43F00203A26C29
S315080030D002F003029A42FAD138BD00BF0000015B34
S315080030E000C00850BC8A0008F8B505460C461646C6
S315080030F022B940F227216A4804F090FA694B9D42AA
S315080031000FD0694B9D420CD003F580439D4208D0F1
S3150800311003F580439D4204D040F22A21604804F01A
S315080031207DFA2CB92846FFF753FFFEF77DFF0446C4
S31508003130AB68D80741D5B44204D24FF40D7158484C
S3150800314004F06CFAB4FBF6F46F68013CFF2C07F048
S31508003150010704D94FF40F71514804F05FFA2406A9
S315080031602FB92B6923F07F4323432B61F8BD282110
S31508003170284604F0BDFAAB6C990718D1AB6CDA0790
S3150800318017D4AE6C16F0020615D140F24921444810
S3150800319004F044FA284604F0AFFA2B69314623F0C6
S315080031A07F4323432B61BDE8F840FFF75FBF052641
S315080031B0F0E70926EEE70626ECE76B68012B04D054
S315080031C04FF41771364804F029FAAB6DDB07AB6884
S315080031D048BF760003F0E003402B42D009D893B1EC
S315080031E0202B1AD040F29E21BDE8F8402C4804F066
S315080031F015BA602B42D0802BF4D106EB4603A342C6
S3150800320047D801230DE0B6EB141F04D94FF42171FA
S31508003210234804F003FA102303E0B6EBD40F1AD8B8
S31508003220082373436401B4FBF3F4204F203CB7EB47
S31508003230C40F4FEAC40604D240F2A921184804F084
S31508003240EDF928463E40012104F052FA2E63BDE806
S31508003250F84004F04DBA40F28921114804F0DEF92D
S31508003260DEE70623B4FBF3F3B34201D30623D8E71C
S3150800327040F28E210A4804F0D1F9F7E7B6EB940F2D
S3150800328001D80423CDE740F29321054804F0C6F996
S31508003290F7E74FF42671024804F0C0F9B1E700BF1A
S315080032A0BC8A00080000015B00C00850F8FF7F00D8
S315080032B0F8B5974B044698420E460ED0954B984261
S315080032C00BD003F58043984207D003F58043984214
S315080032D003D0E221904804F0A1F91EB9E4218E48F2
S315080032E004F09CF9727BB3687AB18C4A934203D98D
S315080032F0E621894804F092F93369D3B1DB7BC3B17F
S31508003300E921854804F08AF913E0854A934203D9EE
S31508003310EC21814804F082F9336953B11A7F42B12E
S31508003320B168804A5B7F914240F28380042B00F2A9
S3150800333083806368356923B140F6FF71204604F03F
S31508003340D7F92046FFF768FE2269737BB17B22F026
S3150800335087020B43134343F080032361002D6DD08E
S315080033602369297F23F0F80343EAC1132978EA7B06
S315080033700B43297943EA4113697A43EA011343EA7D
S3150800338082132361E068D5E9053720F0F0403B4316
S3150800339020F470200343287B697B43EA802343EAB1
S315080033A0C133E360A368F07B23F00303034343F0D0
S315080033B00103A3606B88A06803F4C0430343A360BA
S315080033C0A368687943EA8023A360AB79EF79606ADA
S315080033D01B013F0203F0700307F4E06720F477202F
S315080033E020F4EE603B430343287A000300F4E040F0
S315080033F00343687F000400F4702003436362636933
S31508003400307B23F00F03034363616B89A3610029B3
S3150800341039D10AB33E4B9C423FD03E4B9C424DD0DD
S3150800342003F580439C425AD003F580439C4268D0FA
S3150800343012E0042B3FF67DAFF32162E7A368F27B27
S3150800344023F00303134343F00103A3606369327B4C
S3150800345023F00F0313436361D6E901122046FFF7F1
S3150800346043FE05212046FFF701FE2821204604F0E9
S315080034703FF93378A36304F03BF9A36CDB4313F4F9
S31508003480405FFAD1F8BD224B9C420CD1AB7B264952
S3150800349003F00F034B67002ADED02B7C224A03F089
S315080034A00F031367D8E71B4B9C420DD1AB7B1E4914
S315080034B003F00F03C1F88030002ACDD02B7C1A4ABE
S315080034C003F00F03D367C7E7184B9C420ED1AB7BBB
S315080034D0154903F00F03C1F88C30002ABCD02B7CA9
S315080034E0114A03F00F03C2F88830B5E7104B9C4227
S315080034F0B2D1AB7B0C4903F00F03C1F89830002A10
S31508003500AAD02B7C084A03F00F03C2F89430A3E72D
S315080035100000015B00C00850BC8A0008002D31017C
S31508003520809698003F4B4C000090035000000950CD
S315080035300040095070B51F2904460D46164603D9A2
S315080035409121064804F06AF82EB104F58054012347
S31508003550AB40236070BD04F50054F8E7128B0008F1
S3150800356038B5032804460D4605D8094B33F81030FC
S31508003570CB40DB0704D440F28541064804F04EF8F8
S31508003580302301225C43044BAA401A5138BD00BFC0
S31508003590BA8B00084888000840D0035038B503287D
S315080035A004460D4605D8094B33F81030CB40DB07E7
S315080035B004D440F25641064804F030F8302301227C
S315080035C05C43044BAA401A5138BD00BFBA8B0008A9
S315080035D04888000840E003502DE9F84F03280746BD
S315080035E00E46144698469DF828A09DF82C9005D8B6
S315080035F0274B33F81030CB40DB0703D4BF212548CF
S3150800360004F00CF886EA0403032B03D9C1212148E8
S3150800361004F004F8072C4FF0030506F0030625D836
S315080036204FEA840B05FA0BF529461B4807FA0BF2F5
S3150800363004F086F82946194806FA0BF204F080F8D1
S31508003640424621461648FFF775FF52462146154859
S31508003650FFF770FF0123144AA340C2F8203421461D
S315080036604A46BDE8F84F1148FFF764BFA4F1080BB6
S315080036704FEA8B0B05FA0BF529460D4807FA0BF2AC
S3150800368004F05EF829460B4806FA0BF2D6E700BFA7
S31508003690BA8B0008658B000800C4035008C40350A1
S315080036A010C4035014C4035000E0035024C403504C
S315080036B004C403500CC403502DE9F0410328044602
S315080036C00D461746984605D81D4B33F81030CB40A3
S315080036D0DB0704D44FF4B0711A4803F09FFF37B1E3
S315080036E029462046B8F1000F20D0FFF739FF0F21F1
S315080036F0072D04EB440688BFA5F108034FEA061612
S31508003700114895BFAB009B0004360C3607FA03F246
S315080037109940304404F014F87FB929462046B8F198
S31508003720000F06D0BDE8F041FFF71ABFFFF736FFD6
S31508003730DDE7BDE8F041FFF731BFBDE8F08100BF26
S31508003740BA8B0008658B000830C0035010B52320DB
S3150800375001F00AF80024FF22064B21465C6520206A
S315080037609A625C60FEF73AFC2146BDE810402120CB
S31508003770FEF734BC0000045038B5072804460D4649
S3150800378003DD7721084803F049FF1F2C03D991214F
S31508003790064803F043FF064A064B002D08BF1346AA
S315080037A00122A2401A6038BDC28B0008128B00089D
S315080037B0401004504020045010B5044618B9912111
S315080037C01F4803F02BFF23781B0613F0604F03D026
S315080037D092211B4803F022FFE3780F2B03D995218A
S315080037E0174803F01BFF01212020FEF7F7FB0121F4
S315080037F02120FEF7F3FB0122124B23205A60227880
S3150800380012069A606178A27842EA01429A61FF221A
S315080038109A6200229A631A644FF000425A654FF082
S31508003820FF3203F500531A6500F0EEFF2320E17816
S3150800383000F0F8FFBDE81040232000F0B3BF00BF3A
S31508003840C28B000800000450F8B50126C3B2072849
S3150800385005460C46174606FA03F603DDDE2134480C
S3150800386003F0DCFE1CB9DF21314803F0D7FE2368DC
S3150800387023F47C1323F00F031BB1E2212C4803F039
S31508003880CDFEA37A1B0413F47C0F03D0E721284846
S3150800389003F0C4FEE37A1B0513F07E6F03D0E9211B
S315080038A0234803F0BBFE237B5B0513F0FE5F03D0C2
S315080038B0EB211F4803F0B2FE1E4B27F003071E65D7
S315080038C0AB00226803F1A04303F588235A6030222F
S315080038D002FB05F0637B00F1A04000F5802003663B
S315080038E0E37AA27A1B0543EA0243227B43EA425360
S315080038F0C365076704F0BCFE0F4B227A5E6502B10A
S315080039001E64627A02B19E632279A37943EA02436E
S31508003910084A93616179E37943EA014306498B6171
S31508003920064B56639E64BDE8F84004F09CBE00BF93
S31508003930C28B0008002004500010045000000450F8
S3150800394010B50124C3B2072804FA03F404DD40F2D3
S315080039507B11074803F062FE04F08AFE054B5A6D98
S3150800396022EA04025A659C62BDE8104004F07BBE58
S31508003970C28B00080000045010B50124C3B2072802
S3150800398004FA03F404DD40F299110A4803F046FEEE
S3150800399004F06EFE084BDA6A224208D15B6B9C4340
S315080039A00CBF0124002404F05EFE204610BD00244E
S315080039B0F9E700BFC28B00080000045070B5012566
S315080039C0C3B20728044605FA03F504DD4FF4E0718F
S315080039D0094803F023FE04F04BFE3022074B5E6BCA
S315080039E002FB04335C6E04F03EFE35420ABFC4F3A4
S315080039F00A100020013070BDC28B00080000045078
S31508003A00154B984225D003F58043984221D003F5FB
S31508003A10804398421DD003F58043984219D003F598
S31508003A208043984215D003F58043984211D003F598
S31508003A30804398420DD003F58043984209D003F598
S31508003A408043984205D003F58043C31A584258412B
S31508003A5070470120704700BF0080045030B4274CDF
S31508003A60A04228D004F58044A0422FD004F5804413
S31508003A70A0422DD004F58044A0422BD004F5804402
S31508003A80A04229D004F58044A04227D004F58044FA
S31508003A90A04225D004F58044A04223D004F58044F2
S31508003AA0A04221D004F58044A0421FD030BC8F210B
S31508003AB0134803F0B3BD00200625124CC3B105FB1D
S31508003AC0001004EB8004226630BC70470120F3E73F
S31508003AD00220F1E70320EFE70420EDE70520EBE7F6
S31508003AE00620E9E70720E7E70820E5E70920E3E7F6
S31508003AF005FB0011120204EB8104E4E70080045080
S31508003B00168C00080081035038B505460C46FFF7A9
S31508003B1077FF18B9B421214803F080FD284603F041
S31508003B201EFE012205F500531A632B6B9B07FCD476
S31508003B30237962881B0243EA8243A27A1343627896
S31508003B4043EA8213E27A43EAC213227B43EA421328
S31508003B50627B43EA0213A27B43EAC203E27B43EA9F
S31508003B60C223A27943EA0243E27943EA42430122A5
S31508003B706B6005F580531A6322780AB90223EB6055
S31508003B8000236B626379217A1B0143EA8103617A18
S31508003B900B43AB600AB10123EB6038BD168C0008F5
S31508003BA0F8B506460F461446FFF72AFF20B94FF424
S31508003BB08671254803F032FD022F04D940F20D1113
S31508003BC0214803F02BFD304603F0C9FD012206F516
S31508003BD000531A63336B9B07FCD4637AE2791B01A3
S31508003BE043EA0253A27906EB47151343E27A43EAFE
S31508003BF0C2432B66237A1BB3237B2A6E394642EAD5
S31508003C0043422A66013B18BF01233046A278FFF7D4
S31508003C1025FF012306F580563363637822781B0651
S31508003C2043EA8263E27843EA0233227943EA82234B
S31508003C30627943EA0223A27A43EA82036B66F8BDF5
S31508003C402B6E2B66E5E700BF168C00080D4B9842D5
S31508003C5008D1A3F5D023C3F85812802300F5805065
S31508003C60C3657047084B984204D1A3F5D823C3F817
S31508003C707412F2E7054B984204BFA3F5E023C3F894
S31508003C809012EAE700000A5000400A5000800A50E5
S31508003C90F8B507460C461E4615464AB940F2551170
S31508003CA0314803F0BBFC24B1402E09D1062328E095
S31508003CB021B94FF42070FEF7B7F90446402E42D0DA
S31508003CC0402E09D87EB1202E17D04FF4CE71BDE80C
S31508003CD0F840254803F0A2BC602EF6D1B5EB940F48
S31508003CE03CD804230DE0B5EB141F04D940F2871124
S31508003CF01D4803F093FC102303E0B5EBD40F1CD842
S31508003D0008235D436B0803EB4413B3FBF5F3174D28
S31508003D10203BB5EBC30F4FEAC30404D240F2B311FC
S31508003D20114803F07BFC602207F500539A602C408B
S31508003D3007F580539E60FC61F8BD4FF4C6710A48CA
S31508003D4003F06CFCDCE70623B4FBF3F3AB42ADD21D
S31508003D5040F29111044803F061FCA7E74FF4CB71D8
S31508003D60014803F05BFCBCE76B8C0008F8FF7F009A
S31508003D7038B5104B044698420D460CD003F58043DF
S31508003D80984208D003F58043984204D04FF439711D
S31508003D90094803F043FC012204F580535A60EB43BB
S31508003DA0934003F00A036361656115B904F500548D
S31508003DB0626038BD00000A506B8C000810B51B4BBA
S31508003DC0044698420CD003F58043984208D003F580
S31508003DD08043984204D040F25E41154803F01EFC29
S31508003DE0012204F580535A6040F6AA6341F205029F
S31508003DF0636100230F49A360E365E26004F500529E
S31508003E002361E361E36491640849A3658C4203D1A5
S31508003E1023650023636506E007498C42F8D001F55F
S31508003E2080418C42F4D00123536010BD00000A5033
S31508003E306B8C0008FFFF010000400A5070B5424B2A
S31508003E40044698420D460CD003F58043984208D0A4
S31508003E5003F58043984204D040F215313B4803F0FD
S31508003E60DDFB2046FFF7AAFF012304F580567360A1
S31508003E70AB7C1BB1A36843F08043A360EB7C1BB10A
S31508003E802046297DFFF7E2FE2A8A6B7B20461343EC
S31508003E90EA891343E3602B7BD5E90112FFF7F8FEA5
S31508003EA06B7D1BB1A36843F48033A360AB7D1BB164
S31508003EB0A36843F40043A360EB7D2A7E1B07120523
S31508003EC002F4E00203F0E0431343A3656A7E204947
S31508003ED0931E012B1C4B1BD89C4215D003F580431F
S31508003EE09C4213D003F580439C420CBF02234FF03B
S31508003EF0FF330220C1335B01C850032A1FD10423B4
S31508003F00F3652B78636170BD0023F2E70123F0E7C0
S31508003F109C4210D00F4B9C420FD003F580439C4225
S31508003F200CBF02234FF0FF33022003F241135B015B
S31508003F30C850012AE2E70023F6E70123F4E7042242
S31508003F4004F50053DA65DCE700000A506B8C0008BC
S31508003F5000C0035000400A5010B5044620B940F28C
S31508003F603A21124803F05AFB23782BB1012B17D0BC
S31508003F70022B18D0032B05D140F2FF736278D34089
S31508003F80DB0704D440F23D21084803F047FB012231
S31508003F90637821789A4030235943054B5A5010BD0F
S31508003FA040F2FF13EAE743F6FF73E7E7C08C000821
S31508003FB040E00350034BD3F82424D3F820041040E0
S31508003FC0704700BF00C0035010B5044620B94FF42F
S31508003FD049711C4803F022FB23782BB96078053811
S31508003FE018BF4FF0FF3010BD012B08D16378012BA5
S31508003FF01CD0032B14BF4FF0FF300420F3E7022B2D
S3150800400009D16378A3B1052B14D0072B14BF4FF041
S31508004010FF300820E7E7032B0ED16378022B0ED07A
S31508004020052B14BF4FF0FF300A20DCE70320DAE740
S315080040300620D8E70720D6E74FF0FF30D3E7092058
S31508004040D1E700BFC08C0008064BDA6E02F03002DA
S31508004050202A06D0DA6E22F0300208B142F01002A9
S31508004060DA667047004000502DE9F04103780446AF
S315080040700D4616462BB1012B21D0022B22D0032B3D
S3150800408005D140F2FF736278D340DB0703D45D2184
S31508004090284803F0C3FA284BD3F810331BB1602124
S315080040A0244803F0BBFA0F2D0FD8DFE805F03A35A0
S315080040B0353535353535353535353535353540F2DA
S315080040C0FF13E0E743F6FF73DDE7B421194803F071
S315080040D0A5FA4FF00008204606B304F009F80F21A8
S315080040E067782378072F03EB430388BF083F4FEA17
S315080040F00313124895BFBF00BF0004330C3308FAF8
S3150800410007F2B940184403F036FB85B9204656B184
S31508004110BDE8F04103F0ECBFA846DCE7FFF71CFF5B
S31508004120DDE7A846DBE7BDE8F041FFF715BFBDE8C8
S31508004130F08100BF1D8D000800C0035030C0035039
S315080041402DE9F047037806460C4615462BB1012B98
S315080041504FD0022B50D0032B05D140F2FF73727853
S31508004160D340DA0704D44FF49C714C4803F056FA4E
S31508004170022D06D9042D04D040F23911474803F020
S315080041804DFA474FD7F8103323B14FF49D71434882
S3150800419003F044FA002C32DB73786340032B04D90E
S315080041A04FF49F713D4803F039FA0127072C05F0B3
S315080041B005094FF00308327805F0060507FA04F7F3
S315080041C029DC4FEA840A08FA0AF84146354802FA11
S315080041D00AF203F0D0FA7278414602F00302324836
S315080041E002FA0AF203F0C7FAB9F1000F3AD12F4BD7
S315080041F039E040F2FF13B2E743F6FF73AFE7631CFB
S3150800420006D1D7F82414707803F0C4FA041ECCDA61
S315080042102046BDE8F087A4F1080A4FEA8A0A08FA98
S315080042200AF84146224802FA0AF203F0A4FA72781A
S31508004230414602F003021F4802FA0AF203F09BFA0B
S31508004240B9F1000F14D01F2C0CDD74211A4803F0A5
S31508004250E5F91A4BC3F8107495B97421164803F09A
S31508004260DDF903E0154BC3F810746DB90F4B0CE07C
S315080042701F2CBCDD7421104803F0D0F90B4BE9E77D
S3150800428074210D4803F0CAF90C4BC3F814740123C2
S31508004290064AA340C2F82034BAE700BF1D8D0008BD
S315080042A000C0035000C4035008C4035000E0035084
S315080042B004C403500CC403507A8D000800D0035080
S315080042C070B5154E054630420C4604D040F28911A9
S315080042D0124803F0A3F9344204D04FF4C5710F48CD
S315080042E003F09CF90E4B2C40D3F83024012022EA27
S315080042F00502C3F83024D3F830241443C3F83044F5
S31508004300D3F82C242A43C3F82C24FFF79DFE054B2B
S31508004310C3F8205470BD00BFFFFF00F01D8D0008D4
S3150800432000C0035000E00350F8B5037805460F4671
S3150800433016462BB1012B21D0022B22D0032B05D1F7
S3150800434040F2FF736A78D340D80704D440F29B1131
S31508004350184803F063F9184BD3F8103323B14FF418
S31508004360CE71144803F05AF92846FFF72DFE791C3A
S31508004370044609D1421C0BD12046F8BD40F2FF1372
S31508004380E0E743F6FF73DDE7431CF5D0B8420ED1EC
S315080043902846032186F00102FFF766FE012004F194
S315080043A0100306FA03F19840FFF78AFFE4E74FF097
S315080043B0FF34E1E71D8D000800C00350054B9A68DD
S315080043C09107FCD45A689207F9D4DA69002AF6D11B
S315080043D0704700BF00C00A5010B5074C6368DB077A
S315080043E004D44FF49371054803F018F903F0AEFEB0
S315080043F00223236110BD00BF00C00A50D68D0008F5
S3150800440008B5FFF7DBFF0122024B03F580514A602E
S315080044101A6108BD00C00A5010B5044B5C68012C2F
S3150800442003D1FFF7D9FF024B5C6010BD00C00A50EC
S3150800443000E00A5038B5074DFFF7C0FF6B68044621
S31508004440012B03D1FFF7E8FFFFF7B8FF2378EB60EE
S3150800445038BD00BF00C00A5038B505460C4603F003
S315080044607FFEBDB96268237812B1127843EAC203A7
S31508004470627843EA4203A26812B1127843EA8213C9
S31508004480E27843EA8203226912B1127843EA4223A8
S31508004490014A936438BD00BF00C00A5030B58BB0DE
S315080044A0914804F0F0F820B140F236318F4803F015
S315080044B0B5F86C468E4D0FCD0FC42B688D4A236018
S315080044C0FF238DF80130D2F84C3113F4802340F0E5
S315080044D0FE80D2F850218DF801309DF801306C46E7
S315080044E0FF2B08BF3F236846834D8DF80130FEF742
S315080044F05DF93220FEF7BCF90FCD0FC40FCD0FC4FE
S3150800450095E8030084E803007A4BD3F84C2112039C
S3150800451040F1C180A3F5FE431C88B4F5807F28BF0F
S315080045208C248DF81940FEF73BF9044484F30804FB
S3150800453072488DF81840FCF7D7FC6846FEF71EF857
S315080045403220FEF79BF96E48FEF7BEFA6D48FEF775
S3150800455049FB6D4804F097F820B140F2CB11634847
S3150800456003F05CF8694C0020FEF78EF9FEF762FA54
S31508004570236F002023F0070343F003032367FEF7A6
S3150800458083FA236F624923F474432367614BD3F894
S31508004590FC2012F0807240F08280D4F8803023F03C
S315080045A0030343F00103C4F88030C1F88020574C58
S315080045B0D4F8203123F0070343F00203C4F820316E
S315080045C0D4F8283123F0070343F00203C4F828314E
S315080045D0D4F8803123F0030343F00103C4F8803193
S315080045E0D4F8403123F0030343F00203C4F8403102
S315080045F0D4F8603123F0030343F00203C4F86031B2
S31508004600D4F8403223F0030343F00203C4F84032DF
S31508004610D4F8003223F0070343F00203C4F800324B
S31508004620D4F8083223F0070343F00203C4F808322B
S31508004630D4F8503223F0030343F00203C4F850328F
S31508004640D4F8703223F0030343F00103C4F8703240
S31508004650D4F8203223F0070343F00103C4F82032CC
S31508004660FDF774FF4FF0E0220020136943F00403BE
S315080046701361D4F8603223F0070343F00103C4F84A
S315080046806032D4F8943223F0070343F00103C4F8E8
S3150800469094320BB030BDD3F85041E4B241E7D3F8B9
S315080046A0FC2022F08072C3F8FC20D4F8802022F087
S315080046B0030242F00102C4F880200022C1F88020DB
S315080046C0D3F8FC2042F08072C3F8FC206FE74FF065
S315080046D07E6393F89C2093F99C30002BFFF6FDAE81
S315080046E08DF80120F9E600BFC88F0008088F00087A
S315080046F0848F00080080E00F988F0008C0175302C7
S3150800470000B4C404C0EA2101CC8F00080080005020
S315080047100090005000ED00E007B5094B18689A882C
S315080047209B7900906846ADF804208DF80630FEF7B0
S31508004730E1FB0C20FEF716FC002003B05DF804FB35
S31508004740C08F000813B50024064A6846536F43F025
S315080047500103536700948DF80440FEF7FFFA2046DC
S3150800476002B010BD0040005010B55D2804460DD8B3
S3150800477001220A49630904F01F04A240203341F8C4
S315080047802320BFF34F8FBFF36F8F10BD40F2251163
S31508004790034802F043FF002CF7DBE9E700E100E0FD
S315080047A0E48F000810B55D28044608D8012361097E
S315080047B0074A04F01F04A34042F8213010BD4FF405
S315080047C09871044802F02AFF002CF7DBEEE700BFD9
S315080047D000E100E0E48F000810B55C28044604D91F
S315080047E040F23B11064802F019FF064B621153F8D6
S315080047F0220004F01F04E040C04300F0010010BD91
S31508004800E48F000800E100E0002808DB01224309E4
S31508004810034900F01F008240603341F823207047A7
S3150800482000E100E038B500F110036D2B04460D4693
S3150800483004D94FF4EF710E4802F0F0FE0F2D04D99B
S3150800484040F2DF110A4802F0E9FE60B20028ACBF68
S3150800485000F16040074B4FEA0515EDB2ABBF00F516
S31508004860614000F00F0080F800531D5438BD00BFAA
S31508004870E48F000814ED00E010B503F0F9FE0A4BCA
S315080048801A786AB901226FF004041A7003F0EBFE75
S31508004890204605210134FFF7C5FF5D2CF8D110BD70
S315080048A0BDE8104003F0DFBEF815002010B5044639
S315080048B003F0D5FE024B1C6003F0CCFE002010BDB1
S315080048C07414002010B503F0CAFE034B1C6803F0ED
S315080048D0C1FE204610BD00BF741400203021037DA0
S315080048E002464B4303F1A04303F58023D86E0749DC
S315080048F01B6F884208D113F0020006D0106A136DA8
S315080049001B1A58425841704700207047F915002075
S3150800491037B53023007D0DF10701434303F1A0436A
S3150800492003F58023DD6E1C6F03F09EFB20B140F279
S31508004930F931084802F072FE9DF8070040B9064BA7
S315080049409D4203D184F00204C4F3400003B030BD95
S315080049500120FBE761900008F915002037B50446E9
S315080049600DF10701007D03F07FFB20B140F24441C1
S31508004970114802F053FE9DF80730A3B1256DD4E91E
S31508004980122313449D4201D8AA4204D940F24F414A
S31508004990094802F043FED4E9120303449D4218BFB6
S315080049A0284603B030BD3022237D534303F1A0438C
S315080049B003F58023DD6EE2E7619000082DE9F743F1
S315080049C0D0E9043404F17C07D0F80C90013B064684
S315080049D01022002138469DB2D4F8748003F070F88E
S315080049E0104BC5F30A0543EA0513C4E91F39012329
S315080049F094F8780084F88C30C4F884803A460A4BD8
S31508004A00009604F16401FCF779FE38B140F28D3165
S31508004A10064803B0BDE8F04302F000BE03B0BDE8A7
S31508004A20F08300BF00001030A54B00086190000815
S31508004A302DE9F04385B000F138060446102200211E
S31508004A40304603F03DF84FF44473534D207DC4E9D6
S31508004A500F556387FCF778FE20B140F2CA514F48DC
S31508004A6002F0DCFD10220021304603F029F84FF44D
S31508004A70447363873023207DC4E90F55434303F10C
S31508004A80A04303F58023DB6EAB420BD1FCF77CFE1B
S31508004A90002876D040F2D351404805B0BDE8F0432F
S31508004AA002F0BCBD0DF10B0103F0DEFA20B140F2B5
S31508004AB0D9513A4802F0B2FD9DF80B30002B63D16C
S31508004AC02046FFF74BFF03A90746207D03F0EEFAC1
S31508004AD020B140F2E151314802F0A0FD039B002BC2
S31508004AE004DC40F2E3512D4802F098FD039B04F1E3
S31508004AF01808013B1022002140469DB2D4F81090B8
S31508004B0002F0DEFF3022237DC5F30A0553432D014B
S31508004B1045F04075C4E9065903F1A043276203F539
S31508004B2080231A6F94F82410520862F3410184F81E
S31508004B302410196F94F8242028F0030861F3000262
S31508004B4084F824201B6F626A9B0863F39F0248F06F
S31508004B50020362626364009432462146104B207D4C
S31508004B60FCF7CCFD20B140F204610C4802F056FD7A
S31508004B70207DFCF709FE20B14FF4C161074802F019
S31508004B804DFD05B0BDE8F08394F844306FF341035A
S31508004B9084F84430DFE700BFF9150020619000086B
S31508004BA00378000838B55569144695F88C3023B94A
S31508004BB040F26A310A4802F031FD002305F19000FF
S31508004BC085F88C30FCF7B2F908B1FFF7F7FE636891
S31508004BD01BB100212046A2689847002038BD00BFB7
S31508004BE06190000838B50446007DFCF7ADFD20B19C
S31508004BF040F22D41084802F011FD2046FFF76EFEEF
S31508004C000546207DFCF7C0FD20B140F2324102483E
S31508004C1002F004FD284638BD619000082DE9F04FE2
S31508004C208DB099460023044608910692C9F80030CB
S31508004C30D9F80060069B9D1B00F0C580089B9E194D
S31508004C4000F0C1802046FFF7CDFF8046002840F0DF
S31508004C50BA802046FFF782FE226D904240F2BC8061
S31508004C60801A854228BF054694F896A0BAF1000F27
S31508004C7000F0F28003F0FCFC236D079020460993B0
S31508004C80FFF746FE2F46099B834658198342D4F8F8
S31508004C90981040F0BC80D4E9122313448B4208BF15
S31508004CA0C4F89820D4F898108A4201D88B4204D8C0
S31508004CB040F242518A4802F0B1FC079803F0D3FC4F
S31508004CC0DA46207DFCF740FD20B140F28241844857
S31508004CD002F0A4FC207D0DF12F0103F0C5F920B1E7
S31508004CE040F286417E4802F099FC2046FFF736FEE0
S31508004CF0236D834698429DF82F3040F2BC8023B13D
S31508004D0040F28E41764802F089FCA26C236DAEB261
S31508004D10934240F0A880099304F1280823691022D9
S31508004D2000214046079302F0CBFE3021079B013E47
S31508004D30E362099BC6F30A062363237D36014B43C8
S31508004D4028F0030803F1A04346F0407648F0020233
S31508004D5003F58023A6621A67236DD4E912122B4441
S31508004D600A44934208BF0B469342236504D340F294
S31508004D70DE415B4802F052FC236D9B4505D10123B9
S31508004D80204684F85430FFF753FE207DFCF7FCFCE0
S31508004D9020B140F2F741524802F040FC94F89630B0
S31508004DA03BB1BAF1000F04D0236E112120465B688F
S31508004DB09847D9F8003037B1069A3B449342C9F868
S31508004DC00030FFF435AFD9F80030002B14BF0020AF
S31508004DD01B200DB0BDE8F08FD4E912310B449A427E
S31508004DE004D340F26A413E4802F018FCD4E9123274
S31508004DF01344226D9B1A9D4228BF1D46002D7FF441
S31508004E0033AF40F21651364802F008FC2CE701335E
S31508004E105A1E914210D1C4F8983013F8012C112A61
S31508004E2001D0132A14D1013FA2F111014A424A4185
S31508004E30D04684F89C2029E713F8012C02F0FD01DE
S31508004E40112906D1013FB8F1000F3FF41FAFEBE778
S31508004E50D04606F8012B19E72A463046216D02F09E
S31508004E603AFE2F462DE7238DC3F30A12164466F33E
S31508004E700E13238570E7207D93B93023584300F13C
S31508004E80A04000F58020426E436EC2F30A1223F456
S31508004E90FF432A4423F0700343EA021343665BE7A1
S31508004EA0104B049403930023CDE901530123009387
S31508004EB05A462369216802F0D8FB20B140F2CB415B
S31508004EC0074802F0ABFB3022237D534303F1A0438E
S31508004ED003F580235A6E22F480125A663CE700BF17
S31508004EE061900008037800082DE9F84F90F894308F
S31508004EF004460D46002B40F0858090F89580DFF833
S31508004F0008918E18B54223D094F896306BB1204696
S31508004F10FFF768FEF8B1D4F89820236D9A4204D0BA
S31508004F2040F2CD21484602F079FB94F89C30002BDC
S31508004F30E8D0236E2F462A785B68B8F1000F59D15E
S31508004F40236E20465B683978013598470028D9D002
S31508004F500020BDE8F88F03F08BFB0746207DFCF7A1
S31508004F60F3FB20B140F2D321274802F057FB204635
S31508004F70FFF7F4FCA26C00F1FF3A924538BFE36CE8
S31508004F80207D3CBF03F1FF3302EB030A94F854B0CB
S31508004F90FCF7FAFB20B140F2DF211B4802F03EFB8A
S31508004FA0D4F89810BBF1000F22D0236D8B4204D0A1
S31508004FB04FF43971144802F031FB384603F053FBBD
S31508004FC0B3E7A26C9A4202D9E36C013B13449942B7
S31508004FD00BD013F80129112A01D0132AF1D1A2F115
S31508004FE011035A425A4184F89C20C4F898A0E4E771
S31508004FF05346ECE70A2AA3D10D21204698470028F4
S315080050009ED0A5E70E20A4E761900008F0B589B008
S315080050100C4615460646A0220021204602F050FD01
S315080050202746AC46BCE80F000FC7DCF8003005F190
S31508005030140C3B6004F16407BCE80F000FC7DCF8EA
S315080050400030EA6A3B60AB6AC4E9132395F830205E
S31508005050A36484F8952095F83320C4F89830012382
S3150800506084F8962084F89C3084F85430AB6B236619
S31508005070324B34607360324BB360324BF360324B61
S315080050807361324BB361324B3361FCF703FB10B1EA
S31508005090304B98420FD1002107A8FCF783FA014646
S315080050A048B9079B07A82375FCF77CFA0346207DB9
S315080050B023B1FCF7C9FA102009B0F0BD079B84F8A4
S315080050C07830FCF741FB0028F5D1234B0494CDE951
S315080050D00203E36C0193012300932369A26C216800
S315080050E0207D02F0C2FA0028E5D13022237D4FF454
S315080050F08011534342F2640203F1A04303F580236F
S315080051009950AB6B93F91000FFF77EFBAB6B93F9E5
S315080051101000FFF747FB04F1900002F080FA3046D2
S31508005120FFF7C4FB2046FFF783FC207DFCF72CFB2A
S31508005130003818BF01200001BEE700BFE94E00088D
S31508005140737800081D4C0008F7770008FD770008FB
S315080051505D510008038000F00378000870B5056803
S31508005160044695F89460002E3BD102F0A5FBFFF7A4
S31508005170A9FB844202D13046FFF798FB2B6E93F9C0
S315080051801000FFF741FB2B6E93F91000FFF7ECFABE
S31508005190287D02F049FF20B140F29721144802F019
S315080051A03DFA287DFCF750FA20B140F29B211048C1
S315080051B002F034FAFCF726FA38B10E4B984204D0BE
S315080051C040F29F210A4802F029FA0023C4E9003375
S315080051D0C4E90533E3602B6E2846BDE87040DB68FA
S315080051E0184740F26621024802F018FA0F2070BDEF
S315080051F061900008058000F0F8B517461C46564A27
S315080052008B6B069D1A60554A5A6000229A60544A6A
S31508005210DA600A462946FFF7F9FE0646002840F0F6
S31508005220948023680121C5F8A03063683A20C5F840
S31508005230A430637A85F8A930237A85F8A830E37A0A
S3150800524085F8AB30A37A85F8AA30637B85F8AD304C
S31508005250237B85F8AC30E37B85F8AF30A37B85F8F4
S31508005260AE30FCF7BBFE01230422617A207AFEF7F2
S3150800527023FA01230222E17AA07AFEF71DFA012118
S315080052806068FCF7ABFE3E7039462068FEF7D6FD2F
S315080052901420617C334B01F1410252019850607A27
S315080052A0227A03EB411342EA0042C3F83828E17A2E
S315080052B0A27A42EA0142C3F8302885F8B0607B7EBC
S315080052C0032B46D8DFE803F03943021C022385F88E
S315080052D0B03000230422E17BA07BFEF7EDF9022023
S315080052E0617C204B01F1C1025201985003EB411336
S315080052F041F62C01E07BA27B42EA00425A501CE0B0
S31508005300012785F8B03002220023617B207BFEF757
S31508005310D3F9617B227B637C42EA014241F628018C
S315080053205B0103F1A04303F570335A500422236846
S3150800533003F58053DA65002FCBD120680A4A00F5B9
S31508005340005305219A64FEF713FD3046F8BD002781
S31508005350D7E72326F9E700BFD57800085F79000864
S31508005360E978000800C00350FFFF0100F421014856
S3150800537002F054B9C99000080346054A0549106861
S3150800538003448B428CBF4FF0FF301360704700BF59
S31508005390401600200000082070B503F069F9144E85
S315080053A005463478FCB9134B1C60134B1C60134B31
S315080053B01C6000F02BF8012003F0E5F903F0E6F88D
S315080053C00F4B0246186020B9284603F04CF92320F3
S315080053D070BD234640F2E7310A4800F0A9FC0A4BA3
S315080053E0186001233370284603F03DF90020EFE7E3
S315080053F0FC150020801400207C140020881400204E
S315080054008414002018FCFFFF7814002010B586B01D
S3150800541000241422214601A88DF8004002F050FB12
S31508005420012313488DF8043003F02DF9BFF34F8F8D
S315080054306846FEF7FFFF204601A98DF80440FFF7EE
S315080054400BF820460F2102F0ABFE0F21204602F092
S31508005450B5FEFEF7D5FF02F079FE064B53209C6198
S31508005460FFF7D2F95320FFF79DF906B010BD00BF2C
S31508005470C88F000800C00A5010B5044602F062FD45
S315080054804FF47A729042B0FBF2F105D23621BDE8AC
S3150800549010400C4802F0C2B80B4BB3FBF1F30B49B2
S315080054A0884201D93C21F2E702FB04F0B0FBF3F095
S315080054B0022806D9BDE810400323B0FBF3F0FAF73B
S315080054C07FBE10BD9991000840420F00E7CD9A3B78
S315080054D008B59FED070AFBF703FBFBF77DFAFBF719
S315080054E077F8FBF713FBBDE80840FAF76DBE00BF77
S315080054F09A99993E81F0004102E000BF83F000438B
S3150800550030B54FEA41044FEA430594EA050F08BF50
