S0180000726F735F6669726D776172655F786732362E73333726
S31508000000001000206D140008319000083190000897
S3150800001031900008319000083190000831900008AE
S31508000020319000083190000831900008319000089E
S31508000030319000083190000831900008319000088E
S31508000040319000083190000831900008319000087E
S31508000050319000083190000831900008319000086E
S31508000060319000083190000831900008319000085E
S315080000703190000831900008DD0600082B8700083B
S31508000080319000083190000831900008319000083E
S31508000090319000083190000831900008319000082E
S315080000A0319000083190000831900008319000081E
S315080000B0319000083190000831900008319000080E
S315080000C03190000831900008319000082D1E000874
S315080000D03190000831900008319000086D1A000828
S315080000E04D1A000831900008319000083190000838
S315080000F031900008319000083190000831900008CE
S3150800010031900008319000083190000831900008BD
S3150800011031900008319000083190000831900008AD
S31508000120319000083190000831900008319000089D
S31508000130319000083190000831900008319000088D
S31508000140319000083190000831900008319000087D
S31508000150319000083190000831900008319000086D
S31508000160319000083190000831900008319000085D
S31508000170319000083190000831900008319000084D
S315080001803190000831900008319000084BA3000810
S31508000190319000083190000831900008319000082D
S315080001A0319000083190000831900008319000081D
S309080001B03190000874
S315080001C0013800D0FCE77047F0B52DED048B87B0F9
S315080001D000F0E4FBB0EE408A00F0E6FBF6EE007AAB
S315080001E078EE008A584C68EEA78A84ED060ADFED99
S315080001F0577A30EE480A84ED058A80EE278AB0EEF3
S31508000200480A07F0F5F8DFED527AB4EEE70AF1EEA0
S3150800021010FA9FED509A44D594ED020A07F0A4F817
S31508000220D4ED007A20EE280A40EE097A94ED020A07
S31508000230C4ED007A07F0E4F8D4ED017A20EE280A36
S3150800024040EE097AC4ED017AA06805F0F3FD38A3FB
S31508000250D3E9002306460F4606F0D4F8002853D003
S3150800026035A3D3E900233046394605F083FC06F06A
S31508000270D3F8A06000F040FE84ED030A00F042FEC9
S3150800028084ED040A6C46684600F0F6FB0FCC324D46
S315080002900FC594E8030085E8030007B0BDEC048B9E
S315080002A0F0BDC8EE889A94ED020A28EE098A38EE5F
S315080002B0000A07F0A5F8F0EE408A94ED020A07F066
S315080002C09FF8D4ED007A78EEC08A94ED020A48EEDB
S315080002D0A97A38EE000AC4ED007A07F045F8F0EE80
S315080002E0408A94ED020A07F03FF8D4ED017A78EED9
S315080002F0C08A48EEE97AC4ED017AD4ED027A77EE3F
S31508000300887AC4ED027A9FE730460DA3D3E9002325
S31508000310394606F059F80028ACD007A3D3E90023DC
S315080003203046394605F028FCA1E700BFAFF3008048
S31508000330182D4454FB210940182D4454FB2119401B
S31508000340182D4454FB2109C08811002048E1BA3E03
S31508000350BD378635CDCCCC3DA41100200000000069
S315080003602DE9F04F2DED028BE7B0514CDFED518AA8
S31508000370D4ED027A67EEA87A17EE900A05F05AFDD0
S3150800038049A3D3E9002305F0D7FE06F045F808EEA1
S31508000390100AB4EEE88AF1EE10FA76DDDFED467A59
S315080003A038EE678A94ED000A03210EA800F0C0FD16
S315080003B094ED010A032112A800F0BAFD1AAE94EDD5
S315080003C0020A032116A800F0B3FD1EAF0321B0EE02
S315080003D0480A304600F0ACFD0DF1880894ED030A92
S315080003E00321384600F0A4FD0DF1980994ED040A9E
S315080003F00321404600F09CFD94ED050A032148467A
S3150800040000F096FD94ED060A00240DF1A80A0321D2
S3150800041050462A4D00F08CFD0DF1E80B2EAAB5ECDE
S31508000420010A1019032100F083FD0BEB04000321D8
S3150800043095ED020A103400F07BFD302C2EAAEED181
S3150800044042AB0C933EABCDE90AB336AB099332AB5C
S31508000450CDE9072316AB019312AB194A8021009305
S31508000460CDE9059A0EABCDE90378029646A806F0C3
S315080004701DFB46A809F07BF881B246A800F0C6FD28
S3150800048067B0BDEC028BBDE8F08FDFED0E7AB4EEF7
S31508000490E78AF1EE10FA44BFDFED077A38EE278ACD
S315080004A080E700BFAFF30080182D4454FB210940B4
S315080004B088110020000034430000B443A411002032
S315080004C09EA40008000034C30348044B834202D0AC
S315080004D0034B03B118477047E0160020E0160020CA
S315080004E000000000064B0749C91A891048BF0131A8
S315080004F0491003D0044B0BB101481847704700BF99
S31508000500E0160020E01600200000000010B5064C9A
S31508000510237843B9FFF7D8FF044B13B10448AFF368
S3150800052000800123237010BD04160020000000007F
S31508000530D0B1000808B5054B1BB105490548AFF30E
S315080005400080BDE80840FFF7CDBF00BF00000000EF
S3150800055010100020D0B10008A3F5803A704700BFFC
S31508000560174B002B08BF134B9D46FFF7F5FF0021DD
S315080005708B460F461348144A121A08F0E0FF0E4B32
S31508000580002B00D098470D4B002B00D09847002031
S31508000590002104000D000D48002802D00C48AFF3D6
S315080005A0008006F01DFB2000290008F05AF906F025
S315080005B013F900BF0000080000000000000000005A
S315080005C00010002000100020301600200000000057
S315080005D000000000064B1B681A7A022A04D812B1DA
S315080005E01B68044A13607047032AF9D0704700BF96
S315080005F0301600202810002070B5A8B0234D12AC84
S315080006000FCD0FC495E80700292384E80700204A80
S315080006100024CDE903231F491F4BCDE90944CDE941
S3150800062005134FF480230B94089319AD08AE0FCE2B
S31508000630CDE90E44079410940FC5184B0DAE2B60E8
S31508000640174B1EAD0D930FCE0FC52020154B12AAC2
S315080006502B60154B19A92393144B2694CDE9240333
S31508000660134B14482793144B009303AB05F0F6F885
S31508000670044618B19B21114808F0E8FC00214FF404
S31508000680E13008F03FF9204628B070BDCCA3000839
S3150800069000000A50000500060009000824000A5058
S315080006A0020004003C000A50051600200101010062
S315080006B044160020E01000202C10002098A3000803
S315080006C008B5FFF799FF28B1BDE80840CB210248D5
S315080006D008F0BCBC08BD00BF98A30008014805F097
S315080006E077B900BFE0100020034BD3F8A43023FAF3
S315080006F000F000F00100704700C0035008B50B2851
S3150800070023D8092824D90A20FFF7EEFF02460B2032
S31508000710FFF7EAFF214940EA42000B6840EA8303F3
S315080007200D2B0CD00E2B0ED8012202FA03F344F23D
S31508000730821213420DD140F61402134203D0184A0E
S315080007401368013B1360086002E00C38012804D9DD
S3150800075008BD134A13680133F4E70C20FFF7C4FFFA
S3150800076002460D20FFF7C0FF0E4940EA42000B681B
S3150800077040EA83030D2B0CD00E2BE4D8012202FA93
S3150800078003F344F28212134205D140F614021342CF
S31508000790D9D0054AD4E7044ADCE700BF181100207F
S315080007A008110020141100200411002070B509F06A
S315080007B0A5FB244C0546D4E9000303430E4602D1A3
S315080007C0C4E9005170BD281A09F0C4FB07EE900A67
S315080007D0DFED1D6AF8EE677A87EEA67ADFED1B7AFB
S315080007E0B4EEE77AF1EE10FAECD4194BC4E90056E8
S315080007F01D68184C184BDFED195A186822689FEDCA
S31508000800186AAA1A07EE902AF8EEE77AC7EEA56ADA
S3150800081066EE867A1349C7EE876A0B68124AC31AC8
S3150800082007EE903AF8EEE77AC2ED006AC7EEA56AD7
S3150800083066EE867AC7EE876A0C4B2560C3ED006ABA
S315080008400860BFE70010002000007A44CDCCCC3DFC
S315080008500411002010110020081100200000F044A7
S315080008607BD9A03E0C11002000110020FC100020AE
S3150800087013B501213A2001F0E3FE08F02BFC022211
S31508000880012310460A2103F049FA022201231046E1
S315080008900B2103F043FA0222012310460C2103F030
S315080008A03DFA0222012310460D2103F037FA0A20E9
S315080008B0FFF71AFF02460B20FFF716FF324B40EAF6
S315080008C0420018600C20FFF70FFF02460D20FFF7C5
S315080008D00BFF40EA42004FF0FF322C4B0124186010
S315080008E02B4B0220C3F820240A2223461146CDE9C1
S315080008F0004403F0A3F90B2223461146CDE9004430
S31508000900022003F09BF90C2223461146CDE9004448
S31508000910022003F093F90D222346CDE900441D4C2D
S315080009201146022003F08AF921460A2001F0B8FA96
S3150800093021460B2001F0B4FA21460C2001F0B0FA4A
S3150800094021460D2001F0ACFA4FF48062124B2720A5
S31508000950C3F824244FF40062C3F824244FF48052C9
S31508000960C3F824244FF40052C3F8242404F07EFA72
S31508000970272004F049FA282004F078FA282002B043
S31508000980BDE8104004F040BA1811002014110020E8
S3150800099000E00350FD06000800D00350014B93ED1C
S315080009A0000A7047FC100020014B93ED000A7047BF
S315080009B00011002030B52DED028B83B0B5EEC00ACC
S315080009C0F1EE10FA04464CBF4FF0FF35012506F04C
S315080009D00FFDF0EE080AB0EE408AB2EE040A06F001
S315080009E065FCB6EE007AC7EE007A37EE880AFDEEA9
S315080009F0C08AF8EEE87AF0EE080A30EE678AB2EEB8
S31508000A00040A06F053FC28EE000A0323BDEEC00ACA
S31508000A1009490A4A0093B5F1FF3F08BF0A468DED1A
S31508000A20010A18EE903A2046054906F073F803B015
S31508000A30BDEC028B30BD00BFE8A30008D0A40008B7
S31508000A40EAA3000808B54FF48062084B1A6400F060
S31508000A5011FB08F028F80649064808F020F9BDE811
S31508000A60084001221146104608F0E3B800D00350AA
S31508000A701C110020281100202DE9F041A4B06E4673
S31508000A808046684607F05BFF03A807F088FF03ADBA
S31508000A9006AB2846B44600221C46184F1849B7EC40
S31508000AA0017AFCEC017A77EEC77AB1EC017AE3ECCD
S31508000AB0017AF0EC017A77EEC77A0132032AC3EDA0
S31508000AC0027AECD100270CABD819B6EC010AFFF76D
S31508000AD071FF18ABD819B5EC010A1037FFF76AFF92
S31508000AE0302FF0D10FCC45460FC594E8030085E8B2
S31508000AF00300404624B0BDE8F08100BF281100205D
S31508000B001C11002038B50A4B044633F810300D4640
S31508000B10CB40DB0704D440F28541064808F096FA34
S31508000B20302301225C43044BAA401A5138BD00BF4A
S31508000B3096A40008F6A3000840D0035038B50A4B1F
S31508000B40044633F810300D46CB40DB0704D440F298
S31508000B505641064808F07AFA302301225C43044BD2
S31508000B60AA401A5138BD00BF96A40008F6A300088B
S31508000B7040E0035070B5074C0646236B0D46DB076D
S31508000B8004D440F24231044808F060FA04EB4614F3
S31508000B90A56670BD0080045045A4000870B52DED0B
S31508000BA0028B88B000250326324C0F2200210DF156
S31508000BB0110008F0C4FC0D220021684608F0BFFCAD
S31508000BC0204604A98DF810508DF8066003F0CEFA79
S31508000BD0294B2A4AC3F8E066C3F8E42602F58032B0
S31508000BE0C3F8E82629466A46204603F00BFB6A4600
S31508000BF00121204603F006FB242001F047FD4FF4AF
S31508000C007A73B0FBF3F51E4E3560236BDB0704D40D
S31508000C1040F2BE411B4808F019FAE561D6ED007AA4
S31508000C20194BF8EE677A93ED007A9FED188A67EE0E
S31508000C30877A87EE887AFCEEC77A002017EE901A34
S31508000C40FFF798FFD6ED007A114BF8EE677A93ED29
S31508000C50007A67EE877A87EE887AFCEEC77A0120F3
S31508000C6017EE901AFFF786FF0123E36008B0BDEC84
S31508000C70028B70BD0080045000C0035003000800BA
S31508000C803C11002045A40008841100200000C84239
S31508000C908011002008B52DED028BDFED148A9FED3B
S31508000CA0148A07F044FD07F04DFDFFF777FFB0EE15
S31508000CB0682AF0EE481AB2EE021ADFED0E0A9FED28
S31508000CC00E0A0E4807F093FDB0EE682AF0EE481AB1
S31508000CD0BDEC028BBDE808409FED091ADFED090A55
S31508000CE09FED090A094807F082BD00BF0000C84207
S31508000CF00000C8C2CDCC5C410000824260110020D1
S31508000D0033330B41333363410000844240110020E2
S31508000D10F8B52DED048BFFF741FEF0EE409AFFF78C
S31508000D2043FE454C454B94ED001AB0EE409AF0EE62
S31508000D30690A93ED000A424807F067FDF0EE408A1B
S31508000D40404B94ED001A93ED000AF0EE490A3E482E
S31508000D5007F05BFDF5EEC08AF1EE10FAB5EEC00AB3
S31508000D60ACBF01254FF0FF35F1EE10FA374FA8BF9B
S31508000D70012497F90030B8BF4FF0FF34AB42B0EE0C
S31508000D80408A12D0B0EE690A06F032FBDFED307AFF
S31508000D90B4EEE70AF1EE10FA07DD00210846BDECCD
S31508000DA0048BBDE8F840FFF7E5BE2A4E96F90030F9
S31508000DB0A3420DD0B0EE490A06F01AFBDFED247AFD
S31508000DC0B4EEE70AF1EE10FA02DD00210120E6E7AB
S31508000DD0284607F0DEFC204607F0F2FCB0EE680A6B
S31508000DE034703D7006F004FB1B4CF0EE408AB0EE02
S31508000DF0480A06F0FDFAD4ED007AF8EE677A67EE4F
S31508000E00A87ADFED168A87EEA87AFCEEC77A002064
S31508000E1017EE901AB0EE408AFFF7ACFED4ED007AD2
S31508000E20F8EE677A27EE880AC0EE287AFCEEE77AAB
S31508000E3017EE901ACAE700BF5C160020381100208A
S31508000E40601100203411002040110020D516002022
S31508000E508FC2753DD41600203C1100200000C84200
S31508000E6030B587B00023214D01930122286801ABD4
S31508000E700DF1020108F0D7F90446002833D1019B89
S31508000E80012B30D19DF80230AA2BEED104A928688F
S31508000E9001ABC4F10802214408F0C5F918BB019B4F
S31508000EA00BB31C44072CF1D90122286801AB0DF1BC
S31508000EB0030108F0B8F9B0B9019B012B13D19DF8CD
S31508000EC00330552B0FD1042204A902A808F042FBCF
S31508000ED0042205A903A808F03DFB054B029A1A60EF
S31508000EE0044B039A1A6007B030BD00BF581600209D
S31508000EF03811002034110020014B93ED000A704789
S31508000F0038110020014B93ED000A70473411002078
S31508000F10054B064A1A605A6000229A60DA601A611E
S31508000F205A619A61704700BF88110020000020416D
S31508000F3070B52DED048B82B0B5EEC00A0C46F1EE05
S31508000F4010FA05464CBF4FF0FF36012606F050FA58
S31508000F5007EE904AB8EEE79AB0EE408AF0EE490AF4
S31508000F60B2EE040A06F0A2F9B6EE007AC7EE007AE7
S31508000F7037EE880AFDEEC08AF8EEE87AF0EE490AFE
S31508000F8030EE678AB2EE040A06F090F928EE000AF7
S31508000F90BDEEC00A09490A4A8DED010AB6F1FF3FBE
S31508000FA008BF0A4618EE903A28460649009405F006
S31508000FB0B1FD02B0BDEC048B70BD00BFE8A300080C
S31508000FC0D0A40008EAA3000810B504F017FD002312
S31508000FD00B4C194620680222806805F0B3FC0023F2
S31508000FE0206819460222406805F0ACFC054B1868D3
S31508000FF003F08EFF08F082FF034BC3E9000110BD22
S315080010008016002058160020081000202DE9F0410F
S3150800101005460E4608F072FF04460B4F88463868A8
S31508001020201A08F097FF68B1324629460020C7E91A
S31508001030004808F0E7F8BDE8F0410222002003491D
S3150800104008F0E0B8BDE8F08108100020CEA400083A
S3150800105008B5044809F0C9F807F03EFBBDE80840A2
S3150800106000F03CB9BCAB0008014809F0BEB800BFA7
S31508001070BCAB000870B592B0294E05AC35460FCD0D
S3150800108006F114050FC40FCD0AAC0FC495E80F007E
S3150800109084E80F00234B244807930AAB09934FF4BF
S315080010A08073ADF82C3009F0A0F8204809F09DF8B7
S315080010B00421B38E0DEB01000022ADF8043000F0D8
S315080010C049FBF38E0022042102A8ADF8083000F08F
S315080010D041FB338F0022042103A8ADF80C3000F041
S315080010E039FB02230122042104A8ADF8103000F0D0
S315080010F031FB0F4805A902F00DFC0E4B0E4A0020E5
S31508001100C3F8CC244FF00212C3F8C424A2F58032E7
S31508001110C3F8C8241C22C3F8B42412B070BD00BF9B
S3150800112030A50008A05A3200C0AB0008BCAB0008C6
S3150800113000C0085000C003500200030038B504463A
S31508001140084D012007F0ECFB7621284608F006F842
S315080011502146284608F002F8002007F0E1FB0020A7
S3150800116038BD00BF00C0085070B50546C0F3C710AB
S315080011700E46144665F07F05FFF7E0FF012007F0ED
S31508001180CFFBE9B2094807F0E9FF084D2644B44207
S3150800119004D1002007F0C4FB002070BD00212846BA
S315080011A007F0DCFF04F8010BF1E700BF00C00850A8
S315080011B013B5012104460DF107025020FFF7D4FFAD
S315080011C09DF8073003F0E003402B8DF8073012D066
S315080011D009D89BB1202B14D00B4840F23D2107F0CB
S315080011E035FF012005E0602BF6D14FF06253002051
S315080011F0236002B010BD4FF06453F8E74FF0685310
S31508001200F5E74FF06653F2E7D1A4000813B50121BC
S3150800121004460DF107024F20FFF7A6FF9DF8073099
S3150800122003F0E003802B8DF807301CD010D8402B34
S315080012301BD009D8DBB1202B1BD0114840F27221F4
S3150800124007F004FF01200CE0602BF6D10D4B06E0F9
S31508001250C02B10D0E02B10D0A02BEED10A4B0020CB
S31508001260236002B010BD094BF9E7094BF7E7094BB4
S31508001270F5E7094BF3E7094BF1E7094BEFE700BF41
S31508001280D1A400080000FA3B0000FA3A00007A3BB5
S3150800129000007A3C00007A3D0000FA3C00007A3AE9
S315080012A00000FA3970B504460D460B4EC0F3C71058
S315080012B0FFF744FF012007F033FB04F07F013046B7
S315080012C007F04CFF2946304607F048FF002007F094
S315080012D027FB002070BD00BF00C008502DE9F0476D
S315080012E096B0544E09AC35460FCD0FC42B6806F19F
S315080012F0140523600EAC0FCD0FC495E80F00DFF878
S315080013004C8184E80F004C4808F06FFF404608F00F
S315080013106CFF4FF48073494FADF83C30484B384664
S315080013200B9309A90EAB0D9302F0F4FA04214FF4BE
S31508001330E065B6F834A00DEB01000122ADF804A073
S3150800134000F008FAB6F836900022012102A8ADF896
S31508001350089000F0FFF9368F0122042103A8ADF8A2
S315080013600C6000F0F7F90122042104A8354CADF809
S31508001370105000F0EFF9344B4FF44870C4F8C834F5
S315080013804FF00213C4F8C43403F58033C4F8CC34E0
S315080013901C23C4F8B43404F0BDFB08A8ADF82050EB
S315080013A000F04CFA142004F0B5FB08A8ADF820505C
S315080013B000F014FA232004F0ADFB08A8ADF820507D
S315080013C000F03CFAB921384607F0C8FE08A8ADF87F
S315080013D0205000F003FA002205A81146ADF814A023
S315080013E000F0B8F9002206A81146ADF8189000F0EA
S315080013F0B1F90122002107A8ADF81C6000F0AAF98E
S315080014000122002108A8ADF8205000F0A3F93846BB
S3150800141002F034F900234046C4F8B434C4F8C8349A
S31508001420C4F8C434C4F8CC3408F0E2FE16B0BDE8FB
S31508001430F08700BF6CA50008BCAB000800C00850C8
S31508001440E070720000C0035002000100C0AB000843
S315080014500348044A0449121A921007F0EABD00BF6D
S31508001460B4010008B40100083016002008B5154B71
S3150800147083F30A8800F030F8FFF7EAFF124B1349A6
S315080014808B4212D30020124B12498B4218D3FFF716
S3150800149067F8186850F82240586840F82240013228
S315080014A098688242F5D30C33EAE70022F8E71C680D
S315080014B044F8220001325C68A242F8D30833E4E714
S315080014C00022F8E700000020D8B10008E4B10008BF
S315080014D0E4B10008E4B1000870B54FF48041144B3C
S315080014E0144A154D9A60D3F8882005F5005442F43D
S315080014F07002C3F88820114A91664FF0FF322266BF
S315080015006FF4003262660D22A2660222C3F8D0206A
S31508001510BFF34F8FBFF36F8F4FF44036002003F0B1
S31508001520A5FC0020E66003F06FFC2E6170BD00BFCD
S3150800153000ED00E000000008008000440090005024
S31508001540014B1860704700BF64160020054B1860F1
S31508001550054B1B6F03F00703032B01D108F030BAC4
S31508001560704700BF6C1600200080005038B504464E
S315080015700D4601B118B94521044807F067FD2368EF
S3150800158013B92B60256038BD1C46F8E7A6A50008E8
S3150800159010B5044618B95621044807F057FD2068C7
S315080015A018B1036823600023036010BDA6A50008D0
S315080015B007B500232948019308F017FE4FF4407336
S315080015C0012204216846ADF8003000F0C3F8012274
S315080015D0234B0520C3F8442401A908F001FE00287E
S315080015E039D1204BD3F8F02042F00102C3F8F0209D
S315080015F0D3F8FC2042F08072C3F8FC201A4AA3F5FF
S315080016005D431A60019B194A03F5D52303F2FC438F
S31508001610B3FBF2F3164A013B13610223C2F8F0301A
S315080016204FF48073C2F804334FF06043114AC3F88D
S31508001630B02F114AC3F8802ED3F8002E42F48072D8
S31508001640C3F8002EFF2283F82020D3F8002E22F4B8
S315080016508072C3F8002E03B05DF804FBBCAB00082B
S3150800166000D0035000ED00E0FF030040F8590D00DC
S31508001670000004E055CEACC50900010030B54FF0B6
S315080016806043D3F8802ED20715D501240B4D84402C
S31508001690D5F8FC2042F08072C5F8FC20D3F8002E5D
S315080016A02243C3F8002E53F82020002AF0D003F86E
S315080016B02010002030BD1120FCE700BF00ED00E03F
S315080016C02DE9F0410C2504464FF00108124E0CB3E3
S315080016D014F001000BD0002024F0010405FB006281
S315080016E05768002FF3D09168C0B2B847EFE7224693
S315080016F0013020284FEA520201D0D307F8D508FA5C
S3150800170000F20F2824EA0204E8D9103805FB006223
S31508001710B432E5E7BDE8F081BC11002008B50C48F5
S3150800172008F063FD272003F089FB28B1272003F082
S315080017309DFB272003F068FB282003F07FFB28B1D8
S31508001740282003F093FB282003F05EFB002008BD49
S31508001750BCAB00082DE9F0410E469046044638B960
S3150800176093211C4807F072FC22252846BDE8F08123
S315080017700F290DD803782BB1012B0FD0022B10D0CF
S31508001780032B05D140F2FF736278D340DB070BD4F5
S315080017909721104807F05AFC2125E6E740F2FF1387
S315080017A0F2E743F6FF73EFE70B4BD3F810532DB16F
S315080017B09B21084807F04AFC0225D6E708F00AFDEF
S315080017C0074642462046314602F080FF384608F072
S315080017D0FCFCCAE7F7A5000800C0035038B5044664
S315080017E028B91548E42107F031FC222038BD0378D2
S315080017F02BB1012B0FD0022B10D0032B05D140F2B1
S31508001800FF736278D340DB070BD40B48E82107F057
S315080018101DFC2120EAE740F2FF13F2E743F6FF73C7
S31508001820EFE708F0D7FC0546204608F09FF928465A
S3150800183008F0CBFC0020D9E7F7A5000838B5044620
S3150800184028B91648FC2107F001FC222038BD037888
S315080018502BB1012B10D0022B11D0032B05D140F24E
S31508001860FF736278D340DB070CD40C484FF48071C1
S3150800187007F0ECFB2120E9E740F2FF13F1E743F616
S31508001880FF73EEE708F0A6FC0546204602F096FE32
S31508001890284608F09AFC0020D8E700BFF7A50008FC
S315080018A02DE9F0410D4616469846044600B139B969
S315080018B031484FF4E07107F0C9FB2220BDE8F081FA
S315080018C00278DAB1012A1DD0022A0AD0032A15D0D5
S315080018D0FF2A0CD04FF4E271274807F0B7FB212006
S315080018E0ECE743F6FF734278D340DA07F2D5022EC7
S315080018F00CD9042E0AD04FF4E471EDE740F2FF73D9
S315080019006278F1E740F2FF134278EDE708F062FCEF
S3150800191023780746FF2B05D032462046296802F071
S3150800192041FF28602B68013309D12378FF2B06D1A4
S31508001930124B6078D3F8241407F044FC2860296811
S315080019404B1C14D00C230E4A03FB0122069BC2F83B
S31508001950048093602378FF2B04D00123094A8B4027
S31508001960C2F82434384608F030FC0020A6E738468A
S3150800197008F02BFC2D20A1E7F7A5000800C00350AE
S31508001980BC11002000D003502DE9F0410D469046C9
S315080019901F46044600B139B929484FF40B7107F0C0
S315080019A055FB2220BDE8F081017800293AD00129AB
S315080019B03CD002290AD0032934D0FF290CD020486C
S315080019C040F2312107F042FB2120EBE743F6FF7393
S315080019D04278D340DA07F2D508F0FCFB23780646AE
S315080019E0FF2B05D042462046296802F0CFFF286023
S315080019F02A68531C1ED00C23124903FB0211069BAE
S31508001A00C1F8B870C1F8BC302378FF2B05D0012384
S31508001A10103293400C4AC2F82434304608F0D5FBFD
S31508001A200020BFE740F2FF736278D2E740F2FF1367
S31508001A304278CEE7304608F0C8FB2D20B2E700BF53
S31508001A40F7A50008BC11002000D0035008B502F025
S31508001A50E3FD054B00F0553020F0A040C3F8200404
S31508001A60BDE80840FFF72CBE00E0035008B502F0B9
S31508001A70D3FD054B00F0AA3020F02040C3F820041F
S31508001A80BDE80840FFF71CBE00E003502DE9F04F03
S31508001A9085B09A46554B06461B780F461546DDF81F
S31508001AA03C909DF844B0DDF85080002B00F09780FC
S31508001AB0072A00F296800E9B002B00F09280B9F15F
S31508001AC0000F00F08E80129BB3F5006F00F389803B
S31508001AD0012803D1109B002B00F08380444B03EBB5
S31508001AE005131B7B002B7ED0424C10220021684632
S31508001AF007F025FD04EB45141022A7BB39462046FE
S31508001B0007F01DFD43F210036380BBF1000F03D1FC
S31508001B10E37843F00303E370364A0E9B02EB451C59
S31508001B20CCE90193129B6901581E9DF84C30C0F30D
S31508001B300A0003F003039B0643EA001E53582E4887
S31508001B40012E00EA03004EEA0003CDF800A0535028
S31508001B5017D0B8F1000F2ED19CF8023068F30413A1
S31508001B608CF8023027E00021204607F0E8FC4FF405
S31508001B7044736380BBF1000FCED1E37843F03003A2
S31508001B80C9E713230CF1100ECCF80C309CE80F00B3
S31508001B908EE80F006FF00301DCF81C20109B61F340
S31508001BA09F02012FCCF81C20CCF8143003D1CCF8B6
S31508001BB01890CCF8043000270D4A290102EB0513CA
S31508001BC042F80180159A28465A60694622469F605F
S31508001BD05E7302F06BF9384605B0BDE8F08F07482A
S31508001BE0FAE70748F8E70748F6E700BF2516002092
S31508001BF024140020241300200F80FFF3028000F035
S31508001C00018000F0078000F038B5124B05461B78B6
S31508001C10DBB1E0B108F0DEFA0F4A00231146147B67
S31508001C2054B92B6001251A0101EB03131D738C505F
S31508001C3008F0CBFA204638BD0133082B02F1100212
S31508001C40EDD108F0C2FA0548F5E70548F3E7054877
S31508001C50F1E700BF2516002024140020048000F0B8
S31508001C60028000F0018000F038B508F0B3FA0023CE
S31508001C7005460B4A147B6CB90133082B02F1100296
S31508001C80F8D102F095F8074B28461C7008F09DFA23
S31508001C90204603E0284608F098FA034838BD00BFF6
S31508001CA02414002025160020058000F010B50D4BE1
S31508001CB004461B7893B1072812D808F08BFA0A4B0A
S31508001CC003EB04131A7B2AB100241C7308F07DFA6F
S31508001CD0204610BD08F079FA0448FAE70448F8E700
S31508001CE00448F6E72516002024140020068000F094
S31508001CF0028000F0018000F013B5154B1868002328
S31508001D0001908DF8043008F065FA124B1C7824B15E
S31508001D1008F05BFA104802B010BD01221A7008F0EC
S31508001D2054FA0E4B01A81C731C7783F82C4083F8D1
S31508001D303C4083F84C4083F85C4083F86C4083F859
S31508001D407C4008238DF8073002F068F82046E2E761
S31508001D504CA6000825160020038000F02414002055
S31508001D60F8B50D4D2D7885B1072810DC0B4D060109
S31508001D7005EB0014277B67B1AB510025069BA560D0
S31508001D80636002F093F82846F8BD0548FCE7054865
S31508001D90FAE70548F8E700BF2516002024140020B6
S31508001DA0028000F0018000F0078000F008B50A4ABA
S31508001DB012785AB107280BD8084A02EB00131B7B86
S31508001DC043B1002102F00AF8002008BD0448FCE7E8
S31508001DD00448FAE70448F8E72516002024140020EA
S31508001DE0028000F0018000F0078000F008B50A4A7A
S31508001DF012785AB107280BD8084A02EB00131B7B46
S31508001E0043B1012101F0EAFF002008BD0448FCE7C0
S31508001E100448FAE70448F8E72516002024140020A9
S31508001E20028000F0018000F0078000F02DE9F04103
S31508001E30174B1F6D5B6D1F4000D5FEE70126002579
S31508001E40144CDFF85880374218D02368C8F8506019
S31508001E50A3B1A168284601316268A1609847637BEF
S31508001E60012B0BD150B90C4B03EB45131A7B60F3CE
S31508001E7041021A731A7F60F341021A770135082D59
S31508001E804FEA460604F11004DDD1BDE8F08100BF33
S31508001E9000000450241400202413002000200450BD
S31508001EA01FB54FF6FF730F28ADF80830039009DC0D
S31508001EB000910022084B03A902A8FFF7F1FC05B020
S31508001EC05DF804FB1038039000910022024B03A929
S31508001ED002A8FFF759FDF2E7CF900008044BD3F8A4
S31508001EE08420D206FBD4D3F88400C0F3811070474F
S31508001EF00040005038B5104B0546D3F800310C4663
S31508001F0003F00303022B0BD0032B0DD0012B0FD1AB
S31508001F1007F070FD032305B1286004B1236038BDBE
S31508001F2007F0BAFD0923F6E707F06AFD0823F2E78A
S31508001F3001230020EFE700BF0080005038B5104BA2
S31508001F400546D3F840310C4603F00303022B0BD0A9
S31508001F50032B0DD0012B0FD108F028F90A2305B160
S31508001F60286004B1236038BD07F096FD0923F6E71B
S31508001F7008F01FF90C23F2E701230020EFE700BF62
S31508001F800080005038B5104B0546D3F860310C4632
S31508001F9003F00303022B0BD0032B0DD0012B0FD11B
S31508001FA008F004F90A2305B1286004B1236038BD96
S31508001FB007F072FD0923F6E708F0FBF80C23F2E7B1
S31508001FC001230020EFE700BF0080005038B5104B12
S31508001FD00546D3F840320C4603F00303022B0BD018
S31508001FE0032B0DD0012B0FD108F0E0F80A2305B119
S31508001FF0286004B1236038BD07F04EFD0923F6E7D3
S3150800200008F0D7F80C23F2E701230020EFE700BF1A
S315080020100080005038B5124B0546D3F880300C4680
S3150800202003F00303022B0BD0032B0DD0012B0FD18A
S3150800203007F0A6FC0E2305B1286004B1236038BD5D
S3150800204007F0E2FC0723F6E707F094FC0623F2E71D
S31508002050044841F2142106F0F9FF00231846EAE77E
S315080020600080005050A6000838B51A4B0546D3F82C
S3150800207020010C4600F00700062821D8DFE800F00A
S3150800208028040C1410181C0007F074FC052305B16D
S31508002090286004B1236038BD07F0ACFC0323F6E7DB
S315080020A007F0B2FC0723F2E707F0A0FC0223EEE7ED
S315080020B007F060FC0623EAE707F09CFC0423E6E742
S315080020C0054841F2912106F0C1FF00231846DEE7D4
S315080020D00123DCE70080005050A6000838B5194BEC
S315080020E00546D3F828310C4603F00703013B052BB8
S315080020F020D8DFE803F003131B0F0B1707F03AFC91
S31508002100052305B1286004B1236038BD07F032FC09
S315080021100623F6E707F078FC0723F2E707F06AFCE0
S315080021200323EEE707F066FC0423EAE707F05EFC04
S315080021300223E6E7044841F2990106F087FF0023E7
S315080021401846DEE70080005050A6000837B5002381
S315080021500193194B0546D3F820320C4603F00703C2
S31508002160042B1FD8DFE803F025030F1419000021FC
S3150800217001A8FFF7B3FF12230DB1019A2A6004B133
S31508002180236003B030BD07F03FFC07230190F3E757
S3150800219008F00CF80A230190EEE707F07DFC092306
S315080021A00190E9E741F25601044806F04FFF002383
S315080021B0E2E70123E0E700BF0080005050A60008D0
S315080021C0F7B50027144B0197D3F88041064604F06B
S315080021D00304022C0D4614D0032C0DD0012C14D167
S315080021E0394601A8FFF740FF10240EB1019B336062
S315080021F005B12C6003B0F0BD07F006FC072401907A
S31508002200F3E707F0F3FB0190EFE741F2E631034805
S3150800221006F01CFF3C46E8E70080005050A6000880
S3150800222038B5164B0546D3F800020C4600F00700F1
S31508002230042819D8DFE800F020030B0F130007F075
S31508002240B5FF0A2305B1286004B1236038BD07F03D
S3150800225023FC0923F6E707F0ACFF0C23F2E707F0A7
S31508002260AFFB0F23800AEDE7054841F2A44106F0CB
S31508002270EDFE00231846E5E70123E3E7008000505A
S3150800228050A6000838B5164B0546D3F808020C4682
S3150800229000F00700042819D8DFE800F020030B0F28
S315080022A0130007F083FF0A2305B1286004B12360F1
S315080022B038BD07F0F1FB0923F6E707F07AFF0C2390
S315080022C0F2E707F07DFB0F23800AEDE7054841F2A8
S315080022D0DC4106F0BBFE00231846E5E70123E3E7E9
S315080022E00080005050A6000838B5124B0546D3F8B2
S315080022F050320C4603F00303022B0FD0032B05D0F4
S31508002300012B0FD107F052FF0A2302E007F051FF15
S315080023100C2305B1286004B1236038BD07F0BCFB67
S315080023200923F6E7044841F2C90106F08FFE0023A7
S315080023301846EEE70080005050A6000837B500237F
S315080023400193184B0546D3F860320C4603F0070391
S31508002350013B032B1FD8DFE803F0020E19140021F6
S3150800236001A8FFF781FE10230DB1019A2A6004B176
S31508002370236003B030BD002101A8FFF7DFFD11235C
S31508002380F2E707F041FB07230190EDE707F02EFB84
S3150800239002230190E8E741F2FD01034806F056FEE4
S315080023A00023E1E70080005050A6000837B5002357
S315080023B00193184B0546D3F894320C4603F00703ED
S315080023C0013B032B1FD8DFE803F0020E1914002186
S315080023D001A8FFF749FE10230DB1019A2A6004B13E
S315080023E0236003B030BD002101A8FFF7A7FD112324
S315080023F0F2E707F009FB07230190EDE707F0F6FA85
S3150800240002230190E8E741F23011034806F01EFE68
S315080024100023E1E70080005050A6000873B50024A9
S315080024200F4B0194D3F87032064603F00303012BD1
S315080024300D4607D0022B11D041F25B11094806F070
S3150800244005FE04E0214601A8FFF778FD11240EB128
S31508002450019B336005B12C6002B070BD1524F6E708
S315080024600080005050A6000808B5334B98424FD05C
S3150800247027D8324B984245D017D8314B98423ED090
S315080024800AD838B12F4B984239D041F2BB312E4881
S3150800249006F0DCFD002034E02C4B98422FD02C4B64
S315080024A09842F2D12B4B586E2BE02B4B98422CD0EE
S315080024B003F5371303F5D8639842E6D1254B986F91
S315080024C01FE0264B98422FD00CD8254B984223D094
S315080024D0244B984224D0244B9842D6D11D4BD3F88E
S315080024E084000EE0214B984222D003F5740303F5CD
S315080024F010539842C9D1174BD3F8980001E0154BF1
S31508002500986D08BD134B186FFBE7124B586FF8E729
S31508002510104BD3F88000F4E70E4BD3F88800F0E7A9
S315080025200C4BD3F88C00ECE70A4BD3F89000E8E79D
S31508002530084BD3F89400E4E780BA8C01405DC600E6
S3150800254080841E0040420F0050A6000800093D0086
S31508002550C0CF6A000080E00F0024F400007E560316
S3150800256080D54302006CDC020048E8010090D003E5
S3150800257010B5B0F5207F2ED009D8B0F5007F24D04D
S3150800258003D868B1B0F5C07F0AD000241BE0B0F5C7
S31508002590607FFAD1124BD3F88040C4F3011412E0DD
S315080025A00F4B1C6F230B13F00E0FC4F303340AD022
S315080025B0072C08D00F2C06D0032C04D04FF4227118
S315080025C0084806F043FD601C10BD054BD3F8904043
S315080025D0C4F30464F7E7024B1C6FC4F38024F2E7E4
S315080025E00080005050A6000838B54FF48032104BD2
S315080025F004469A6600200D46FFF7BAFF41F6713287
S315080026000C4B6043DC69DA635A6804F4803422F4BC
S3150800261040125DB90849884294BF00200120000590
S3150800262002435A600CB10022DA6338BD0349F2E767
S315080026300090005000000350005A6202002D31013C
S3150800264038B5420904460D4606D140F235310D48E3
S3150800265006F0FCFC002305E0531E022B0BD80A4BA0
S3150800266003EB820304F01F0445B103F580530122EE
S31508002670A2401A6038BD40F24331E8E703F500533B
S31508002680F5E700BF50A600086080005030B585B059
S315080026900021B0F5807F0446CDE9001100F00981DC
S315080026A06BD8002800F0D980A0F12004602C74D8DB
S315080026B0602C72D8DFE814F0D100DE00D100DE000D
S315080026C0EE00EE00EE00EE00EE00DE00F8007D0003
S315080026D00E019D007D00DE00DE00DE007100710047
S315080026E0710071007100710071007100DE00DE007A
S315080026F0DE00AF001801DE00710071007100710084
S315080027007100710071007100710071007100710033
S315080027101D01EE00D100D100D10013017D007D001E
S31508002720BB0022019200F300710071007100710074
S315080027307100C600D1007100EE00EE00EE00EE005A
S31508002740EE00F300F300DE007100DE00DE0071002B
S3150800275071007100710071007100710071007100E3
S3150800276071007100710071007100710071007100D3
S315080027707100710071007100CB00B0F5E06F00F0D8
S31508002780B3803BD8B0F5607F7FD01DD8B0F5007F09
S3150800279066D008D8B0F5C07F5FD040F2A4415C4847
S315080027A006F054FC56E0B0F5207F63D0B0F5407FC4
S315080027B0F3D107F005F904464FF42070FFF7D8FE69
S315080027C0B4FBF0F464085EE0B0F5B06F6CD00AD8DC
S315080027D0B0F5806F5ED0B0F5A06FDED100216846F7
S315080027E0FFF7B4FC36E0B0F5C06F73D0B0F5D06F24
S315080027F0D3D100216846FFF713FD2BE0B0F5186F1B
S3150800280077D00DD8B0F5086F7DD0B0F5106F66D0CB
S31508002810B0F5F06FC1D100216846FFF7B3FB19E0A8
S31508002820B0F5286F6AD007D8B0F5206FB5D100216A
S315080028306846FFF783FD0DE0B0F5406F2FD0B0F581
S31508002840486FAAD100216846FFF7B0FD02E007F0FD
S3150800285097F80090009805B030BD07F0B1F8F8E792
S3150800286007F08EF805462046FFF782FEB5FBF0F521
S315080028700095EFE707F0A4F804464FF42070FFF739
S3150800288077FEB4FBF0F40094E4E701A8FFF7C2FB77
S31508002890019DE8E700216846FFF7E6FBDAE7002135
S315080028A06846FFF71BFCD5E700216846FFF788FC5A
S315080028B0D0E74FF0E02302911B695B0705D507F0C7
S315080028C07FF80290029B0093C4E703A902A8FFF7CA
S315080028D035FBF7E700216846FFF730FBBAE700212A
S315080028E06846FFF7CFFCB5E700216846FFF76EFBA1
S315080028F0B0E700216846FFF7F7FCABE7002168461A
S31508002900FFF78CFDA6E76846FFF7F4FAA2E700BFD3
S3150800291050A6000808B58020FFF7B8FE034B98427A
S315080029209EBF4FF48032024B1A6708BD005A6202F6
S3150800293000A000501FB503460020B3F5807F019024
S3150800294000F0FB8000F28B80662B7BD83C2B05D8E9
S31508002950243B092B5CD940F28951DDE03D3B292B0C
S31508002960F9D801A252F823F05D2B00088B2B00083A
S315080029705729000857290008572900085729000829
S315080029805729000857290008572900085729000819
S315080029905729000857290008572900085729000809
S315080029A057290008952B0008312B000857290008DD
S315080029B05729000857290008C72A00085729000878
S315080029C057290008E12A00089F2B0008892A0008D1
S315080029D0812B00085729000857290008572900089D
S315080029E05729000857290008F92A00085729000816
S315080029F057290008312B0008312B0008312B000815
S31508002A00312B0008312B0008812B0008812B000888
S31508002A10092BA0D801A252F823F000BF312B0008D9
S31508002A20312B0008312B0008312B0008312B000808
S31508002A3057290008212B000857290008A72A00084B
S31508002A40672B0008802B86D1574B1B6F03F00703B3
S31508002A50013B032B5ED8DFE803F05B545759B3F507
S31508002A60F06F7BD024D8B3F5B06F59D011D8B3F531
S31508002A70607F00F08180FFF46EAFB3F5806F57D0AA
S31508002A80B3F5A06F7FF467AF002001A9FFF75EFBDF
S31508002A904AE0B3F5D06F66D0B3F5E06F75D0B3F5FD
S31508002AA0C06F7FF458AF002001A9FFF747FA3BE053
S31508002AB0B3F5186F6ED00BD8B3F5086F58D0B3F5C9
S31508002AC0106F7FF448AF002001A9FFF7DBFB2BE06E
S31508002AD0B3F5286F63D008D8B3F5206F7FF43BAF02
S31508002AE0002001A9FFF72AFC1EE0B3F5406F47D086
S31508002AF0B3F5486F7FF42FAF002001A9FFF756FC06
S31508002B0012E0052301930FE00323FBE70823F9E707
S31508002B100223F7E740F2D641244806F097FA03E085
S31508002B20002001A9FFF74CFB019805B05DF804FBEE
S31508002B30002001A9FFF798FAF6E74FF0E023029084
S31508002B401B695B0705D506F03BFF0D230393039B23
S31508002B50D8E703A902A8FFF7F1F9F8E7002001A9C9
S31508002B60FFF710FAE0E7002001A9FFF759FBDBE7BA
S31508002B7001A9FFF7BFF9D7E701A9FFF74BFAD3E792
S31508002B80002001A9FFF7AAFACEE7002001A9FFF75E
S31508002B901DFAC9E7002001A9FFF7A6FBC4E7002034
S31508002BA001A9FFF73BFCBFE70080005050A60008CC
S31508002BB04FF48032074B0849586E03F580535A661E
S31508002BC04B6A23F001034B62C3035CBF034B5A668F
S31508002BD0704700BF008000500000085000A0005059
S31508002BE038B5036804460F2B04D940F68A317C4869
S31508002BF006F02CFA63680F2B04D940F68D31784815
S31508002C0006F024FAA3680F2B04D94FF439617448E7
S31508002C1006F01CFA237B0F2B04D940F69331704833
S31508002C2006F014FA637B0F2B04D940F696316C48EC
S31508002C3006F00CFAA37B3F2B04D940F69931684875
S31508002C4006F004FAE37B3F2B04D940F69C3164482E
S31508002C5006F0FCF92369032B04D940F69F31604836
S31508002C6006F0F4F96369032B04D940F6A2315C48EF
S31508002C7006F0ECF9E369032B04D940F6A531584868
S31508002C8006F0E4F98020FFF755FE032800F083805C
S31508002C904FF48012534B4FF0A0615A6645F60E0268
S31508002CA0514BC3F88020514A91624FF4803102F5A6
S31508002CB0805291629A6DD203FCD4996D11F08041CD
S31508002CC0FBD1D4E90002120542EA0062E07B024326
S31508002CD0207B42EA0042607B42EA0032A07B42EA5D
S31508002CE080121A619869D4E90452120642EA85628A
S31508002CF000F000400243A07EE57E0243207E42EAC1
S31508002D000042607E42EA00229A611A6AE06922F06D
S31508002D100F0242EA8502364D00283DD11A6294F820
S31508002D202420996A94F82000D200294042EA4012E9
S31508002D300A4394F8211042EA011242F480329A6258
S31508002D402C49294A936D31EA0303FBD14FF0807170
S31508002D50264881621369A56823F4700343EA05537C
S31508002D6013614FF00043836194F822300BB9224B6C
S31508002D70996294F823303BB94FF480321E4B9A621D
S31508002D80194A936D5B00FCD494F825301BB1164B99
S31508002D901A4AC3F8802038BD024342F008020228C6
S31508002DA01A6208D119614FF40852996114484FF410
S31508002DB07F4106F091F90C4994F822308A6A94F812
S31508002DC020001B062A4043EA4013134394F82420A4
S31508002DD043EAC20394F8232043EA02438B62D3E70B
S31508002DE050A60008009000500040005A0050005AB3
S31508002DF0C7FFFEFE030001000060005AF1A7FFFFAF
S31508002E003440005A014B93F900007047D61600204B
S31508002E1010B543680446072B04D940F6E6512A48FC
S31508002E2006F014F9A368032B04D940F6E85126489E
S31508002E3006F00CF92378032B04D940F6EA51224808
S31508002E4006F004F994F90130002B04DA40F6EC5147
S31508002E501D4806F0FBF84FF400011C4A63785166DA
S31508002E604FF4D151022002F5B832516218494F2B5E
S31508002E7048604FF0010028BF4F2301F58051486094
S31508002E801169C903FCD4217843EA01235361D4E9C3
S31508002E9001131B0143EA0123617B0B43217B43EAB0
S31508002EA041039360E37BA17B1B0143EA4113617CE9
S31508002EB00B43217C43EA41035360A37C13B16FF4AF
S31508002EC0D153536210BD00BF50A6000800900050B1
S31508002ED000100250014B1880704700BFD216002020
S31508002EE0014B1880704700BFD016002008B54FF474
S31508002EF08002184B5A660223174A5360936813F4E4
S31508002F008033FBD1012822D106F074FD134B984279
S31508002F1015D003F5122303F5F863984213D0104B26
S31508002F2000EB8002400AB3FBF0F3520A0A49CA6270
S31508002F300B6301234B620022074B5A6008BD45F616
S31508002F407A13084AF2E745F61A03074AEEE7536288
S31508002F50F1E700BF009000500040025000F049021F
S31508002F6064666666D8B80500BBCF050038B5B0F507
S31508002F70207F77D00ED8B0F5007F61D003D890B304
S31508002F80B0F5C07F2FD04FF44671BDE838403D48B4
S31508002F9006F05CB8B0F5607FF5D13B4A4C1ED2F816
S31508002FA0FC5015F080751EBFD2F8FC3023F08073F4
S31508002FB0C2F8FC30032C04D940F2F721314806F058
S31508002FC045F8324AD2F8803023F0300343EA041336
S31508002FD0C2F8803035B12C4AD2F8FC3043F0807301
S31508002FE0C2F8FC3038BD4C1E012C0AD9102903D86A
S31508002FF0274BCB40DB0704D440F2CB21214806F00F
S3150800300025F806F078F806F084F84FF48031214B5D
S315080030101E4A1967136F23F4704343EA0433136790
S3150800302006F0CEFC0446FEF759FFC0F10201204621
S3150800303006F069F800F048F8BDE83840FFF76ABCC2
S315080030404C1E1F2C04D94FF443710E4805F0FEFFA1
S315080030500E4AD2F8903023F0F85343EA0463C2F8D4
S315080030609030BFE74C1E012C04D940F212310548B6
S3150800307005F0ECFF054A136F23F4806343EA8423C3
S315080030801367AFE750A6000800ED00E00080005087
S31508003090100101000090005008B50121022000F03F
S315080030A099F94FF42070FFF763FA054B187006F08C
S315080030B022F806F02EF84FF48032024B1A6708BD44
S315080030C0261600200090005008B54FF4C070FFF790
S315080030D0DDFABDE808400449884294BF012102216F
S315080030E04FF42070FFF742BF80F0FA0238B5044665
S315080030F006F066FC0546FEF7F1FEC0F10201284619
S3150800310006F001F80121002000F0B8F92CB1FFF70C
S31508003110DBFFBDE83840FFF7FDBB034B4FF42070DB
S315080031201978FFF723FFF4E7261600202DE9F0416A
S315080031300546FFF799F9431E0333044604D940F6BA
S31508003140E2113B4805F082FF4FF4C022394B5A661C
S3150800315003F598335A68012A04D137494A605A68F0
S315080031609207FCD48020FFF7E5FB052807D105F078
S31508003170C2FF05F0CEFF4FF480322E4B1A672F4B55
S3150800318024F040749D4239D02D4B9D4239D006F02B
S31508003190F1FB8542064603D90121284600F06EF95F
S315080031A0284FFB6813F0060FFBD1D7F80880BC60E0
S315080031B0BB68634013F4F81F26D12846FEF7C0F90A
S315080031C08020FFF7B7FB052814D106F0F9FBA842C3
S315080031D0044604D940F63B21154805F037FFFEF7AB
S315080031E07DFEC0F10201204605F08DFFFFF76CFF5A
S315080031F0FFF790FBAE4213D2BDE8F08144F00074AD
S31508003200C5E744F08074C2E740F62A21084805F06D
S315080032101DFF8020C7F80880FFF78CFB052805D01E
S31508003220BDE8F0410121002000F028B93546CCE779
S3150800323050A600080090005000E0015040420F00E0
S3150800324080841E000000015070B54E4B054698421A
S3150800325073D041D8A3F5B703A3F55863984265D050
S3150800326033D8494B494E984251D017D8002877D0C1
S3150800327041F2DE11464805F0E9FE40F686714448FB
S3150800328005F0E4FE4FF40022404B5A663E4B9D4241
S3150800329076D000243F4A954236D05DE03D4B9842B1
S315080032A027D03D4B9842E3D13C4BD3F8A040621E51
S315080032B0033224F040744CD940F68671344805F040
S315080032C0C5FE4FF400237366E4E7354B9842CFD129
S315080032D0324BD3F8BC402CE0324B984231D0324BBB
S315080032E0984232D0314B9842C2D12C4BD3F8C840C1
S315080032F01FE02A4BD3F8A040621E033224F0407424
S31508003300DAD84FF40023736644F0807424E0234B24
S31508003310D3F8A040621E033224F040742AD84FF432
S3150800332000237366234643F0007415E01B4BD3F85D
S31508003330B840621E154E0332BBE7184BD3F8C0409F
S31508003340F7E7164BD3F8CC40F3E7144BD3F8D04045
S31508003350EFE74FF4002373664FF0B442946070BDF4
S3150800336040F686710A4805F071FE4FF400232C4694
S315080033707366F1E740F68671054805F067FECEE705
S315080033800023D0E7C0EA210140420F000090005018
S3150800339050A6000880841E0000093D000080E00F4A
S315080033A00024F4000048E801005A620280BA8C0141
S315080033B0024A536B0342FCD1704700BF0080095094
S315080033C0034A0179D36E23F030030B43D366704763
S315080033D000400050F8B50446244BD3F88420D006A4
S315080033E0FBD4D3F88430C3F381139C423CD006F057
S315080033F0C7FA012C05460BD11D4B984204D940F259
S315080034008F711C4805F022FE0121284605F07BFE37
S3150800341006F0D7FE4FF00072174B07465A6620464D
S3150800342005F07CFE4FF48063104E621E93403367AE
S31508003430736E9A0103D4D6F884309B060AD53846AB
S3150800344006F0BAFE022C0FD12846BDE8F840002146
S3150800345005F059BED6F884309906E9D540F2A77129
S31508003460044805F0F3FDE3E7F8BD00BF004000504F
S31508003470005A62029EA600080060005010B50C466D
S3150800348008B906F07DFA074B21461B783BB1064B77
S31508003490984204D80120BDE81040FFF79BBF0220E0
S315080034A0F9E700BF27160020005A620238B54FF028
S315080034B00042244B244C5A664AF6CD33656C0146C5
S315080034C005F00105236428BB0120FFF771FF636837
S315080034D0DB0715D51D4B586008461D4B226BD207D6
S315080034E00CD4984208D1072415B1174B194A1A6407
S315080034F005F015FE204638BD0130EFE79842F2D0B8
S315080035000024F1E70132236B13F0080305D08A4241
S31508003510F8D1E8E700220E49F5E78A42E3D02021F0
S315080035200A4A91620121A2F5805251600649084A69
S31508003530886A800603D49342D5D00133F8E79342CC
S31508003540DDE700BF009000500080095000A0095038
S3150800355040420F003254FFFF38B54FF00042164B79
S3150800356001465A664AF6CD33144C154A656C2364EF
S3150800357043780B205B0043F00103D363FFF718FF82
S3150800358063688A7823F4F87343EA02136360CA7897
S315080035904B7943EA0223A3600A798B7943EA02232B
S315080035A023610878FFF782FFEB0744BF054B2364C6
S315080035B005F0B5FD012038BD009000500080095087
S315080035C0004000503254FFFF70B50F28044605D955
S315080035D040F66861124805F039FD0F244FF00042A5
S315080035E0104B11495D6E03F580535A664AF6CD3382
S315080035F04E6C80200B64FFF7DBFE0B6A23F00F038B
S3150800360023430B62F30744BF084B0B64002DA2BF8C
S315080036104FF00042064B5A6605F081FD70BD00BFAB
S315080036209EA6000800800050008009503254FFFF13
S3150800363000A0005008B50E4B984211D00D4B984289
S3150800364010D003F5804398420ED003F58043984284
S315080036500CD0094840F2793105F0F8FC002008BD85
S315080036605620FCE75720FAE76520F8E76620F6E7D4
S315080036700000015B00C00850ECA6000810B505F074
S3150800368053FD042300F5805100F500520B611361C8
S315080036900B6113610B6113610B611361202341F206
S315080036A0020103610023C360836041614FF4A021D6
S315080036B08361836541620549C36103628362C362AC
S315080036C043630365D164036310BD00BFFF3F0D0369
S315080036D038B51B4B044698420D460FD0194B9842F5
S315080036E00CD003F58043984208D003F580439842EE
S315080036F004D040F26911144805F0A8FC25B9204603
S31508003700BDE8384005F010BD012204F580535A6023
S3150800371040F6FF71204605F00F0205F001FDA26391
S31508003720782105F0FDFC05F001036A0748BF43F060
S315080037300203A26C02F003029A42FAD138BD00BF16
S315080037400000015B00C00850ECA60008F8B5054665
S315080037500C46164622B940F227216A4805F076FC3F
S31508003760694B9D420FD0694B9D420CD003F58043AF
S315080037709D4208D003F580439D4204D040F22A2199
S31508003780604805F063FC2CB92846FFF753FFFEF79F
S315080037907DFF0446AB68D80741D5B44204D24FF43E
S315080037A00D71584805F052FCB4FBF6F46F68013CFD
S315080037B0FF2C07F0010704D94FF40F71514805F0A3
S315080037C045FC24062FB92B6923F07F4323432B613D
S315080037D0F8BD2821284605F0A3FCAB6C990718D13B
S315080037E0AB6CDA0717D4AE6C16F0020615D140F2A8
S315080037F04921444805F02AFC284605F095FC2B6922
S31508003800314623F07F4323432B61BDE8F840FFF799
S315080038105FBF0526F0E70926EEE70626ECE76B68A4
S31508003820012B04D04FF41771364805F00FFCAB6D29
S31508003830DB07AB6848BF760003F0E003402B42D0B5
S3150800384009D893B1202B1AD040F29E21BDE8F84042
S315080038502C4805F0FBBB602B42D0802BF4D106EB3D
S315080038604603A34247D801230DE0B6EB141F04D93B
S315080038704FF42171234805F0E9FB102303E0B6EB6A
S31508003880D40F1AD8082373436401B4FBF3F4204F0A
S31508003890203CB7EBC40F4FEAC40604D240F2A92174
S315080038A0184805F0D3FB28463E40012105F038FCB0
S315080038B02E63BDE8F84005F033BC40F28921114873
S315080038C005F0C4FBDEE70623B4FBF3F3B34201D3EA
S315080038D00623D8E740F28E210A4805F0B7FBF7E73A
S315080038E0B6EB940F01D80423CDE740F2932105489F
S315080038F005F0ACFBF7E74FF42671024805F0A6FB86
S31508003900B1E700BFECA600080000015B00C0085044
S31508003910F8FF7F00F8B5974B044698420E460ED03E
S31508003920954B98420BD003F58043984207D003F590
S315080039308043984203D0E221904805F087FB1EB9E0
S31508003940E4218E4805F082FB727BB3687AB18C4A13
S31508003950934203D9E621894805F078FB3369D3B148
S31508003960DB7BC3B1E921854805F070FB13E0854A86
S31508003970934203D9EC21814805F068FB336953B1BA
S315080039801A7F42B1B168804A5B7F914240F28380D8
S31508003990042B00F283806368356923B140F6FF7112
S315080039A0204605F0BDFB2046FFF768FE2269737BBB
S315080039B0B17B22F087020B43134343F08003236154
S315080039C0002D6DD02369297F23F0F80343EAC1133C
S315080039D02978EA7B0B43297943EA4113697A43EA52
S315080039E0011343EA82132361E068D5E9053720F01D
S315080039F0F0403B4320F470200343287B697B43EA6D
S31508003A00802343EAC133E360A368F07B23F0030312
S31508003A10034343F00103A3606B88A06803F4C04323
S31508003A200343A360A368687943EA8023A360AB795C
S31508003A30EF79606A1B013F0203F0700307F4E06741
S31508003A4020F4772020F4EE603B430343287A0003F2
S31508003A5000F4E0400343687F000400F47020034349
S31508003A6063626369307B23F00F03034363616B89E9
S31508003A70A361002939D10AB33E4B9C423FD03E4B45
S31508003A809C424DD003F580439C425AD003F58043AF
S31508003A909C4268D012E0042B3FF67DAFF32162E723
S31508003AA0A368F27B23F00303134343F00103A360E7
S31508003AB06369327B23F00F0313436361D6E901126E
S31508003AC02046FFF743FE05212046FFF701FE282181
S31508003AD0204605F025FB3378A36305F021FBA36C8C
S31508003AE0DB4313F4405FFAD1F8BD224B9C420CD15C
S31508003AF0AB7B264903F00F034B67002ADED02B7CED
S31508003B00224A03F00F031367D8E71B4B9C420DD1DB
S31508003B10AB7B1E4903F00F03C1F88030002ACDD0D5
S31508003B202B7C1A4A03F00F03D367C7E7184B9C424E
S31508003B300ED1AB7B154903F00F03C1F88C30002A70
S31508003B40BCD02B7C114A03F00F03C2F88830B5E7C6
S31508003B50104B9C42B2D1AB7B0C4903F00F03C1F862
S31508003B609830002AAAD02B7C084A03F00F03C2F823
S31508003B709430A3E70000015B00C00850ECA60008DB
S31508003B80002D3101809698003F4B4C000090035061
S31508003B90000009500040095070B51F2904460D461B
S31508003BA0164603D99121064805F050FA2EB104F5B8
S31508003BB080540123AB40236070BD04F50054F8E738
S31508003BC03DA7000838B5032804460D4605D8094B15
S31508003BD033F81030CB40DB0704D440F28541064861
S31508003BE005F034FA302301225C43044BAA401A51EB
S31508003BF038BD00BFDAA70008F6A3000840D0035076
S31508003C0038B5032804460D4605D8094B33F8103055
S31508003C10CB40DB0704D440F25641064805F016FAB5
S31508003C20302301225C43044BAA401A5138BD00BF19
S31508003C30DAA70008F6A3000840E003502DE9F84F7C
S31508003C40032807460E46144698469DF828A09DF870
S31508003C502C9005D8274B33F81030CB40DB0703D41C
S31508003C60BF21254805F0F2F986EA0403032B03D998
S31508003C70C121214805F0EAF9072C4FF0030506F0A3
S31508003C80030625D84FEA840B05FA0BF529461B4887
S31508003C9007FA0BF205F06CFA2946194806FA0BF2F0
S31508003CA005F066FA424621461648FFF775FF524662
S31508003CB021461548FFF770FF0123144AA340C2F8AE
S31508003CC0203421464A46BDE8F84F1148FFF764BF3D
S31508003CD0A4F1080B4FEA8B0B05FA0BF529460D489C
S31508003CE007FA0BF205F044FA29460B4806FA0BF2D6
S31508003CF0D6E700BFDAA700088BA7000800C4035060
S31508003D0008C4035010C4035014C4035000E0035001
S31508003D1024C4035004C403500CC403502DE9F041D5
S31508003D20032804460D461746984605D81D4B33F812
S31508003D301030CB40DB0704D44FF4B0711A4805F0B5
S31508003D4085F937B129462046B8F1000F20D0FFF78C
S31508003D5039FF0F21072D04EB440688BFA5F1080398
S31508003D604FEA0616114895BFAB009B0004360C3681
S31508003D7007FA03F29940304405F0FAF97FB9294663
S31508003D802046B8F1000F06D0BDE8F041FFF71ABF8C
S31508003D90FFF736FFDDE7BDE8F041FFF731BFBDE8C5
S31508003DA0F08100BFDAA700088BA7000830C00350CF
S31508003DB010B5232001F00AF80024FF22064B2146FD
S31508003DC05C6520209A625C60FEF73AFC2146BDE8F5
S31508003DD010402120FEF734BC0000045038B50728EF
S31508003DE004460D4603DD7721084805F02FF91F2CF8
S31508003DF003D99121064805F029F9064A064B002DF4
S31508003E0008BF13460122A2401A6038BDE2A700087F
S31508003E103DA70008401004504020045010B5044641
S31508003E2018B991211F4805F011F923781B0613F0DC
S31508003E30604F03D092211B4805F008F9E3780F2B51
S31508003E4003D99521174805F001F901212020FEF72D
S31508003E50F7FB01212120FEF7F3FB0122124B232059
S31508003E605A60227812069A606178A27842EA01427C
S31508003E709A61FF229A6200229A631A644FF00042FE
S31508003E805A654FF0FF3203F500531A6500F0EEFF4E
S31508003E902320E17800F0F8FFBDE81040232000F069
S31508003EA0B3BF00BFE2A7000800000450F8B501261A
S31508003EB0C3B2072805460C46174606FA03F603DD7D
S31508003EC0DE21344805F0C2F81CB9DF21314805F077
S31508003ED0BDF8236823F47C1323F00F031BB1E221FA
S31508003EE02C4805F0B3F8A37A1B0413F47C0F03D00F
S31508003EF0E721284805F0AAF8E37A1B0513F07E6F38
S31508003F0003D0E921234805F0A1F8237B5B0513F0CC
S31508003F10FE5F03D0EB211F4805F098F81E4B27F0EB
S31508003F2003071E65AB00226803F1A04303F5882347
S31508003F305A60302202FB05F0637B00F1A04000F5D1
S31508003F4080200366E37AA27A1B0543EA0243227BB2
S31508003F5043EA4253C365076706F03CF90F4B227ADA
S31508003F605E6502B11E64627A02B19E632279A37904
S31508003F7043EA0243084A93616179E37943EA0143D4
S31508003F8006498B61064B56639E64BDE8F84006F009
S31508003F901CB900BFE2A70008002004500010045016
S31508003FA00000045010B50124C3B2072804FA03F42C
S31508003FB004DD40F27B11074805F048F806F00AF9D7
S31508003FC0054B5A6D22EA04025A659C62BDE8104008
S31508003FD006F0FBB8E2A700080000045010B501245B
S31508003FE0C3B2072804FA03F404DD40F299110A481B
S31508003FF005F02CF806F0EEF8084BDA6A224208D1EA
S315080040005B6B9C430CBF0124002406F0DEF82046B7
S3150800401010BD0024F9E700BFE2A70008000004501D
S3150800402070B50125C3B20728044605FA03F504DD71
S315080040304FF4E071094805F009F806F0CBF830228C
S31508004040074B5E6B02FB04335C6E06F0BEF8354226
S315080040500ABFC4F30A100020013070BDE2A70008A9
S3150800406000000450154B984225D003F5804398422A
S3150800407021D003F5804398421DD003F5804398422A
S3150800408019D003F58043984215D003F5804398422A
S3150800409011D003F5804398420DD003F5804398422A
S315080040A009D003F58043984205D003F58043C31A27
S315080040B05842584170470120704700BF008004509D
S315080040C030B4274CA04228D004F58044A0422FD013
S315080040D004F58044A0422DD004F58044A0422BD09C
S315080040E004F58044A04229D004F58044A04227D094
S315080040F004F58044A04225D004F58044A04223D08C
S3150800410004F58044A04221D004F58044A0421FD083
S3150800411030BC8F21134804F099BF00200625124CA5
S31508004120C3B105FB001004EB8004226630BC70475F
S315080041300120F3E70220F1E70320EFE70420EDE78B
S315080041400520EBE70620E9E70720E7E70820E5E78B
S315080041500920E3E705FB0011120204EB8104E4E7FA
S315080041600080045031A800080081035038B5054680
S315080041700C46FFF777FF18B9B421214804F066FF0B
S31508004180284605F004F8012205F500531A632B6B3F
S315080041909B07FCD4237962881B0243EA8243A27AEE
S315080041A01343627843EA8213E27A43EAC213227B14
S315080041B043EA4213627B43EA0213A27B43EAC20341
S315080041C0E27B43EAC223A27943EA0243E27943EA5D
S315080041D0424301226B6005F580531A6322780AB9B7
S315080041E00223EB6000236B626379217A1B0143EAA1
S315080041F08103617A0B43AB600AB10123EB6038BDDA
S3150800420031A80008F8B506460F461446FFF72AFFF8
S3150800421020B94FF48671254804F018FF022F04D9F7
S3150800422040F20D11214804F011FF304604F0AFFFAB
S31508004230012206F500531A63336B9B07FCD4637A95
S31508004240E2791B0143EA0253A27906EB47151343A9
S31508004250E27A43EAC2432B66237A1BB3237B2A6E90
S31508004260394642EA43422A66013B18BF01233046D3
S31508004270A278FFF725FF012306F580563363637896
S3150800428022781B0643EA8263E27843EA02332279FC
S3150800429043EA8223627943EA0223A27A43EA820343
S315080042A06B66F8BD2B6E2B66E5E700BF31A80008E4
S315080042B00D4B984208D1A3F5D023C3F85812802392
S315080042C000F58050C3657047084B984204D1A3F5A2
S315080042D0D823C3F87412F2E7054B984204BFA3F536
S315080042E0E023C3F89012EAE700000A5000400A509B
S315080042F000800A50F8B507460C461E4615464AB9C8
S3150800430040F25511314804F0A1FE24B1402E09D1DE
S31508004310062328E021B94FF42070FEF7B7F90446C2
S31508004320402E42D0402E09D87EB1202E17D04FF409
S31508004330CE71BDE8F840254804F088BE602EF6D157
S31508004340B5EB940F3CD804230DE0B5EB141F04D944
S3150800435040F287111D4804F079FE102303E0B5EBFF
S31508004360D40F1CD808235D436B0803EB4413B3FB37
S31508004370F5F3174D203BB5EBC30F4FEAC30404D240
S3150800438040F2B311114804F061FE602207F50053AC
S315080043909A602C4007F580539E60FC61F8BD4FF487
S315080043A0C6710A4804F052FEDCE70623B4FBF3F3B1
S315080043B0AB42ADD240F29111044804F047FEA7E79C
S315080043C04FF4CB71014804F041FEBCE781A8000810
S315080043D0F8FF7F0038B5104B044698420D460CD0BE
S315080043E003F58043984208D003F58043984204D0E9
S315080043F04FF43971094804F029FE012204F5805367
S315080044005A60EB43934003F00A036361656115B98B
S3150800441004F50054626038BD00000A5081A80008FF
S3150800442010B51B4B044698420CD003F580439842BE
S3150800443008D003F58043984204D040F25E411548FF
S3150800444004F004FE012204F580535A6040F6AA637C
S3150800445041F20502636100230F49A360E365E26048
S3150800446004F500522361E361E36491640849A36596
S315080044708C4203D123650023636506E007498C4215
S31508004480F8D001F580418C42F4D00123536010BD69
S3150800449000000A5081A80008FFFF010000400A50EA
S315080044A070B5424B044698420D460CD003F580433E
S315080044B0984208D003F58043984204D040F215315B
S315080044C03B4804F0C3FD2046FFF7AAFF012304F585
S315080044D080567360AB7C1BB1A36843F08043A3602E
S315080044E0EB7C1BB12046297DFFF7E2FE2A8A6B7B0F
S315080044F020461343EA891343E3602B7BD5E901126F
S31508004500FFF7F8FE6B7D1BB1A36843F48033A36005
S31508004510AB7D1BB1A36843F40043A360EB7D2A7E01
S315080045201B07120502F4E00203F0E0431343A365F8
S315080045306A7E2049931E012B1C4B1BD89C4215D022
S3150800454003F580439C4213D003F580439C420CBF7D
S3150800455002234FF0FF330220C1335B01C850032A00
S315080045601FD10423F3652B78636170BD0023F2E73E
S315080045700123F0E79C4210D00F4B9C420FD003F565
S3150800458080439C420CBF02234FF0FF33022003F204
S3150800459041135B01C850012AE2E70023F6E701232D
S315080045A0F4E7042204F50053DA65DCE700000A5054
S315080045B081A8000800C0035000400A5010B5044600
S315080045C020B940F23A21124804F040FD23782BB175
S315080045D0012B17D0022B18D0032B05D140F2FF73FD
S315080045E06278D340DB0704D440F23D21084804F042
S315080045F02DFD0122637821789A4030235943054BD3
S315080046005A5010BD40F2FF13EAE743F6FF73E7E797
S31508004610D1A8000840E00350034BD3F82424D3F86C
S3150800462020041040704700BF00C0035010B5044670
S3150800463020B94FF449711C4804F008FD23782BB9BA
S315080046406078053818BF4FF0FF3010BD012B08D130
S315080046506378012B1CD0032B14BF4FF0FF300420C6
S31508004660F3E7022B09D16378A3B1052B14D0072BE6
S3150800467014BF4FF0FF300820E7E7032B0ED163780D
S31508004680022B0ED0052B14BF4FF0FF300A20DCE7B3
S315080046900320DAE70620D8E70720D6E74FF0FF30F1
S315080046A0D3E70920D1E700BFD1A80008064BDA6E88
S315080046B002F03002202A06D0DA6E22F0300208B163
S315080046C042F01002DA667047004000502DE9F041CA
S315080046D0037804460D4616462BB1012B21D0022B32
S315080046E022D0032B05D140F2FF736278D340DB0753
S315080046F003D45D21284804F0A9FC284BD3F81033CD
S315080047001BB16021244804F0A1FC0F2D0FD8DFE867
S3150800471005F03A35353535353535353535353535AB
S31508004720353540F2FF13E0E743F6FF73DDE7B421C2
S31508004730194804F08BFC4FF00008204606B305F034
S3150800474015FA0F2167782378072F03EB430388BFF1
S31508004750083F4FEA0313124895BFBF00BF00043352
S315080047600C3308FA07F2B940184404F01CFD85B961
S31508004770204656B1BDE8F04105F0F8B9A846DCE791
S31508004780FFF71CFFDDE7A846DBE7BDE8F041FFF7CA
S3150800479015BFBDE8F08100BF29A9000800C0035075
S315080047A030C003502DE9F047037806460C461546F7
S315080047B02BB1012B4FD0022B50D0032B05D140F241
S315080047C0FF737278D340DA0704D44FF49C714C48CF
S315080047D004F03CFC022D06D9042D04D040F2391110
S315080047E0474804F033FC474FD7F8103323B14FF44A
S315080047F09D71434804F02AFC002C32DB7378634031
S31508004800032B04D94FF49F713D4804F01FFC012780
S31508004810072C05F005094FF00308327805F0060560
S3150800482007FA04F729DC4FEA840A08FA0AF8414627
S31508004830354802FA0AF204F0B6FC7278414602F0EC
S315080048400302324802FA0AF204F0ADFCB9F1000F8D
S315080048503AD12F4B39E040F2FF13B2E743F6FF7324
S31508004860AFE7631C06D1D7F82414707804F0AAFCC5
S31508004870041ECCDA2046BDE8F087A4F1080A4FEA00
S315080048808A0A08FA0AF84146224802FA0AF204F0A5
S315080048908AFC7278414602F003021F4802FA0AF2BD
S315080048A004F081FCB9F1000F14D01F2C0CDD742123
S315080048B01A4804F0CBFB1A4BC3F8107495B9742147
S315080048C0164804F0C3FB03E0154BC3F810746DB922
S315080048D00F4B0CE01F2CBCDD7421104804F0B6FB0E
S315080048E00B4BE9E774210D4804F0B0FB0C4BC3F8F9
S315080048F014740123064AA340C2F82034BAE700BF5D
S3150800490029A9000800C0035000C4035008C4035076
S3150800491000E0035004C403500CC4035081A90008E6
S3150800492000D0035070B5154E054630420C4604D0EB
S3150800493040F28911124804F089FB344204D04FF43E
S31508004940C5710F4804F082FB0E4B2C40D3F8302477
S31508004950012022EA0502C3F83024D3F83024144390
S31508004960C3F83044D3F82C242A43C3F82C24FFF781
S315080049709DFE054BC3F8205470BD00BFFFFF00F035
S3150800498029A9000800C0035000E00350F8B50378D1
S3150800499005460F4616462BB1012B21D0022B22D0F5
S315080049A0032B05D140F2FF736A78D340D80704D4A5
S315080049B040F29B11184804F049FB184BD3F8103302
S315080049C023B14FF4CE71144804F040FB2846FFF794
S315080049D02DFE791C044609D1421C0BD12046F8BD90
S315080049E040F2FF13E0E743F6FF73DDE7431CF5D01B
S315080049F0B8420ED12846032186F00102FFF766FE6B
S31508004A00012004F1100306FA03F19840FFF78AFF24
S31508004A10E4E74FF0FF34E1E729A9000800C0035096
S31508004A20054B9A689107FCD45A689207F9D4DA6953
S31508004A30002AF6D1704700BF00C00A5010B5074CCF
S31508004A406368DB0704D44FF49371054804F0FEFA53
S31508004A5005F0BAF80223236110BD00BF00C00A5052
S31508004A60D8A9000808B5FFF7DBFF0122024B03F5BA
S31508004A7080514A601A6108BD00C00A5010B5044B3F
S31508004A805C68012C03D1FFF7D9FF024B5C6010BDAF
S31508004A9000C00A5000E00A5038B5074DFFF7C0FFBE
S31508004AA06B680446012B03D1FFF7E8FFFFF7B8FF51
S31508004AB02378EB6038BD00BF00C00A5038B50546FC
S31508004AC00C4605F08BF8BDB96268237812B11278E6
S31508004AD043EAC203627843EA4203A26812B1127833
S31508004AE043EA8213E27843EA8203226912B1127812
S31508004AF043EA4223014A936438BD00BF00C00A5006
S31508004B0030B58BB0914805F070FB20B140F23631D4
S31508004B108F4804F09BFA6C468E4D0FCD0FC42B6858
S31508004B208D4A2360FF238DF80130D2F84C3113F4F7
S31508004B30802340F0FE80D2F850218DF801309DF890
S31508004B4001306C46FF2B08BF3F236846834D8DF81E
S31508004B500130FEF75DF93220FEF7BCF90FCD0FC420
S31508004B600FCD0FC495E8030084E803007A4BD3F809
S31508004B704C21120340F1C180A3F5FE431C88B4F50D
S31508004B80807F28BF8C248DF81940FEF73BF9044432
S31508004B9084F3080472488DF81840FCF7D7FC684679
S31508004BA0FEF71EF83220FEF79BF96E48FEF7BEFAAE
S31508004BB06D48FEF749FB6D4805F017FB20B140F23A
S31508004BC0CB11634804F042FA694C0020FEF78EF9CF
S31508004BD0FEF762FA236F002023F0070343F003036E
S31508004BE02367FEF783FA236F624923F47443236726
S31508004BF0614BD3F8FC2012F0807240F08280D4F822
S31508004C00803023F0030343F00103C4F88030C1F871
S31508004C108020574CD4F8203123F0070343F00203D1
S31508004C20C4F82031D4F8283123F0070343F00203EF
S31508004C30C4F82831D4F8803123F0030343F0010384
S31508004C40C4F88031D4F8403123F0030343F002035B
S31508004C50C4F84031D4F8603123F0030343F002036B
S31508004C60C4F86031D4F8403223F0030343F002035A
S31508004C70C4F84032D4F8003223F0070343F00203A5
S31508004C80C4F80032D4F8083223F0070343F00203CD
S31508004C90C4F80832D4F8503223F0030343F0020371
S31508004CA0C4F85032D4F8703223F0030343F00103FA
S31508004CB0C4F87032D4F8203223F0070343F0010316
S31508004CC0C4F82032FDF774FF4FF0E0220020136984
S31508004CD043F004031361D4F8603223F0070343F06A
S31508004CE00103C4F86032D4F8943223F0070343F082
S31508004CF00103C4F894320BB030BDD3F85041E4B286
S31508004D0041E7D3F8FC2022F08072C3F8FC20D4F8DF
S31508004D10802022F0030242F00102C4F8802000221B
S31508004D20C1F88020D3F8FC2042F08072C3F8FC203A
S31508004D306FE74FF07E6393F89C2093F99C30002B25
S31508004D40FFF6FDAE8DF80120F9E600BFB4AB00080A
S31508004D50FBAA000870AB00080080E00F84AB0008CF
S31508004D60C017530200B4C404C0EA2101B8AB000856
S31508004D70008000500090005000ED00E007B5094B98
S31508004D8018689A889B7900906846ADF804208DF8D3
S31508004D900630FEF7E1FB0C20FEF716FC002003B0F8
S31508004DA05DF804FBACAB000813B50024064A684658
S31508004DB0536F43F00103536700948DF80440FEF7E0
S31508004DC0FFFA204602B010BD0040005010B55D281D
S31508004DD004460DD801220A49630904F01F04A240BB
S31508004DE0203341F82320BFF34F8FBFF36F8F10BDD9
S31508004DF040F22511034804F029F9002CF7DBE9E70E
S31508004E0000E100E0D0AB000810B55D28044608D8DC
S31508004E1001236109074A04F01F04A34042F8213020
S31508004E2010BD4FF49871044804F010F9002CF7DB14
S31508004E30EEE700BF00E100E0D0AB000810B55C2843
S31508004E40044604D940F23B11064804F0FFF8064B25
S31508004E50621153F8220004F01F04E040C04300F03A
S31508004E60010010BDD0AB000800E100E0002808DB17
S31508004E7001224309034900F01F008240603341F8CC
S31508004E802320704700E100E038B500F110036D2BD0
S31508004E9004460D4604D94FF4EF710E4804F0D6F8CF
S31508004EA00F2D04D940F2DF110A4804F0CFF860B29A
S31508004EB00028ACBF00F16040074B4FEA0515EDB27C
S31508004EC0ABBF00F5614000F00F0080F800531D5499
S31508004ED038BD00BFD0AB000814ED00E010B505F0F2
S31508004EE079F90A4B1A786AB901226FF004041A7024
S31508004EF005F06BF9204605210134FFF7C5FF5D2C47
S31508004F00F8D110BDBDE8104005F05FB9281600209D
S31508004F1010B5044605F055F9024B1C6005F04CF92E
S31508004F20002010BDA414002010B505F04AF9034B63
S31508004F301C6805F041F9204610BD00BFA4140020E6
S31508004F403021037D02464B4303F1A04303F580233A
S31508004F50D86E07491B6F884208D113F0020006D0A5
S31508004F60106A136D1B1A5842584170470020704743
S31508004F702916002037B53023007D0DF1070143437C
S31508004F8003F1A04303F58023DD6E1C6F04F0AAFD30
S31508004F9020B140F2F931084804F058F89DF80700A6
S31508004FA040B9064B9D4203D184F00204C4F3400085
S31508004FB003B030BD0120FBE748AC000829160020E5
S31508004FC037B504460DF10701007D04F08BFD20B1CD
S31508004FD040F24441114804F039F89DF80730A3B16E
S31508004FE0256DD4E9122313449D4201D8AA4204D957
S31508004FF040F24F41094804F029F8D4E91203034462
S315080050009D4218BF284603B030BD3022237D534346
S3150800501003F1A04303F58023DD6EE2E748AC000800
S315080050202DE9F743D0E9043404F17C07D0F80C9055
S31508005030013B06461022002138469DB2D4F87480FA
S3150800504004F07DFA104BC5F30A0543EA0513C4E9D3
S315080050501F39012394F8780084F88C30C4F88480CA
S315080050603A460A4B009604F16401FCF779FE38B11A
S3150800507040F28D31064803B0BDE8F04303F0E6BFC1
S3150800508003B0BDE8F08300BF0000103009520008E5
S3150800509048AC00082DE9F04385B000F1380604460F
S315080050A010220021304604F04AFA4FF44473534D57
S315080050B0207DC4E90F556387FCF778FE20B140F2DE
S315080050C0CA514F4803F0C2FF10220021304604F0AF
S315080050D036FA4FF4447363873023207DC4E90F55AD
S315080050E0434303F1A04303F58023DB6EAB420BD1A8
S315080050F0FCF77CFE002876D040F2D351404805B034
S31508005100BDE8F04303F0A2BF0DF10B0104F0EAFC81
S3150800511020B140F2D9513A4803F098FF9DF80B3078
S31508005120002B63D12046FFF74BFF03A90746207DD6
S3150800513004F0FAFC20B140F2E151314803F086FF51
S31508005140039B002B04DC40F2E3512D4803F07EFF5D
S31508005150039B04F11808013B1022002140469DB22A
S31508005160D4F8109004F0EBF93022237DC5F30A0534
S3150800517053432D0145F04075C4E9065903F1A04390
S31508005180276203F580231A6F94F82410520862F3F5
S31508005190410184F82410196F94F8242028F0030894
S315080051A061F3000284F824201B6F626A9B0863F38C
S315080051B09F0248F002036262636400943246214605
S315080051C0104B207DFCF7CCFD20B140F204610C4861
S315080051D003F03CFF207DFCF709FE20B14FF4C161C6
S315080051E0074803F033FF05B0BDE8F08394F8443070
S315080051F06FF3410384F84430DFE700BF2916002027
S3150800520048AC00086392000838B55569144695F805
S315080052108C3023B940F26A310A4803F017FF00239D
S3150800522005F1900085F88C30FCF7B2F908B1FFF764
S31508005230F7FE63681BB100212046A2689847002044
S3150800524038BD00BF48AC000838B50446007DFCF7F9
S31508005250ADFD20B140F22D41084803F0F7FE204687
S31508005260FFF76EFE0546207DFCF7C0FD20B140F233
S315080052703241024803F0EAFE284638BD48AC000829
S315080052802DE9F04F8DB09946002304460891069201
S31508005290C9F80030D9F80060069B9D1B00F0C58050
S315080052A0089B9E1900F0C1802046FFF7CDFF804677
S315080052B0002840F0BA802046FFF782FE226D904211
S315080052C040F2BC80801A854228BF054694F896A00D
S315080052D0BAF1000F00F0F28004F07CFF236D07900E
S315080052E020460993FFF746FE2F46099B8346581921
S315080052F08342D4F8981040F0BC80D4E912231344B2
S315080053008B4208BFC4F89820D4F898108A4201D86E
S315080053108B4204D840F242518A4803F097FE079818
S3150800532004F053FFDA46207DFCF740FD20B140F239
S315080053308241844803F08AFE207D0DF12F0104F096
S31508005340D1FB20B140F286417E4803F07FFE20461D
S31508005350FFF736FE236D834698429DF82F3040F2BC
S31508005360BC8023B140F28E41764803F06FFEA26CF2
S31508005370236DAEB2934240F0A880099304F1280841
S315080053802369102200214046079304F0D8F83021FB
S31508005390079B013EE362099BC6F30A062363237D46
S315080053A036014B4328F0030803F1A04346F0407644
S315080053B048F0020203F58023A6621A67236DD4E932
S315080053C012122B440A44934208BF0B4693422365A4
S315080053D004D340F2DE415B4803F038FE236D9B455B
S315080053E005D10123204684F85430FFF753FE207D6B
S315080053F0FCF7FCFC20B140F2F741524803F026FEC8
S3150800540094F896303BB1BAF1000F04D0236E1121FF
S3150800541020465B689847D9F8003037B1069A3B446E
S315080054209342C9F80030FFF435AFD9F80030002BA5
S3150800543014BF00201B200DB0BDE8F08FD4E912314F
S315080054400B449A4204D340F26A413E4803F0FEFDFB
S31508005450D4E912321344226D9B1A9D4228BF1D4679
S31508005460002D7FF433AF40F21651364803F0EEFDB7
S315080054702CE701335A1E914210D1C4F8983013F81C
S31508005480012C112A01D0132A14D1013FA2F11101CE
S315080054904A424A41D04684F89C2029E713F8012C51
S315080054A002F0FD01112906D1013FB8F1000F3FF4C2
S315080054B01FAFEBE7D04606F8012B19E72A46304618
S315080054C0216D04F047F82F462DE7238DC3F30A1202
S315080054D0164466F30E13238570E7207D93B93023AF
S315080054E0584300F1A04000F58020426E436EC2F397
S315080054F00A1223F4FF432A4423F0700343EA0213F3
S3150800550043665BE7104B049403930023CDE90153EC
